:100000000C944B020C94F2150C94CB150C947302C7
:100010000C9473020C9473020C9473020C9473028C
:100020000C9473020C9473020C9473020C9473027C
:100030000C9473020C9473020C9473020C9473026C
:100040000C9481150C9473020C943F160C941916A1
:100050000C9473020C9473020C9473020C9473024C
:100060000C9471160C947302000000000000006FE5
:1000700000000007000700147F147F148C92FF9289
:1000800062231308646236495620500000070000BE
:10009000001C2241000041221C0014083E081408E4
:1000A000083E0808005030000008080808080060F2
:1000B00060000020100804023E5149453E00427F86
:1000C000400042615149462141454B311814127F8D
:1000D0001027454545393C4A494930017109050316
:1000E0003649494936064949291E0036360000007E
:1000F0005636000008142241001414141414004150
:1001000022140802015109063E415D494E7E09094B
:10011000097E7F494949363E414141227F41414163
:100120003E7F494949417F090909013E4149497AD0
:100130007F0808087F00417F41002040413F017F48
:10014000081422417F404040407F020C027F7F0420
:1001500008107F3E4141413E7F090909063E415159
:10016000215E7F09192946464949493101017F012C
:10017000013F4040403F0F3040300F3F4030403F54
:100180006314081463070870080761514945430068
:10019000007F4100020408102000417F000004029B
:1001A0000102044040404040000003040020545439
:1001B00054787F48444438384444442038444448C0
:1001C0007F3854545418087E0901020C5252523E92
:1001D0007F0804047800447D40002040443D000036
:1001E0007F10284400417F40007C041804787C087C
:1001F00004047838444444387C1414140808141453
:10020000187C7C080404084854545420043F44409B
:10021000203C4040207C1C2040201C3C4030403C86
:1002200044281028440C5050503C4464544C440022
:100230000836414100007F000041413608000402B9
:100240000408047E1111117E7F494949337F4949D1
:1002500049367F01010103E0514F41FF7F49494980
:100260004177087F087741494949367F1008047F64
:100270007C2112097C7F0814224120413F017F7FAD
:10028000020C027F7F0808087F3E4141413E7F010A
:1002900001017F7F090909063E4141412201017F99
:1002A000010147281008071C227F221C6314081430
:1002B000637F404040FF070808087F7F407F407F02
:1002C0007F407F40FF017F4848307F4830007F00FB
:1002D0007F484830224149493E7F083E413E4629F9
:1002E00019097F20545454783C4A4A49317C54546B
:1002F00028007C04040C00E0544C44FC3854545452
:10030000186C107C106C44545428007C2010087C1D
:1003100078422412787C1028440020443C047C7CE1
:100320000810087C7C1010107C38444444387C044D
:1003300004047C7C14141408384444440004047CF1
:1003400004040C5050503C3048FE483044281028DB
:10035000447C40407CC00C1010107C7C407C407C75
:100360007C407C40FC047C5050207C5050207C7CA5
:100370005050200028445454387C103844380854D5
:1003800034147C38555455181F1C1F1E1F1E1F1F68
:100390001E1F1E525443206572720000000000248C
:1003A0000027002A0000000000250028002B000084
:1003B0000000080002010000030407000000000024
:1003C000000000D0A3D181D182D0B0D0B2D0BAD0B9
:1003D000B000000000000080C0C0E0F0707030305D
:1003E0003020000000000000C0E0F0F0703030204D
:1003F0000000003078FC7F3F0F0F1F3C78F0E0C01A
:1004000080808040E0F0F8FCFF7F33131E1C1C0E40
:100410000700000000000000000080C0E0F0F9F7D5
:10042000EF5F3F7FFEFDFBF1E0C0800000000000B9
:10043000000000000000000C1E33331F0F070301F3
:1004400000000000000103070F1F3F1F0E04000003
:100450000000AED5808D142001A1C8817FDB40A6AD
:10046000AF0102040810204080010204081020019E
:1004700002040810200000000023002600290004C8
:10048000040404040404040202020202020303033B
:1004900003030300901711241FBECFEFD8E0DEBF87
:1004A000CDBF27E0A0E9B1E001C01D92A538B20799
:1004B000E1F711E0A0E0B1E0ECE7F9E402C005905B
:1004C0000D92A039B107D9F712E0CBE4D2E004C015
:1004D0002197FE010E940C20CA34D107C9F70E945F
:1004E00032190C94BC240C940000089508952091B6
:1004F00008032817190670F120910703261717061D
:1005000048F11092110710921007109213071092E1
:100510001207FB0123E0F595E7952A95E1F733E013
:10052000880F991F3A95E1F7E80FF91F6770772751
:1005300081E090E0A0E0B0E004C0880F991FAA1FFE
:10054000BB1F6A95D2F7EF5FFC4F442321F0228551
:10055000822B82870895809592858923FACF2F92E6
:100560003F924F925F926F927F928F929F92AF9243
:10057000BF92CF92DF92EF92FF920F931F93CF9390
:10058000DF9300D000D0CDB7DEB79C838B837B0197
:100590008A01690110921107109210071092130737
:1005A000109212078417950709F051C026173707D4
:1005B00024F08D2D6B01E22EF82E809108032B8103
:1005C0003C8182171306BCF40F900F900F900F9090
:1005D000DF91CF911F910F91FF90EF90DF90CF901F
:1005E000BF90AF909F908F907F906F905F904F9053
:1005F0003F902F900895CE14DF04E1F441E0B6015E
:100600008B819C810F900F900F900F90DF91CF9175
:100610001F910F91FF90EF90DF90CF90BF90AF9020
:100620009F908F907F906F905F904F903F902F9012
:100630000C947702EC14FD043CF241E0B6018B818E
:100640009C810E9477022FEFC21AD20AF3CF621761
:100650007307E9F58B819C81481759072CF0812F8E
:100660000B811C814B838C83809107038E151F04A3
:100670000CF4AACF2B813C810217130721F441E02F
:10068000B701C801BFCF8091080390E080179107A0
:100690000CF48C0117FF02C010E000E02B813C81BC
:1006A0002F5F3F4F3A8329838217930714F49A836D
:1006B000898389819A81081719070CF085CF41E059
:1006C000B701C8010E9477020F5F1F4FF2CF2A01C6
:1006D0002B813C81421A530A57FE03C05194419426
:1006E000510836016E187F0877FE03C0719461943B
:1006F00071088B819C8122242394312C80179107CF
:100700001CF022242A94322CEC14FD0494F521E0F0
:1007100030E03A832983420186189708AA24BB2433
:10072000A618B70841E0B7018B819C810E9477022F
:100730002B813C810217130721F4CE14DF0409F446
:1007400043CFC401880F991FA816B9065CF4861818
:1007500097082B813C81220D331D3C832B8384150C
:10076000950504F7840C951C89819A81E80EF91E81
:10077000D9CF8FEF9FEF9A838983CDCF833081F0DC
:1007800028F4813099F08230A9F008958730A9F0DB
:100790008830C9F08430B1F4809180008F7D03C02F
:1007A000809180008F7780938000089584B58F7743
:1007B00084BD089584B58F7DFBCF8091B0008F7785
:1007C0008093B00008958091B0008F7DF9CFCF93D2
:1007D000DF93282F30E0F901E155FC4F8491F901B6
:1007E000EF59FB4FD491F901E158FB4FC491CC2351
:1007F000A1F081110E94BE03EC2FF0E0EE0FFF1F6D
:10080000EB58FB4FA591B491EC91ED2381E090E082
:1008100009F480E0DF91CF91089580E090E0FACF75
:100820001F93CF93DF93282F30E0F901E155FC4F60
:100830008491F901EF59FB4FD491F901E158FB4F35
:10084000C491CC23A9F0162F81110E94BE03EC2F76
:10085000F0E0EE0FFF1FEB55FC4FA591B4918FB761
:10086000F894EC91111108C0D095DE23DC938FBF72
:10087000DF91CF911F910895DE2BF8CFCF93DF93B7
:1008800090E0FC01EF59FB4F249181589B4FFC01F4
:1008900084918823D1F090E0880F991FFC01E556E0
:1008A000FC4FA591B491FC01EB55FC4FC591D4913F
:1008B000623071F49FB7F8943C91822F8095832326
:1008C0008C93E8812E2B28839FBFDF91CF910895D1
:1008D0008FB7F894EC912E2B2C938FBFF6CF3FB7A8
:1008E000F8948091D9019091DA01A091DB01B09147
:1008F000DC0126B5A89B05C02F3F19F00196A11D6C
:10090000B11D3FBFBA2FA92F982F8827BC01CD0159
:10091000620F711D811D911D42E0660F771F881FB8
:10092000991F4A95D1F708958F929F92AF92BF92E7
:10093000CF92DF92EF92FF924B015C010E946F0415
:100940006B017C010E946F046C197D098E099F095F
:10095000683E734081059105A8F321E0821A910851
:10096000A108B10888EEC80E83E0D81EE11CF11C76
:1009700081149104A104B10429F7FF90EF90DF9056
:10098000CF90BF90AF909F908F9008952FB7F8941D
:100990006091D5017091D6018091D7019091D801D5
:1009A0002FBF08950895EF92FF920F931F93CF9357
:1009B000DF938C017B01D0E0C0E0F701EC0FFD1F5D
:1009C0006491662361F0D801ED91FC910190F08172
:1009D000E02DC8010995892B11F02196EECFCE01AB
:1009E000DF91CF911F910F91FF90EF900895AF92FB
:1009F000BF92CF92DF92EF92FF920F931F93CF930C
:100A0000DF936C017B018B01040F151FEB015E016D
:100A1000AE18BF08C017D10759F06991D601ED9102
:100A2000FC910190F081E02DC6010995892B79F7A1
:100A3000C501DF91CF911F910F91FF90EF90DF9053
:100A4000CF90BF90AF900895FC01538D448D252F1A
:100A500030E0842F90E0821B930B541710F0CF9658
:100A6000089501970895FC01918D828D981761F08A
:100A7000A28DAE0FBF2FB11D5D968C91928D9F5FA1
:100A80009F73928F90E008958FEF9FEF0895FC0180
:100A9000918D828D981731F0828DE80FF11D858D33
:100AA00090E008958FEF9FEF0895FC01918D228DC6
:100AB000892F90E0805C9F4F821B91098F7399274B
:100AC000089588E592E00E94550521E0892B09F4FC
:100AD00020E0822F089580E090E0892B29F00E9489
:100AE000610581110C9400000895FC01A48DA80FEC
:100AF000B92FB11DA35ABF4F2C91848D90E0019660
:100B00008F739927848FA689B7892C93A089B1897F
:100B10008C91837080648C93938D848D981306C020
:100B20000288F389E02D80818F7D80830895EF9284
:100B3000FF920F931F93CF93DF93EC0181E0888F97
:100B40009B8D8C8D98131AC0E889F989808185FF67
:100B500015C09FB7F894EE89FF896083E889F98909
:100B600080818370806480839FBF81E090E0DF910B
:100B7000CF911F910F91FF90EF900895F62E0B8D5E
:100B800010E00F5F1F4F0F731127E02E8C8D8E1119
:100B90000CC00FB607FCFACFE889F989808185FF80
:100BA000F5CFCE010E947505F1CFEB8DEC0FFD2F37
:100BB000F11DE35AFF4FF0829FB7F8940B8FEA893B
:100BC000FB8980818062CFCFCF93DF93EC01888D4A
:100BD0008823B9F0AA89BB89E889F9898C9185FDB8
:100BE00003C0808186FD0DC00FB607FCF7CF8C9146
:100BF00085FFF2CF808185FFEDCFCE010E94750584
:100C0000E9CFDF91CF9108958F929F92AF92BF92DB
:100C1000CF92DF92EF92FF92CF93DF93EC016A01C4
:100C20007B0180E8C81A83E4D80A8DE6E80A88E3E5
:100C3000F80A8CE3882E912CA12CB12CC701B601A7
:100C4000A50194010E94C41F6D83CA01B901A501C9
:100C500094010E94C41F6C83C701B60120E13EE0ED
:100C600040E050E00E94C41FCA01B90128E130E011
:100C700040E050E00E94C41F6B83C701B60120E82A
:100C800031E541E050E00E94C41F188263E97EEF25
:100C90008881982F937041E050E011F050E040E0DF
:100CA000FA01E359FE4F2E173F0740F0FB01E41B0A
:100CB000F50B2E0F3F1F8F5F8883EACF81E089837A
:100CC00089818C30A0F4482F4150550BFA01E85728
:100CD000FC4FE491911103C0823009F4EF5FF0E022
:100CE0002E173F0720F02E1B3F0B8F5FE8CF2F5FA3
:100CF0002A83DF91CF91FF90EF90DF90CF90BF904C
:100D0000AF909F908F900895DC0150E0E8E8F3E009
:100D100081E0861730F49491490F511D8F5F319611
:100D2000F8CF633038F0CD0183709927892B11F407
:100D30004F5F5F4F9D012D5F3F4F3695279536954D
:100D400027956DE671E0A69FC001A79F900DB69F05
:100D5000900D11240197820F931F840F951F089502
:100D6000EF92FF920F931F93CF93DF93EC01888153
:100D70004A81698190E00E9484069C01A8E1B0E06C
:100D80000E94811F2B817B018C01E20EF11C011D51
:100D9000111DA8019701ACE3B0E00E943F1F2C8118
:100DA0007B018C01E20EF11C011D111DA8019701B0
:100DB0000E943F1FAB01BC019D81892F90E0B0E0F4
:100DC000A0E080589C4BA249B74C8A019B01080FB8
:100DD000191F2A1F3B1FC901B801DF91CF911F9135
:100DE0000F91FF90EF9008950F931F93CF93DF9390
:100DF00000D000D000D0CDB7DEB7FC012081243672
:100E000010F58C010E94B006AB01BC01CE01019629
:100E10000E940406F80190818981981314C0918181
:100E20008A81981310C092818B8198130CC0938192
:100E30008C81981308C094818D81981304C081E03F
:100E400025819E81291380E026960FB6F894DEBF97
:100E50000FBECDBFDF91CF911F910F9108952091CB
:100E6000B101260F3327331F21323105ECF42091D5
:100E70002E02FC0190E080E0243069F082E00895C9
:100E8000A091B1012191AC014F565E4FA40FB52F37
:100E9000B11D2C930196861798F38091B101680FCC
:100EA0006093B10180E0089581E0089510922E02D0
:100EB00081E080932D021092080261E082E10E949D
:100EC000100461E083E10E941004E9EBF0E080810E
:100ED0008E7F808380818D7F808388E48093B800BB
:100EE00085E48093BC0008951092E7011092E6011A
:100EF00010923502109257020E94560785E792E041
:100F00009093E5018093E40186E792E09093E301FA
:100F10008093E2010895CF93DF9391E09093900145
:100F20008823B9F0C091B800D091BA008091BC007C
:100F30008A7B8093BC0060E082E10E94100460E044
:100F400083E10E9410040E945607D093BA00C09318
:100F5000B800DF91CF9108958F929F92AF92BF9288
:100F6000CF92DF92EF92FF920F931F93CF93DF9375
:100F7000D0915702D13208F0D7C0182FC091560235
:100F80000E946F046B017C0180912E0281116BC065
:100F900082E080932E0210932D028FEF80932C021B
:100FA00010922B02D0932A02A6E3B2E0EAE0F2E02C
:100FB00080E0D81391C01092090280910902CC0FF1
:100FC000C82BC093090280910802813009F088C0C3
:100FD000109208020E946F046B017C01809109024B
:100FE0008093BB008091300290913102A091320237
:100FF000B0913302892B8A2B8B2BA1F00E946F04B6
:10100000009130021091310220913202309133026E
:101010006C197D098E099F090617170728073907DC
:1010200008F442C08091BC0083FDD8CF85EC80934A
:10103000BC000E946F046B017C0180912E02823003
:1010400009F450C080912C028F3F09F46FC0809149
:101050002C02803209F46CC080912C02803309F498
:1010600069C084E026C08091300290913102A09145
:101070003202B0913302892B8A2B8B2B09F484CF57
:101080000E946F048090300290903102A090320252
:10109000B09033026C197D098E099F098616970658
:1010A000A806B90608F070CF80912F020E948B0726
:1010B00085E0109235021092570210923402DF91AF
:1010C000CF911F910F91FF90EF90DF90CF90BF9045
:1010D000AF909F908F9008959D9191938F5F69CF6E
:1010E00085EEA5CF8091300290913102A09132021D
:1010F000B0913302892B8A2B8B2B09F49ECF0E944F
:101100006F0400913002109131022091320230912F
:1011100033026C197D098E099F09061717072807E6
:10112000390708F08ACFC0CF81E0C3CF80E0C1CFBC
:1011300082E0BFCF83E0BDCFCF93DF93EC018B8103
:101140008823A1F0888191E0909334028093560225
:10115000109235021092570281E00E94AC0791E094
:10116000811190E0892FDF91CF9108950E9474073B
:1011700081E08B83CE010E949C08982F8111E2CFE1
:10118000F1CF0895E091E7018091E601E81730F48E
:10119000F0E0E851FE4F808190E008958FEF9FEFDF
:1011A00008959091E7018091E6012FEF3FEF9817A6
:1011B00048F4E92FF0E0E851FE4F208130E09F5FD6
:1011C0009093E701C90108958091E6019091E701AC
:1011D000891B990B0895CF92DF92EF92FF920F93A4
:1011E0001F93CF93DF937C01CB018A0120913402BE
:1011F000222389F0EB016B01C40ED51ECC15DD0551
:1012000069F06991D701ED91FC910190F081E02D99
:10121000C7010995F3CF642F0E942F07C801DF9102
:10122000CF911F910F91FF90EF90DF90CF90089595
:10123000CF93DF931F92CDB7DEB76983209134023D
:101240002223F9F020915702203258F021E030E0BB
:10125000FC013383228390E080E00F90DF91CF91F7
:10126000089580913502E82FF0E0EA5CFD4F998106
:1012700090838F5F809335028093570281E090E0E6
:10128000ECCF61E0CE0101960E942F07F7CF60E01E
:101290008BE00E94100461E08CE00C9410048F92AB
:1012A0009F92AF92BF92CF92DF92EF92FF92CF9335
:1012B000DF93EC010E94C6046B017C018D818111DA
:1012C0002BC0CE010E94B0064B015C0182E797E083
:1012D0000E94B006861A970AA80AB90A8CE38816F3
:1012E0009104A104B104C4F0C0926E07D0926F07BC
:1012F000E0927007F092710786E0FE01A2E7B7E086
:1013000001900D928A95E1F78C8180FF31C00E9497
:10131000470981E080937807809178078823E9F076
:1013200080916E0790916F07A0917007B09171073F
:10133000C81AD90AEA0AFB0A80EDC81687E0D8065F
:10134000E104F10450F060E08CE00E94100460E0E1
:101350008BE00E94100410927807DF91CF91FF90EC
:10136000EF90DF90CF90BF90AF909F908F900895B7
:1013700060E08CE00E94100461E08BE00E941004A9
:10138000C8CFDC01ED91FD918081ED91FD919081BF
:10139000ED91FD916C9163708E2309F064609F2341
:1013A00009F06860EEEDF9E0E60FF11D65956595D1
:1013B0006D936D917D918D919D91099423C01AC07B
:1013C00012C016C010C01EC009C014C013C006C091
:1013D00019C009C00DC007C00DC014C062507040D4
:1013E000804090400BC0615070408040904006C0EB
:1013F0006E5F01C06F5F7F4F8F4F9F4F9E938E93A5
:101400007E936E93089580912307909124070C9406
:10141000C10980912507909126070C94C109682F76
:1014200085EF92E00C9418098091050391E0909368
:10143000340280935602109235021092570280E0D7
:101440000C940F0ACF93DF93EC0181E00E94AC076C
:10145000188283E090E00197F1F7DF91CF91089532
:101460000F931F93CF93DF938C01EB010E94140A1B
:1014700081E20E940F0A80E00E940F0A8091080317
:1014800090E0081719070CF4C8010E940F0A82E2C5
:101490000E940F0A80E00E940F0A8091060390E0EC
:1014A000C817D9070CF4CE010E940F0A86E197E015
:1014B000DF91CF911F910F910C94220A0E940F0A85
:1014C000809116078F5F80931607803190F086E138
:1014D00097E00E94220A8091050391E090933402E4
:1014E00080935602109235021092570280E40C94B9
:1014F0000F0A0895CF93DF936091060370E0809107
:10150000080390E00E94300A8091050391E09093D7
:10151000340280935602109235021092570280E4F2
:101520000E940F0ACBE0D3E089910E945E0A87E017
:10153000CB30D807C9F786E197E0DF91CF910C94C3
:10154000220A0F931F930130110559F10230110542
:1015500009F44AC0012B11F5FC01E15FFB4F01903A
:10156000F081E02D2E0F3F2F311DB3E0220F331FEE
:10157000BA95E1F7FC01EF5EFB4F0190F081E02DA1
:1015800013E0F595E7951A95E1F7E20FF31FE40FE5
:10159000F11DE80FF91F8285682B62871F910F915B
:1015A0000895FC01E15FFB4F0190F081E02D2E0FCB
:1015B0003F2F311DE3E0220F331FEA95E1F7FC01D5
:1015C000EF5EFB4F0190F081E02DA3E0F595E795EC
:1015D000AA95E1F7E20FF31FE40FF11DE80FF91FE1
:1015E000609582856823D9CFFC01E15FFB4F0190B4
:1015F000F081E02D2E0F3F2F311D53E0220F331FBE
:101600005A95E1F7FC01EF5EFB4F0190F081E02D70
:1016100073E0F595E7957A95E1F7820F931FE80F50
:10162000F91FE40FF11DB9CF2F923F924F925F92B5
:101630006F927F928F929F92AF92BF92CF92DF92E2
:10164000EF92FF920F931F93CF93DF93CDB7DEB747
:1016500067970FB6F894DEBF0FBECDBF9F8B8E8B02
:10166000F62EFC01E25FFB4F208130E03396845F71
:101670009B4F6C014DE064133DC08E899F89815F53
:101680009B4FDC011D921C9281E0F12C4E895F89F9
:10169000455F5B4FDA016C916623D1F14E895F891A
:1016A000435F5B4FDA019C910E891F89015F1B4FDD
:1016B000D8014D915C91B6E09B9F400D511D1124C6
:1016C000AE89BF8917969C919417150609F004F509
:1016D00080819181D8011D921C92820F931F91836A
:1016E00080834E895F894D5E5B4F80818770DA0110
:1016F0008C9310C0BAE080E06B13C8CF80819181D9
:10170000820F931F9183808381E0D6018C93BDCF9C
:101710008111E7CF80819181280F391FEE89FF89E0
:10172000868190E00196821793070CF4F12CD60184
:101730008C91882359F1662349F1B0E2FB1226C04F
:10174000EE89FF89E15FFB4F80819181892B09F050
:1017500048C0F601108281E090E067960FB6F894D9
:10176000DEBF0FBECDBFDF91CF911F910F91FF90D4
:10177000EF90DF90CF90BF90AF909F908F907F9031
:101780006F905F904F903F902F900895F7FE50C05C
:10179000EE89FF89EC5EFB4F2FEB2F15C0F08081A7
:1017A000813D39F431E9F31241C0F082E0ECFE2EC4
:1017B00018C0803D39F441E8F41238C0F082F5E9F0
:1017C000FF2E0FC0823E29F450E8F5122FC0F082A0
:1017D000C2CF803859F564E9F61228C0F082ADE234
:1017E000FA2E8E899F89815F9B4F9A838983DC01C2
:1017F0002D913C91EE89FF89E35FFB4FFB87EA87E0
:101800008081A90166E0869F400D511D1124CA0107
:1018100057FD07C0AE89BF8917964C914217130632
:101820005CF4E981FA819183808395CFF082D9CFEE
:10183000FF2009F490CFD5CFF0EEFF0DF9878F2F61
:1018400090E0AC014150510925E0249FB001259F53
:10185000700D11247F876E8760557109798B688BB5
:101860008F96289FD001299FB00D1124BD87AC878A
:10187000AB5EB109BB8BAA8BD12CC12CEA85FB8551
:10188000FC83EB832E893F892D5E3B4F3E832D8366
:101890004E895F894A5E5B4F58874F8355E060E011
:1018A000C516B9F06985EA89FB89603668F080E879
:1018B0008F0DEC85FD85803138F07985E889F989CF
:1018C000703A10F0EE85FF85E859FF4FEC0DFD1DD5
:1018D0006491EE89FF89E65FFB4F808181116095FD
:1018E000AB81BC819C91913009F053C0EE89FF8996
:1018F000E15FFB4F8081918197FD35C0EE89FF89C3
:101900002781281719067CF1AD81BE818C91EF816A
:10191000F885008110E020E040E0882301F1A62E48
:10192000B12CB50101C0660F8A95EAF720E040E0CE
:101930008E899F890E94A10AAF81B8850C9110E021
:10194000ED81FE81808128E030E0281B3109B5015E
:1019500002C0759567952A95E2F720E041E08E89EF
:101960009F890E94A10AEA85FB858081A981BA81AD
:101970002D913C911197820F932F911D8D939C93E4
:10198000BFEFCB1ADB0AE6E0CE16D10409F086CF12
:10199000E2CE30E020E080E0812C912C5401E62F53
:1019A000F0E0AF01022E02C0559547950A94E2F788
:1019B00041705527692F680F8617F1F0412C512C83
:1019C00032014394082E04C0440C551C661C771C3D
:1019D0000A94D2F74115510531F084289528A6289C
:1019E000B7288F5FE9CF409450946094709484201E
:1019F0009520A620B720F5CF2F5F3F4F2830310527
:101A000081F6312C4E895F89415F5B4F5D8B4C8B3A
:101A1000AC89BD898D919C91EB81FC81208132162E
:101A200008F0A1CF830D911D97FD47C0AE89BF89F6
:101A300017962C91281719060CF43FC0212CE12C85
:101A4000ED81FE812081AB81BC818C912816B0F59F
:101A5000B8E02B9EC00111242401350104C0769406
:101A60006794579447948A95D2F7EF81F88500815F
:101A700010E0211109C0232D422D642D8E899F89EC
:101A80000E94A10A2394DCCF6E2D70E088E090E0E4
:101A9000821B910902C0759567958A95E2F7842D9E
:101AA00001C0880F2A95EAF7682B232D422D8E89D5
:101AB0009F890E94A10AE42CE5CFE12CAD81BE8173
:101AC0008C918823B9F0EF81F885008110E06E2DAC
:101AD00070E028E030E0281B310902C07595679559
:101AE0002A95E2F7232DAB81BC814C918E899F8989
:101AF0000E94A10A33948CCF089590E080E008956D
:101B00002F923F924F925F926F927F928F929F920D
:101B1000AF92BF92CF92DF92EF92FF920F931F93FB
:101B2000CF93DF935C011B016A01F12CE12CD501FD
:101B300014968D919C9186010E191F0980179107AB
:101B400008F48C01F501D0810E946F042B013C0147
:101B500080912E02811172C0C02F013208F0C0E2C4
:101B6000F1E0F0932E0221E0C601801B910BE816F4
:101B7000F90608F420E020932D028FEF80932C02C9
:101B800010922B028C0F80932A02A1E0A0930902ED
:101B900080910902DD0FD82BD093090280910802B1
:101BA000813009F090C0109208020E946F042B014E
:101BB0003C01809109028093BB008091300290919A
:101BC0003102A0913202B0913302892B8A2B8B2BE8
:101BD000A1F00E946F0420913002309131024091B7
:101BE0003202509133026419750986099709261744
:101BF00037074807590708F442C08091BC0083FDAD
:101C0000D8CFB5ECB093BC000E946F042B013C010F
:101C100080912E02813009F45AC080912B028C17DA
:101C200010F4C0912B02AAE0B2E0E8EEF1E080E00F
:101C30008C1751F19D9191938F5FFACF8091300273
:101C400090913102A0913202B0913302892B8A2BFC
:101C50008B2B09F47DCF0E946F04209130023091CC
:101C6000310240913202509133026419750986099C
:101C70009709261737074807590708F069CF809159
:101C80002F020E948B07C0E01092E701C093E6018B
:101C9000C017110609F057C041018E0C9F1CE401CA
:101CA000CE01881999098017910798F5D5011196E9
:101CB0008D919C91DC01ED91FC910284F385E02DE6
:101CC00009958993EDCFE5EEE093BC009DCF80911F
:101CD000300290913102A0913202B0913302892BEF
:101CE0008A2B8B2B09F494CF0E946F042091300231
:101CF00030913102409132025091330264197509DA
:101D000086099709261737074807590708F080CF33
:101D1000B6CFE00EF11EEC14FD0408F408CF81E00C
:101D2000DF91CF911F910F91FF90EF90DF90CF90B7
:101D3000BF90AF909F908F907F906F905F904F90EB
:101D40003F902F90089580E0EBCF1F93CF93DF93C8
:101D5000DC011496ED91FC91E417F50710F490E086
:101D60001FC0122FEA01FC0181819281208131E0A4
:101D7000309334022093560210923502109257028B
:101D8000DC01ED91FC910280F381E02D0995C817EB
:101D9000D90729F7812F0E94AC0791E08111DFCF8D
:101DA000892FDF91CF911F910895EF92FF920F93AA
:101DB0001F93CF93DF9300D000D000D01F92CDB7F8
:101DC000DEB78C011982DB01ED90FC9020E041E050
:101DD00050E0BE016F5F7F4FC7010E94A50E8823B0
:101DE00041F047E050E0BE016F5F7F4FC7010E94A6
:101DF000800DE981EF77FA81FB805D814E814F771D
:101E00008F81282F30E094E0359527959A95E1F75A
:101E1000922F990F990F291B220F280FD8012C936D
:101E2000842F90E024E0959587952A95E1F7982FE7
:101E3000990F990F891B880F840F11968C93119716
:101E4000652F70E034E0759567953A95E1F7862F38
:101E5000880F880F681B660F650F12966C93129798
:101E60004F2D50E064E0559547956A95E1F7842F32
:101E7000880F880F481B440F4F0D13964C931397F0
:101E80002F2F30E074E0359527957A95E1F7822F72
:101E9000880F880F281B220F2F0F14962C9314974E
:101EA0008E2F90E0F4E095958795FA95E1F7982FBD
:101EB000990F990F891B880F8E0F15968C93C80167
:101EC00027960FB6F894DEBF0FBECDBFDF91CF913E
:101ED0001F910F91FF90EF900895CF92DF92EF92B4
:101EE000FF920F931F93CF93DF9300D0CDB7DEB750
:101EF00021E129831A82FC010081118120E041E067
:101F000050E0BE016F5F7F4FC8010E94A50E88237D
:101F100041F042E050E0BE016F5F7F4FC8010E9478
:101F2000800D6A8170E086E0759567958A95E1F786
:101F3000072E000C880B990B0E94221E20E030E037
:101F400040E85EE30E94811E6B017C01698170E0C4
:101F500090E080E00E94201E9B01AC01C701B60109
:101F60000E9413200F900F90DF91CF911F910F913E
:101F7000FF90EF90DF90CF900895CF92DF92EF9295
:101F8000FF920F931F93CF93DF93CDB7DEB72B97BD
:101F90000FB6F894DEBF0FBECDBF7C018B01CE0122
:101FA00001966C0188E0F60111928A95E9F7FB0130
:101FB00035812AE0832F622F0E94901F982F880F6F
:101FC000890F880F830F8A833481832F0E94901F8B
:101FD000982F880F890F880F830F8B833381832F6E
:101FE0000E94901F982F880F890F880F830F8C8372
:101FF00080814281618190E00E948406069667E0BC
:1020000070E00E949C1F811101C087E08D83F80160
:1020100032812AE0832F622F0E94901F982F880F11
:10202000890F880F830F8E833181832F0E94901F29
:10203000982F880F890F880F830F8F833081832F0C
:102040000E94901F982F880F890F880F830F888711
:1020500021E048E050E0B601F701808191810E94C3
:10206000A50E1FE01B8721E041E050E0BE01655F47
:102070007F4FF701808191810E94A50E41E050E0E1
:10208000BE01675F7F4FF701808191810E94800DC3
:10209000898519878F778A8721E042E050E0BE0169
:1020A000675F7F4FF701808191810E94A50E2B967B
:1020B0000FB6F894DEBF0FBECDBFDF91CF911F9159
:1020C0000F91FF90EF90DF90CF9008950F931F93A3
:1020D000CF93DF9300D000D000D0CDB7DEB7FC01A6
:1020E00004E417E0D80152968C91529750969C9137
:1020F00050971E962C911E973281418150815983B1
:102100004A833B832C839D838E83BE016F5F7F4F09
:102110008D919C910E94BD0FF80110861782269622
:102120000FB6F894DEBF0FBECDBFDF91CF911F91E8
:102130000F910895CF93DF930E9474070E94140AB1
:10214000C2E5D4E0FE0184910E945E0A2196F4E08B
:10215000C136DF07B9F786E197E00E94220A0E94A4
:10216000140A8AED0E945E0A82E10E945E0A88EAF1
:102170000E945E0A8FE30E945E0A86E197E00E9459
:10218000220A109211071092100710921307109252
:102190001207109214076091060370E08091080303
:1021A00090E00E94300A0E94140A81E80E940F0AFF
:1021B00086EE0E940F0A86E197E00E94220A409173
:1021C000090350910A0370E060E08BE093E00E9405
:1021D000DD21809112078770809314070E94C60446
:1021E0006093460770934707809348079093490789
:1021F000DF91CF9108954091090350910A0370E057
:1022000060E08BE093E00E94DD21809112078770EF
:10221000809314070895EF92FF920F931F93CF932B
:10222000DF9300D0CDB7DEB7182F092FCB0141FFC8
:102230002CC06AE070E00E94B01F7F936F9384E827
:1022400091E09F938F93CE0101967C019F938F9392
:102250000E941B22FF92EF928AE391E09F938F935B
:102260001F9283E08F930F931F930E94EB210FB671
:10227000F894DEBF0FBECDBF0F900F90DF91CF91CE
:102280001F910F91FF90EF9008959F936F938EE3AE
:1022900091E09F938F931F9283E08F930F931F93EF
:1022A000E4CFFB0101900020E9F73197AF01461B15
:1022B000570BDC01ED91FC910280F381E02D099434
:1022C0008F929F92AF92BF920F931F93CF93DF9302
:1022D000CDB7DEB7A1970FB6F894DEBF0FBECDBF66
:1022E00019A2423008F44AE08E010F5D1F4F842E80
:1022F000912CB12CA12CA50194010E94C41FE62FA2
:10230000B901CA01EA3004F5E05DD801EE938D0110
:10231000232B242B252B79F790E080E0109729F0D0
:10232000BD0181E093E00E945111A1960FB6F8948F
:10233000DEBF0FBECDBFDF91CF911F910F91BF9038
:10234000AF909F908F900895E95CDFCF8F929F921E
:10235000AF92BF92CF92DF92EF92FF920F931F93B3
:10236000CF93DF93CDB7DEB762970FB6F894DEBF99
:102370000FBECDBF7C01FC01608171816E01F0E177
:10238000CF0ED11CFC014285C6010E940B11F70142
:10239000628173818E01035F1F4F4385C8010E94D4
:1023A0000B11F701648175815E01FAE0AF0EB11C7B
:1023B000F7014485C5010E940B11BF92AF921F9394
:1023C0000F93DF92CF9283E491E09F938F931F92BC
:1023D00089E08F93CE0101965C019F938F930E94B9
:1023E000EB210E94FB1082E0D82ED0920E0700E174
:1023F00000930F0780E190E09093110780931007FE
:10240000109213071092120710921407B50181E081
:1024100093E00E94511111E010930E0788E0809321
:102420000F078CE090E090931107809310078CE1E8
:1024300090E0909313078093120784E08093140731
:102440006CE471E081E093E00E94511120E230E001
:102450004AE050E060E270E088E090E00E94AF0265
:1024600020E230E048E750E060E270E080E590E094
:102470000E94AF022FE330E048E050E060E270E0FD
:1024800088E090E00E94AF022FE330E048E750E0A0
:1024900060E270E088E790E00E94AF02D0920E0701
:1024A00000930F0784E190E0909311078093100749
:1024B00089E290E09093130780931207109314071A
:1024C0000FB6F894DEBF0FBECDBF20E030E0A9010B
:1024D000F70166817781808591850E94AE2087FD16
:1024E00006C063E671E081E093E00E945111F701BC
:1024F000C680D780E084F184A7019601C701B601A8
:102500000E94B32065E671E081111BC046015701AE
:10251000E894B7F82FEF3FEF4FE75FE7C501B4014D
:102520000E94B3208111D1C02FEF3FEF4FE75FE74B
:10253000C501B4010E941B1E18160CF0C6C069E646
:1025400071E081E093E00E94511141E06AE270E0A5
:1025500081E690E00E94770241E066E270E081E669
:1025600090E00E94770241E068E270E083E690E04C
:102570000E94770241E068E270E08FE590E00E94FF
:10258000770241E06AE270E082E690E00E94770222
:1025900041E06AE270E080E690E00E94770241E06C
:1025A00066E270E082E690E00E94770241E066E237
:1025B00070E080E690E00E94770241E069E270E01E
:1025C00083E690E00E94770241E069E270E08FE5E7
:1025D00090E00E94770241E067E270E083E690E0DD
:1025E0000E94770241E067E270E08FE590E00E9490
:1025F000770241E069E270E083E690E00E947702B2
:1026000041E069E270E08FE590E00E94770241E0EE
:1026100067E270E083E690E00E94770241E067E2C3
:1026200070E08FE590E00E94770241E06AE270E09E
:1026300082E690E00E94770241E06AE270E080E684
:1026400090E00E94770241E066E270E082E690E06E
:102650000E94770241E066E270E080E690E00E942E
:10266000770284E690E0909311078093100789E247
:1026700090E0909313078093120781E080931407F2
:1026800061E771E081E093E00E9451112FE330E0B7
:1026900048E750E06FE370E088E090E00E94AF020E
:1026A0000E947A0A62960FB6F894DEBF0FBECDBFC5
:1026B000DF91CF911F910F91FF90EF90DF90CF901E
:1026C000BF90AF909F908F9008952FEF3FEF4FE70F
:1026D0005FE4C701B6010E94AE2018161CF46DE637
:1026E00071E02FCF2FEF3FEF4FE75FECC701B6014F
:1026F0000E941B1E87FDF3CF20E030E0A901C70137
:10270000B6010E941B1E87FF09C06DE281E093E0C5
:102710000E94140BF7FAF094F7F8F0942AE037EDE2
:1027200043EA5BE3C701B6010E9413204B015C0141
:102730000E947F206B017C010E94201E9B01AC0146
:10274000C501B4010E9412204B015C014AE0C7019F
:10275000B6010E9460116EE281E093E00E94140BCA
:1027600020E030E040E251E4C501B4010E94811E46
:102770004B015C010E947F206B01F12CE12C4AE0AF
:10278000C701B6010E946011C701B6010E94201E58
:102790009B01AC01C501B4010E94122020E030E091
:1027A00040E251E40E94811E0E947F2090E080E080
:1027B0004AE00E946011C9CE5F926F927F928F9221
:1027C0009F92AF92BF92CF92DF92EF92FF920F93C0
:1027D0001F93CF93DF93CDB7DEB764970FB6F8940E
:1027E000DEBF0FBECDBF0E94C604AB01BC0180910D
:1027F000DE019091DF01A091E001B091E1018A0139
:102800009B01081B190B2A0B3B0BD901C8018A3FFE
:102810009105A105B10580F08091DD0190E0019660
:10282000837099278093DD014093DE015093DF018F
:102830006093E0017093E10163E771E0CE010196DE
:102840000E94E4210E94FB1082E080930E0780E149
:1028500080930F0788E090E0909311078093100712
:10286000109213071092120710921407BE016F5FA7
:102870007F4F81E093E00E945111F12C8091DD01A6
:10288000F81640F46BE871E081E093E00E9451118A
:10289000F394F4CF109211071092100710921307BF
:1028A000109212071092140798E2E92EF12C28E0FA
:1028B000622E712C809108038E151F0444F197013C
:1028C00026553C4F4901512C84E0C82ED12CF401EF
:1028D000A590B490209114078091060390E02111F7
:1028E00035C08C159D054CF010E000E02E2D4C2DD0
:1028F0006A2D81E093E00E94A10A3FEFC31AD30A38
:1029000080E2880E911C98E0C916D10401F70FEF00
:10291000E01AF00A18E4E116F10461F60E947A0A5E
:1029200064960FB6F894DEBF0FBECDBFDF91CF9196
:102930001F910F91FF90EF90DF90CF90BF90AF90DD
:102940009F908F907F906F905F9008958C159D055C
:10295000CCF0652D70E0C301821B910902C0759512
:1029600067958A95E2F7C501992701C0880F2A95D6
:10297000EAF7682B10E000E02E2D4C2D81E093E06B
:102980000E94A10A5A2CB9CFEF92FF920F931F9386
:10299000CF93DF93CDB7DEB72A970FB6F894DEBF9B
:1029A0000FBECDBF2FE831E097FD02C023E631E036
:1029B0009F938F933F932F9382E891E09F938F9300
:1029C0001F928AE08F93CE0101967C019F938F9393
:1029D0000E94EB210E94FB1002E000930E0710E121
:1029E00010930F0784E190E09093110780931007F4
:1029F00010921307109212071092140763EC73E001
:102A000081E093E00E94D30483E080930E0788E185
:102A100080930F0785E090E0909311078093100753
:102A200088E290E0909313078093120710921407A6
:102A3000B70181E093E00E94511100930E071093BB
:102A40000F078CE590E0909311078093100780E3C7
:102A500090E090931307809312071092140767E891
:102A600071E081E093E00E9451110E947A0A0FB652
:102A7000F894DEBF0FBECDBF2A960FB6F894DEBF26
:102A80000FBECDBFDF91CF911F910F91FF90EF90BF
:102A9000089585ED8093BC008091300290913102C1
:102AA000A0913202B09133020796A11DB11D23E01F
:102AB000B695A795979587952A95D1F72091BC0053
:102AC00024FD03C010922E020895409130025091CF
:102AD00031026091320270913302452B462B472B15
:102AE00069F30097A105B10541F02AE22A95F1F7B3
:102AF00000C00197A109B109E1CF80912F020C9488
:102B00008B071F920F920FB60F9211242F933F93B2
:102B10008F939F93AF93BF938091D5019091D601EE
:102B2000A091D701B091D8013091D40123E0230FB7
:102B30002D3758F50196A11DB11D2093D401809326
:102B4000D5019093D601A093D701B093D80180917D
:102B5000D9019091DA01A091DB01B091DC010196DD
:102B6000A11DB11D8093D9019093DA01A093DB01DF
:102B7000B093DC01BF91AF919F918F913F912F91C5
:102B80000F900FBE0F901F90189526E8230F029606
:102B9000A11DB11DD2CF1F920F920FB60F9211241B
:102BA0002F933F934F935F936F937F938F939F9355
:102BB000AF93BF93EF93FF93E0910201F091030174
:102BC0000995FF91EF91BF91AF919F918F917F9167
:102BD0006F915F914F913F912F910F900FBE0F908A
:102BE0001F9018951F920F920FB60F9211242F93DA
:102BF0003F934F935F936F937F938F939F93AF9385
:102C0000BF93EF93FF93E0910001F09101010995CB
:102C1000FF91EF91BF91AF919F918F917F916F91B4
:102C20005F914F913F912F910F900FBE0F901F908A
:102C300018951F920F920FB60F9211242F933F9366
:102C40004F935F936F937F938F939F93AF93BF93B4
:102C5000EF93FF9388E592E00E947505FF91EF9155
:102C6000BF91AF919F918F917F916F915F914F91A4
:102C70003F912F910F900FBE0F901F9018951F92AC
:102C80000F920FB60F9211242F938F939F93EF9370
:102C9000FF93E0916802F09169028081E0916E02F9
:102CA000F0916F0282FD1BC09081809171028F5F55
:102CB0008F7320917202821741F0E0917102F0E06F
:102CC000E85AFD4F958F80937102FF91EF919F918C
:102CD0008F912F910F900FBE0F901F9018958081AC
:102CE000F4CF1F920F920FB60F9211242F933F93A0
:102CF0004F935F936F937F938F939F93AF93BF9304
:102D0000EF93FF938091B900887F803609F44AC021
:102D1000F0F5883209F4A7C018F5803109F49BC09A
:102D2000B8F4882309F4F9C0883009F494C0FF91FD
:102D3000EF91BF91AF919F918F917F916F915F9133
:102D40004F913F912F910F900FBE0F901F901895AC
:102D5000883109F488C0803251F780932C0214C066
:102D6000803409F49DC040F48033B9F38833F9F618
:102D700080932C0285ECB0C0803509F485C088357D
:102D800009F496C0883499F60E944915D0CF883945
:102D900009F48CC038F5883729F050F4883611F0E2
:102DA000803729F683E080932E021092D30157C01A
:102DB000883809F47BC0803919F0803809F0B7CF22
:102DC0008091D301803208F071C0E091D30181E09D
:102DD0008E0F8093D3018091BB00F0E0ED54FE4F45
:102DE00080833DC0803B39F0E0F4803A09F479C03B
:102DF000883A09F09CCF84E080932E021092B201B1
:102E00001092B101E091E401F091E5010995809102
:102E1000B10181110FC081E08093B1011092910145
:102E200009C0803C09F4A6CF883C09F4A3CF883BB5
:102E300009F07DCFE091B20181E08E0F8093B20165
:102E4000F0E0EF56FE4F80818093BB009091B2017D
:102E50008091B10129C0809109028093BB0085EC6B
:102E60008093BC0064CF90912B0280912A02981726
:102E700058F5E0912B0281E08E0F80932B02F0E059
:102E8000E65FFD4F8081E9CFE0912B0281E08E0F5C
:102E900080932B028091BB00F0E0E65FFD4F8083C2
:102EA00090912B0280912A029817C8F285E8D8CF1A
:102EB000E0912B0281E08E0F80932B028091BB006A
:102EC000F0E0E65FFD4F808380912D0281115CCFA1
:102ED00081E08093080284EA8093BC0010922E0265
:102EE00026CF85EC8093BC0010922E028091D301F6
:102EF000803230F4E091D301F0E0ED54FE4F1082C7
:102F00006091D30170E0E091E201F091E30183EB85
:102F100091E009951092D3010ACF10922C0234CF80
:102F2000CF93DF9310925B0210925A0288EE93E0E7
:102F3000A0E0B0E080935C0290935D02A0935E02FB
:102F4000B0935F022EE031E0309359022093580293
:102F500025EC30E0309365022093640224EC30E0ED
:102F6000309367022093660220EC30E030936902D0
:102F70002093680221EC30E030936B0220936A02C8
:102F800022EC30E030936D0220936C0226EC30E0AE
:102F900030936F0220936E021092710210927202AF
:102FA00010927302109274021092F8021092F702BB
:102FB0008093F9029093FA02A093FB02B093FC0273
:102FC00080E291E09093F6028093F5021092040360
:102FD0001092030382E391E0909302038093010334
:102FE0008CE38093050387E0809306038FE380934F
:102FF00007038FE78093080380E094E090930A032F
:103000008093090310920B0710920C0710920D0782
:10301000C1E0C0930E0788E080930F07109211075C
:1030200010921007109213071092120710921407B3
:103030001092160782E080931707109222071092D1
:103040007A071092790710927B0710927C071092F2
:103050007D0710927E0710927F07109280071092D2
:103060006107109263071092620710926507109231
:103070006407109266071092670710926807109213
:10308000690710926A0710926B0710926C071092F2
:103090006D0710926E0710926F07109270071092D2
:1030A00071074FEF5FEFBA0182E797E00E940406D5
:1030B0001092780789E797E090934507809344073B
:1030C000109246071092470710924807109249073E
:1030D000C0934A0710924C0710924B0710924D076D
:1030E00010924E0710924F071092500710925107FE
:1030F00010925307109252071092550710925407DE
:1031000010925707109256071092580710925907BD
:1031100010925A0710925B0710925C0710925D079D
:1031200010925E0710925F071092600762E083E0E2
:103130000E943E0462E082E00E943E04E2E8F4E085
:10314000E491F0E0EE0FFF1FEB58FB4FA591B49117
:10315000B0932807A0932707E4E6F4E04491409356
:103160002B07E1E8F4E0E491F0E0EE0FFF1FEB58ED
:10317000FB4FC591D491D0932A07C0932907E3E66A
:10318000F4E0E491E0932C0710922E0710922F07A1
:1031900010923007109231072BE33FE1C9010197EC
:1031A000F1F79C91842F892391E009F490E08881C4
:1031B000E82309F0926027E237E090932D073093DF
:1031C00026072093250789E09AE0909303018093D6
:1031D000020180916900837F846080936900E99A8D
:1031E00081E080933207309324072093230783E004
:1031F0009AE09093010180930001809169008C7F97
:10320000816080936900E89A82E08093320710928F
:103210003307109234071092350710923607109238
:103220003707109238071092390710923A07109218
:103230003C0710923B0710923D0784E497E090937F
:103240003F0780933E0781E697E090934107809384
:10325000400789E797E09093430780934207DF9107
:10326000CF910895CF93DF93CDB7DEB763970FB6B5
:10327000F894DEBF0FBECDBF789484B5826084BD64
:1032800084B5816084BD85B5826085BD85B581606A
:1032900085BD80916E00816080936E0010928100E8
:1032A00080918100826080938100809181008160A3
:1032B0008093810080918000816080938000809164
:1032C000B10084608093B1008091B00081608093F0
:1032D000B00080917A00846080937A0080917A00B7
:1032E000826080937A0080917A00816080937A0076
:1032F00080917A00806880937A001092C100E091FA
:103300006802F091690282E08083E0916402F091AA
:1033100065021082E0916602F09167028FEC808373
:1033200010927002E0916C02F0916D0286E0808351
:10333000E0916A02F0916B02808180618083E0916C
:103340006A02F0916B02808188608083E0916A025A
:10335000F0916B02808180688083E0916A02F09135
:103360006B0280818F7D808362E086E00E943E0454
:1033700062E085E00E943E040E9474078091790714
:1033800090917A07009711F00E94542186E090E016
:103390000E94B8208C0188E6F801808385EF92E0D6
:1033A00092838183138280E290E0958384831093DB
:1033B0007A07009379070E94740781E0F8018383FC
:1033C000C8010E949C088111DFC063E973E088E5B1
:1033D00092E00E94D3046DE871E088E592E00E94DB
:1033E00051110E949A1062E084E00E943E04809194
:1033F0003207823008F0D3C0F89487E297E00E9449
:10340000C10980912E0790912F07A0913007B091AC
:10341000310778948093330790933407A09335074E
:10342000B09336070E94C60460933707709338073D
:103430008093390790933A0761E08CE00E943E0444
:1034400061E08BE00E943E0460E08CE00E9410048A
:1034500060E08BE00E94100464E170E080E090E0A6
:103460000E94940464E0462E512C612C712CAA24F5
:10347000A394B12C80913D07882309F449C0809121
:103480003207823008F08DC0F89487E297E00E94FE
:10349000C10960912E0770912F078091300790919C
:1034A00031077894A30192010E94E61F69017A0115
:1034B0008091330790913407A0913507B09136077A
:1034C000C816D906EA06FB0619F188E89FEFF8E866
:1034D000CF16FFEFDF06EF06FF0664F0322F2D2D2B
:1034E00049E7C416D104E104F10414F038E720E000
:1034F000832F922F90933C0780933B070E94C41424
:10350000C0923307D0923407E0923507F092360725
:103510000E94C60420916107222309F467C000912C
:1035200066071091670720916807309169076B0162
:103530007C01C01AD10AE20AF30A97018601003D14
:1035400017402105310508F451C060936607709358
:10355000670780936807909369072091640730910B
:10356000650720FD29C0C90197FD019681FD1BC09B
:103570000E94470980916407909165070196909396
:1035800065078093640732C069E777E0CE01019652
:103590000E94D50ECE0101960E94F40622CFF89427
:1035A00030CFF89476CF60E08CE00E94100461E0A8
:1035B0008BE00E941004DECF60E08CE00E941004DB
:1035C00060E08BE00E941004809164079091650791
:1035D000019697FD01969595879520916207309108
:1035E00063078217930734F21092610784E00E9408
:1035F000E703892B09F040C00E94C60400913707F9
:10360000109138072091390730913A07601B710BF0
:10361000820B930B6D3271408105910568F10E9418
:10362000C6046093370770933807809339079093E7
:103630003A0780913D078111B9C010923C07109262
:103640003B07F89410922E0710922F071092300724
:103650001092310778941092330710923407109229
:1036600035071092360781E080933D0780913B0734
:1036700090913C070E94C41480914A07882309F462
:1036800042C20E94C604009146071091470720914C
:10369000480730914907601B710B820B930B613611
:1036A0007A4E81059105B8F010924A078091050382
:1036B00091E090933402809356021092350210925A
:1036C000570280E80E940F0A8EEA0E940F0A86E1E4
:1036D00097E00E94220A80914A07882309F413C2C6
:1036E00080914B0790914C07009709F4B3C1019763
:1036F000039708F080C10E94C604009158071091FA
:10370000590720915A0730915B07601B710B820BA0
:10371000930B693B7B408105910560F06091440704
:1037200070914507CE0101960E94D50ECE010196FB
:103730000E94661080914B0790914C07892B09F4E9
:103740005AC1009144071091450786E00E94E703A3
:1037500021E0009709F020E0F8012683892B71F41D
:1037600010924C0710924B070E94C60460935807B2
:103770007093590780935A0790935B0780914B078A
:1037800090914C078230910509F411C28330910564
:1037900009F473C0019709F0CBC022E0E22EF12CAE
:1037A00038E1C32ED12C02E517E06EC0F0903B0744
:1037B0000091420710914307B801CE010E960E9476
:1037C000D50ECE010E960E94F406882319F1AF2D76
:1037D000FF0CBB0B2CE330E00E9405206B017C0149
:1037E000CE010E960E94B006AB01BC014C0D5D1DD2
:1037F0006E1D7F1DCE0101960E940406CE0101962A
:103800000E94F406882331F0BE016F5F7F4FC8012C
:103810000E94BD0F10923D0780913B0790913C079D
:10382000892BB9F00E94DC130091400710914107E9
:1038300080913B0790913C07181619067CF060E0D8
:103840008CE00E94100460E08BE00E941004F801FC
:10385000108210923C0710923B070ECFF801928322
:1038600081831482138281E080830E94C604F80160
:103870006583768387839087ECCFF12CE12C4CE332
:10388000C42ED12C06E517E08090440790904507A0
:1038900085E00E94E70321E0009709F020E0F401B1
:1038A0002783892B09F0C5C080915D0790915E0741
:1038B000A0915F07B0916007892B8A2B8B2B51F465
:1038C0000E94C60460935D0770935E0780935F0754
:1038D000909360070E94C60420915D0730915E07B7
:1038E00040915F0750916007621B730B840B950B2F
:1038F00020915C07683E73408105910508F060C126
:10390000211116C0F801808191810196B6010E94B3
:10391000B01F9183808381E080935C070E94C6047E
:10392000609358077093590780935A0790935B07E9
:103930000E94C60400914D0710914E0720914F0739
:1039400030915007601B710B820B930B6D327140ED
:103950008105910580F08091510791E0892780933E
:1039600051070E94C60460934D0770934E078093E1
:103970004F079093500780915207909153079A8375
:10398000898380915407909155079C838B83809104
:103990005607909157079E838D838091440790919D
:1039A00045070E946D0F6F83788789879A8780917A
:1039B0004B0790914C078130910509F045C020914B
:1039C0005107222309F440C022E02B878230910561
:1039D000E9F5209151072223C9F122E02C870397B2
:1039E000B9F580915107882399F182E08D87CE0146
:1039F00001960E94A61180913D07882309F49AC080
:103A000080913B0790913C070E94C41462E370E0F0
:103A100080E090E00E94940480E090E0892B09F41B
:103A200029CD0E946105882309F424CD0E9400005D
:103A300021CD10925D0710925E0710925F071092E1
:103A4000600710925C0774CF20E0BFCF20E0C6CFA4
:103A500080E0CCCF85E00E94E70321E0009709F0E9
:103A600020E020938007892B31F660914407709104
:103A70004507CE0101960E94D50ECE0101960E9407
:103A8000F406882361F1B0924C07A0924B078C8119
:103A900090E090935307809352078D8190E090932C
:103AA0005507809354078E8190E090935707809339
:103AB00056070E94C60460934D0770934E0780938B
:103AC0004F0790935007109251070E94C6046093CD
:103AD00058077093590780935A0790935B070E9489
:103AE000C6046093460770934707809348079093F6
:103AF000490780914A0781117ECF81E080934A0770
:103B00000E949A1078CF85E00E94E70321E0009799
:103B100009F020E020938007892B09F386E00E94BA
:103B2000E70321E0009709F020E020937F07892B2D
:103B3000B1F261CF80916107882319F00E94DC13F4
:103B400065CF6091440770914507CE010E960E94A3
:103B5000D50ECE010E960E94F4068823E9F08989DD
:103B600090E09A8389838A8990E09C838B838B89F8
:103B700090E09E838D8380914407909145070E9439
:103B80006D0F6F83788789879A871B861C861D86B1
:103B9000CE0101960E94A61169E777E0CE01019659
:103BA0000E94D50ECE0101960E944F092FCF83E0CF
:103BB000E82EF12C9CE3C92ED12C04E517E064CE4D
:103BC0002111B6CEF0924C07E0924B0710925107AC
:103BD0000E94C60460934D0770934E0780934F0771
:103BE0009093500710925D0710925E0710925F0746
:103BF0001092600781E080935C070E94C604609386
:103C000058077093590780935A0790935B078091E8
:103C10004B0790914C07892B09F08ACE609144079D
:103C200070914507CE0101960E94D50ECE010196F6
:103C30000E9466107DCE0E945D1E08F481E008950A
:103C4000E89409C097FB3EF4909580957095619536
:103C50007F4F8F4F9F4F9923A9F0F92F96E9BB27EC
:103C60009395F695879577956795B795F111F8CF68
:103C7000FAF4BB0F11F460FF1BC06F5F7F4F8F4FD3
:103C80009F4F16C0882311F096E911C0772321F0C9
:103C90009EE8872F762F05C0662371F096E8862F61
:103CA00070E060E02AF09A95660F771F881FDAF7B8
:103CB000880F9695879597F90895990F0008550FE5
:103CC000AA0BE0E8FEEF16161706E807F907C0F0A2
:103CD00012161306E407F50798F0621B730B840BAA
:103CE000950B39F40A2661F0232B242B252B21F484
:103CF00008950A2609F4A140A6958FEF811D811D24
:103D000008950E94941E0C94051F0E94F71E38F01F
:103D10000E94FE1E20F0952311F00C94EE1E0C94D0
:103D2000F41E11240C94391F0E94161F70F3959FE6
:103D3000C1F3950F50E0551F629FF001729FBB27A2
:103D4000F00DB11D639FAA27F00DB11DAA1F649F3E
:103D50006627B00DA11D661F829F2227B00DA11DF1
:103D6000621F739FB00DA11D621F839FA00D611D77
:103D7000221F749F3327A00D611D231F849F600D98
:103D8000211D822F762F6A2F11249F5750409AF0C1
:103D9000F1F088234AF0EE0FFF1FBB1F661F771F4D
:103DA000881F91505040A9F79E3F510580F00C9418
:103DB000EE1E0C94391F5F3FE4F3983ED4F38695D2
:103DC00077956795B795F795E7959F5FC1F7FE2BB8
:103DD000880F911D9695879597F9089597F99F6794
:103DE00080E870E060E008959FEF80EC0895002483
:103DF0000A941616170618060906089500240A9450
:103E000012161306140605060895092E0394000CD5
:103E100011F4882352F0BB0F40F4BF2B11F460FF64
:103E200004C06F5F7F4F8F4F9F4F089557FD90588D
:103E3000440F551F59F05F3F71F04795880F97FB6E
:103E4000991F61F09F3F79F0879508951216130628
:103E50001406551FF2CF4695F1DF08C01616170657
:103E60001806991FF1CF869571056105089408958C
:103E7000E894BB2766277727CB0197F908950E941E
:103E8000811FA59F900DB49F900DA49F800D911D43
:103E9000112408952F923F924F925F926F927F92DA
:103EA0008F929F92AF92BF92CF92DF92EF92FF924A
:103EB0000F931F93CF93DF93CDB7DEB7CA1BDB0BF6
:103EC0000FB6F894DEBF0FBECDBF09942A8839889B
:103ED00048885F846E847D848C849B84AA84B984A2
:103EE000C884DF80EE80FD800C811B81AA81B981AE
:103EF000CE0FD11D0FB6F894DEBF0FBECDBFED01C2
:103F00000895A29FB001B39FC001A39F700D811DB2
:103F10001124911DB29F700D811D1124911D0895D2
:103F2000991B79E004C0991F961708F0961B881F0B
:103F30007A95C9F780950895AA1BBB1B51E107C06C
:103F4000AA1FBB1FA617B70710F0A61BB70B881F29
:103F5000991F5A95A9F780959095BC01CD010895B8
:103F600097FB072E16F4009407D077FD09D00E9426
:103F70009C1F07FC05D03EF4909581959F4F0895B6
:103F8000709561957F4F0895A1E21A2EAA1BBB1B65
:103F9000FD010DC0AA1FBB1FEE1FFF1FA217B30715
:103FA000E407F50720F0A21BB30BE40BF50B661F2B
:103FB000771F881F991F1A9469F7609570958095EF
:103FC00090959B01AC01BD01CF010895052E97FB93
:103FD0001EF400940E94FD1F57FD07D00E94C41FCD
:103FE00007FC03D04EF40C94FD1F5095409530957E
:103FF00021953F4F4F4F5F4F089590958095709555
:1040000061957F4F8F4F9F4F08950E94811FB7FF8B
:104010000895821B930B0895EE0FFF1F0590F491F6
:10402000E02D09945058BB27AA270E942A200C94FF
:10403000051F0E94F71E38F00E94FE1E20F039F482
:104040009F3F19F426F40C94F41E0EF4E095E7FB60
:104050000C94EE1EE92F0E94161F58F3BA17620740
:1040600073078407950720F079F4A6F50C94381FA0
:104070000EF4E0950B2EBA2FA02D0B01B901900183
:104080000C01CA01A0011124FF27591B99F0593FC7
:1040900050F4503E68F11A16F040A22F232F342F0F
:1040A0004427585FF3CF469537952795A795F0405D
:1040B0005395C9F77EF41F16BA0B620B730B840B72
:1040C000BAF09150A1F0FF0FBB1F661F771F881F2A
:1040D000C2F70EC0BA0F621F731F841F48F4879582
:1040E00077956795B795F7959E3F08F0B0CF939574
:1040F000880F08F09927EE0F9795879508950E94ED
:104100001E1F88F09F5798F0B92F9927B751B0F02C
:10411000E1F0660F771F881F991F1AF0BA95C9F74B
:1041200014C0B13091F00E94381FB1E008950C9492
:10413000381F672F782F8827B85F39F0B93FCCF345
:10414000869577956795B395D9F73EF490958095C8
:10415000709561957F4F8F4F9F4F08950E945D1E10
:1041600008F48FEF08950E945D1E880B990B089547
:104170000F931F93CF93DF938230910510F482E069
:1041800090E0E0918307F091840730E020E0B0E018
:10419000A0E0309799F42115310509F44AC0281B95
:1041A000390B24303105D8F58A819B816115710561
:1041B00089F1FB0193838283FE0111C0408151810B
:1041C0000281138148175907E0F04817590799F4FD
:1041D000109761F012960C93129713961C933296D7
:1041E000CF01DF91CF911F910F9108950093830725
:1041F00010938407F4CF2115310551F0421753076E
:1042000038F0A901DB019A01BD01DF01F801C1CF3E
:10421000EF01F9CF9093840780938307CDCFFE0100
:10422000E20FF31F81939193225031093983288340
:10423000D7CF2091810730918207232B41F4209121
:104240000601309107013093820720938107209166
:104250000401309105012115310541F42DB73EB718
:104260004091080150910901241B350BE091810711
:10427000F0918207E217F307A0F42E1B3F0B2817DB
:10428000390778F0AC014E5F5F4F2417350748F0CF
:104290004E0F5F1F50938207409381078193919344
:1042A0009FCFF0E0E0E09CCFCF93DF930097E9F061
:1042B000FC01329713821282A0918307B091840788
:1042C000ED0130E020E01097A1F420813181820FD0
:1042D000931F20918107309182072817390709F031
:1042E00061C0F0938207E0938107DF91CF91089539
:1042F000EA01CE17DF07E8F54A815B819E0141158F
:104300005105B1F7E901FB83EA8349915991C40F43
:10431000D51FEC17FD0761F4808191810296840F0F
:10432000951FE90199838883828193819B838A8386
:10433000F0E0E0E012968D919C9113970097B9F50B
:104340002D913C911197CD010296820F931F2091E0
:104350008107309182072817390739F6309751F5D0
:104360001092840710928307B0938207A09381076D
:10437000BCCFD383C28340815181840F951FC8175E
:10438000D90761F44E5F5F4F88819981480F591FAB
:10439000518340838A819B819383828321153105D8
:1043A00009F0B0CFF0938407E09383079ECFFD011F
:1043B000DC01C0CF13821282D7CFDC0101C06D9324
:1043C00041505040E0F70895FB01DC0101900D924F
:1043D0000020E1F70895AEE0B0E0E1EFF1E20C94E7
:1043E000581F0D891E898F89988D26E02C831A838A
:1043F000098397FF02C080E090E801979E838D8338
:10440000AE01455E5F4F698D7A8DCE0101960E94A7
:104410003E224D815E8157FD0AC02F8138854217AB
:1044200053070CF49A01020F131FF80110822E9605
:10443000E4E00C94741FAEE0B0E0E1E2F2E20C9430
:10444000581F0D891E8986E08C831A8309838FEF9C
:104450009FE79E838D83AE01475E5F4F6F89788DA6
:10446000CE0101960E943E222F813885020F131F34
:10447000F80110822E96E4E00C94741FABE0B0E0DB
:10448000E4E4F2E20C944A1F7C013B018A01FC0146
:1044900017821682838181FFC8C1CE0101965C011B
:1044A000F7019381F30193FD859193FF81913F0182
:1044B000882309F453C1853239F493FD859193FF24
:1044C00081913F01853229F4B70190E00E942E24AA
:1044D000E7CF912C212C312CFFE1F31538F08B32F2
:1044E00011F190F4803209F1833229F137FC3CC09C
:1044F00020ED280F2A3050F536FE20C08AE0989E25
:10450000200D1124922E06C08D3291F0803371F768
:10451000689430F8F30193FD859193FF81913F01F9
:104520008111DACF21C0689431F8689432F8F2CF63
:10453000689433F8EFCF689434F8ECCFEAE02E9E1D
:10454000200D1124222E689435F8E4CF8E3229F400
:1045500036FC04C1689436F8DDCF8C3619F46894C3
:1045600037F8D8CF8836B1F2982F9F7D9554933085
:10457000E0F08336A1F18337C1F1833509F063C0E0
:104580002801F2E04F0E511CF801C080D180692D46
:1045900070E036FC02C06FEF7FEFC6010E94182466
:1045A0004C01689437F882010AC00C5F1F4FFFE38B
:1045B000F98388248394912C6501E89437F833FEBD
:1045C0002DC0522C8114910471F5552009F468CF47
:1045D000B70180E290E00E942E245A94F6CFF801B1
:1045E000808189830E5F1F4FE4CF2801F2E04F0ED8
:1045F000511CF801C080D180692D70E036FC02C0EA
:104600006FEF7FEFC6010E9423244C018201D5CFBA
:10461000B70180E290E00E942E242A942814190405
:1046200009F0B0F7CECFF60137FC859137FE8191C6
:104630006F01B70190E00E942E2451105A94F1E0CE
:104640008F1A9108BFCF843619F0893609F077C0E8
:10465000F80137FE6BC060817181828193810C5FAC
:104660001F4FF32DFF763F2E97FF09C09095809541
:10467000709561957F4F8F4F9F4F689437F82AE070
:1046800030E0A5010E945E24C82ECA188C2C432C51
:1046900036FE0CC0E89440F8C91440F434FE05C05E
:1046A00032FC03C0F32DFE7E4F2E892C44FE95C0B4
:1046B000FE01EC0DF11D8081803309F087C0242DAF
:1046C000297E422E842D8870582E43FC95C040FED2
:1046D0008FC09C2C821418F42C0C922C981844FE39
:1046E00091C0B70180E390E00E942E2442FE09C0F1
:1046F00088E790E041FE02C088E590E0B7010E94A3
:104700002E24C91408F48AC0CA94D12C9FEFC91A68
:10471000D90ACA0CDB1CF60182916F01B70190E047
:104720000E942E24AC14BD04B1F74FCF608171817B
:10473000072E000C880B990B0E5F1F4F92CFD32CC6
:10474000E894D4F82AE030E0853739F1232D297F29
:10475000D22E8F3601F148F48835A9F0F701868111
:1047600097812B96E2E10C94661F803749F08837D9
:10477000A9F7D4FE02C06894D2F820E130E00DC061
:104780006894D4F8F6CF34FE03C0822F8660D82E0A
:1047900020E132E002C028E030E0F801D7FE0FC08F
:1047A00060817181828193810C5F1F4FA5010E94FE
:1047B0005E24C82ECA183D2CE89437F867CF608174
:1047C000718190E080E00E5F1F4FF0CF42FC02C08D
:1047D000839478CF8394839475CF842D867809F45D
:1047E00071CFF6CFB70180E290E00E942E2483942F
:1047F0008214C0F3512C73CF522C5818821408F431
:104800006ECFF8CF842D867809F47BCF8BE241FE02
:1048100080E247FC8DE2B70190E071CFB70180E301
:1048200090E00E942E249A946CCF8FEF9FEF99CF47
:10483000FC010590615070400110D8F7809590956B
:104840008E0F9F1F0895FC01615070400190011070
:10485000D8F7809590958E0F9F1F08950F931F9303
:10486000CF93DF93182F092FEB018B8181FD09C0B6
:104870001FEF0FEF812F902FDF91CF911F910F919D
:10488000089582FF14C02E813F818C819D8128175D
:1048900039073CF4E881F981CF0101969983888337
:1048A00010838E819F8101969F838E83E3CFE8855D
:1048B000F985812F0995892BA1F3DACFFA01AA276F
:1048C000283051F1203181F1E8946F936E7F6E5F53
:1048D0007F4F8F4F9F4FAF4FB1E03ED0B4E03CD001
:1048E000670F781F891F9A1FA11D680F791F8A1FE4
:1048F000911DA11D6A0F711D811D911DA11D20D04B
:1049000009F468943F912AE0269F11243019305D04
:104910003193DEF6CF010895462F4770405D4193F5
:10492000B3E00FD0C9F7F6CF462F4F70405D4A3342
:1049300018F0495D31FD4052419302D0A9F7EACF0A
:10494000B4E0A6959795879577956795BA95C9F739
:1049500000976105710508959B01AC010A2E06942C
:104960005795479537952795BA95C9F7620F731FE5
:0C497000841F951FA01D0895F894FFCF30
:10497C00D204D204000085078000000000009705D7
:10498C00F7042405E4055505330547050000000030
:10499C001809EB087D0DC108E408D108C208000015
:1049AC000000140BF7047D0D7C0D257320002530C1
:1049BC0032640025733A25733A257300D0A2D0B522
:1049CC00D0BCD0BFD0B5D180D0B0D182D183D18072
:1049DC00D0B0002B006E616E00696E66006F76665B
:1049EC00004300D09ED0B1D180D0BED0B1D0BAD0CF
:1049FC00B0002573256400D185D0B22E000D0A00BD
:00000001FF
