:100000000C944B020C94CD140C94A6140C94730213
:100010000C9473020C9473020C9473020C9473028C
:100020000C9473020C9473020C9473020C9473027C
:100030000C9473020C9473020C9473020C9473026C
:100040000C945C140C9473020C941A150C94F41414
:100050000C9473020C9473020C9473020C9473024C
:100060000C944C150C947302000000000000006F0B
:1000700000000007000700147F147F148C92FF9289
:1000800062231308646236495620500000070000BE
:10009000001C2241000041221C0014083E081408E4
:1000A000083E0808005030000008080808080060F2
:1000B00060000020100804023E5149453E00427F86
:1000C000400042615149462141454B311814127F8D
:1000D0001027454545393C4A494930017109050316
:1000E0003649494936064949291E0036360000007E
:1000F0005636000008142241001414141414004150
:1001000022140802015109063E415D494E7E09094B
:10011000097E7F494949363E414141227F41414163
:100120003E7F494949417F090909013E4149497AD0
:100130007F0808087F00417F41002040413F017F48
:10014000081422417F404040407F020C027F7F0420
:1001500008107F3E4141413E7F090909063E415159
:10016000215E7F09192946464949493101017F012C
:10017000013F4040403F0F3040300F3F4030403F54
:100180006314081463070870080761514945430068
:10019000007F4100020408102000417F000004029B
:1001A0000102044040404040000003040020545439
:1001B00054787F48444438384444442038444448C0
:1001C0007F3854545418087E0901020C5252523E92
:1001D0007F0804047800447D40002040443D000036
:1001E0007F10284400417F40007C041804787C087C
:1001F00004047838444444387C1414140808141453
:10020000187C7C080404084854545420043F44409B
:10021000203C4040207C1C2040201C3C4030403C86
:1002200044281028440C5050503C4464544C440022
:100230000836414100007F000041413608000402B9
:100240000408047E1111117E7F494949337F4949D1
:1002500049367F01010103E0514F41FF7F49494980
:100260004177087F087741494949367F1008047F64
:100270007C2112097C7F0814224120413F017F7FAD
:10028000020C027F7F0808087F3E4141413E7F010A
:1002900001017F7F090909063E4141412201017F99
:1002A000010147281008071C227F221C6314081430
:1002B000637F404040FF070808087F7F407F407F02
:1002C0007F407F40FF017F4848307F4830007F00FB
:1002D0007F484830224149493E7F083E413E4629F9
:1002E00019097F20545454783C4A4A49317C54546B
:1002F00028007C04040C00E0544C44FC3854545452
:10030000186C107C106C44545428007C2010087C1D
:1003100078422412787C1028440020443C047C7CE1
:100320000810087C7C1010107C38444444387C044D
:1003300004047C7C14141408384444440004047CF1
:1003400004040C5050503C3048FE483044281028DB
:10035000447C40407CC00C1010107C7C407C407C75
:100360007C407C40FC047C5050207C5050207C7CA5
:100370005050200028445454387C103844380854D5
:1003800034147C38555455181F1C1F1E1F1E1F1F68
:100390001E1F1E525443206572720000000000248C
:1003A0000027002A0000000000250028002B000084
:1003B0000000080002010000030407000000000024
:1003C000000000AED5808D142001A1C8817FDB40E4
:1003D000A6AFD0A3D181D182D0B0D0B2D0BAD0B0A4
:1003E00000000000000080C0C0E0F07070303030CD
:1003F00020000000000000C0E0F0F070303020006D
:1004000000003078FC7F3F0F0F1F3C78F0E0C08089
:10041000808040E0F0F8FCFF7F33131E1C1C0E07A9
:1004200000000000000000000080C0E0F0F9F7EFDD
:100430005F3F7FFEFDFBF1E0C08000000000000098
:100440000000000000000C1E33331F0F07030100E3
:10045000000000000103070F1F3F1F0E04000000F3
:10046000000102040810204080010204081020014D
:1004700002040810200000000023002600290004C8
:10048000040404040404040202020202020303033B
:10049000030303006B1611241FBECFEFD8E0DEBFAD
:1004A000CDBF27E0A6E9B1E001C01D92AC38B2078C
:1004B000E1F711E0A0E0B1E0E4E3FBE402C0059065
:1004C0000D92A639B107D9F712E0CBE4D2E004C00F
:1004D0002197FE010E949920CA34D107C9F70E94D2
:1004E00005180C9498250C940000209113032817EC
:1004F000190670F1209112032617170648F1109281
:100500001C0710921B0710921E0710921D07FB017B
:1005100023E0F595E7952A95E1F733E0880F991FD9
:100520003A95E1F7E80FF91F6770772781E090E0CF
:10053000A0E0B0E004C0880F991FAA1FBB1F6A95F6
:10054000D2F7E45FFC4F442321F02285822B82877F
:100550000895809592858923FACF2F923F924F92EA
:100560005F926F927F928F929F92AF92BF92CF9243
:10057000DF92EF92FF920F931F93CF93DF9300D000
:1005800000D0CDB7DEB79C838B837B018A016901E4
:1005900010921C0710921B0710921E0710921D0745
:1005A0008417950709F051C02617370724F08D2DC1
:1005B0006B01E22EF82E809113032B813C81821770
:1005C0001306BCF40F900F900F900F90DF91CF9116
:1005D0001F910F91FF90EF90DF90CF90BF90AF9061
:1005E0009F908F907F906F905F904F903F902F9053
:1005F0000895CE14DF04E1F441E0B6018B819C81C3
:100600000F900F900F900F90DF91CF911F910F914E
:10061000FF90EF90DF90CF90BF90AF909F908F9022
:100620007F906F905F904F903F902F900C94750249
:10063000EC14FD043CF241E0B6018B819C810E94E8
:1006400075022FEFC21AD20AF3CF62177307E9F5CA
:100650008B819C81481759072CF0812F0B811C81BD
:100660004B838C83809112038E151F040CF4AACF48
:100670002B813C810217130721F441E0B701C80127
:10068000BFCF8091130390E0801791070CF48C0189
:1006900017FF02C010E000E02B813C812F5F3F4F2D
:1006A0003A8329838217930714F49A838983898173
:1006B0009A81081719070CF085CF41E0B701C801EE
:1006C0000E9475020F5F1F4FF2CF2A012B813C81E0
:1006D000421A530A57FE03C05194419451083601FF
:1006E0006E187F0877FE03C07194619471088B8146
:1006F0009C8122242394312C801791071CF0222402
:100700002A94322CEC14FD0494F521E030E03A8375
:100710002983420186189708AA24BB24A618B70883
:1007200041E0B7018B819C810E9475022B813C8145
:100730000217130721F4CE14DF0409F443CFC401D8
:10074000880F991FA816B9065CF4861897082B81A4
:100750003C81220D331D3C832B838415950504F7C2
:10076000840C951C89819A81E80EF91ED9CF8FEFF0
:100770009FEF9A838983CDCF08950895833081F0C8
:1007800028F4813099F08230A9F008958730A9F0DB
:100790008830C9F08430B1F4809180008F7D03C02F
:1007A000809180008F7780938000089584B58F7743
:1007B00084BD089584B58F7DFBCF8091B0008F7785
:1007C0008093B00008958091B0008F7DF9CFCF93D2
:1007D000DF93282F30E0F901E155FC4F8491F901B6
:1007E000EF59FB4FD491F901E158FB4FC491CC2351
:1007F000A1F081110E94BE03EC2FF0E0EE0FFF1F6D
:10080000EB58FB4FA591B491EC91ED2381E090E082
:1008100009F480E0DF91CF91089580E090E0FACF75
:100820001F93CF93DF93282F30E0F901E155FC4F60
:100830008491F901EF59FB4FD491F901E158FB4F35
:10084000C491CC23A9F0162F81110E94BE03EC2F76
:10085000F0E0EE0FFF1FEB55FC4FA591B4918FB761
:10086000F894EC91111108C0D095DE23DC938FBF72
:10087000DF91CF911F910895DE2BF8CFCF93DF93B7
:1008800090E0FC01EF59FB4F249181589B4FFC01F4
:1008900084918823D1F090E0880F991FFC01E556E0
:1008A000FC4FA591B491FC01EB55FC4FC591D4913F
:1008B000623071F49FB7F8943C91822F8095832326
:1008C0008C93E8812E2B28839FBFDF91CF910895D1
:1008D0008FB7F894EC912E2B2C938FBFF6CF3FB7A8
:1008E000F8948091E4019091E501A091E601B09126
:1008F000E70126B5A89B05C02F3F19F00196A11D61
:10090000B11D3FBFBA2FA92F982F8827BC01CD0159
:10091000620F711D811D911D42E0660F771F881FB8
:10092000991F4A95D1F708958F929F92AF92BF92E7
:10093000CF92DF92EF92FF924B015C010E946F0415
:100940006B017C010E946F046C197D098E099F095F
:10095000683E734081059105A8F321E0821A910851
:10096000A108B10888EEC80E83E0D81EE11CF11C76
:1009700081149104A104B10429F7FF90EF90DF9056
:10098000CF90BF90AF909F908F9008952FB7F8941D
:100990006091E0017091E1018091E2019091E301A9
:1009A0002FBF08950895EF92FF920F931F93CF9357
:1009B000DF938C017B01D0E0C0E0F701EC0FFD1F5D
:1009C0006491662361F0D801ED91FC910190F08172
:1009D000E02DC8010995892B11F02196EECFCE01AB
:1009E000DF91CF911F910F91FF90EF900895AF92FB
:1009F000BF92CF92DF92EF92FF920F931F93CF930C
:100A0000DF936C017B018B01040F151FEB015E016D
:100A1000AE18BF08C017D10759F06991D601ED9102
:100A2000FC910190F081E02DC6010995892B79F7A1
:100A3000C501DF91CF911F910F91FF90EF90DF9053
:100A4000CF90BF90AF900895FC01538D448D252F1A
:100A500030E0842F90E0821B930B541710F0CF9658
:100A6000089501970895FC01918D828D981761F08A
:100A7000A28DAE0FBF2FB11D5D968C91928D9F5FA1
:100A80009F73928F90E008958FEF9FEF0895FC0180
:100A9000918D828D981731F0828DE80FF11D858D33
:100AA00090E008958FEF9FEF0895FC01918D228DC6
:100AB000892F90E0805C9F4F821B91098F7399274B
:100AC000089583E692E00E94550521E0892B09F400
:100AD00020E0822F089580E090E0892B29F00E9489
:100AE000610581110C9400000895FC01A48DA80FEC
:100AF000B92FB11DA35ABF4F2C91848D90E0019660
:100B00008F739927848FA689B7892C93A089B1897F
:100B10008C91837080648C93938D848D981306C020
:100B20000288F389E02D80818F7D80830895EF9284
:100B3000FF920F931F93CF93DF93EC0181E0888F97
:100B40009B8D8C8D98131AC0E889F989808185FF67
:100B500015C09FB7F894EE89FF896083E889F98909
:100B600080818370806480839FBF81E090E0DF910B
:100B7000CF911F910F91FF90EF900895F62E0B8D5E
:100B800010E00F5F1F4F0F731127E02E8C8D8E1119
:100B90000CC00FB607FCFACFE889F989808185FF80
:100BA000F5CFCE010E947505F1CFEB8DEC0FFD2F37
:100BB000F11DE35AFF4FF0829FB7F8940B8FEA893B
:100BC000FB8980818062CFCFCF93DF93EC01888D4A
:100BD0008823B9F0AA89BB89E889F9898C9185FDB8
:100BE00003C0808186FD0DC00FB607FCF7CF8C9146
:100BF00085FFF2CF808185FFEDCFCE010E94750584
:100C0000E9CFDF91CF9108958F929F92AF92BF92DB
:100C1000CF92DF92EF92FF92CF93DF93EC016A01C4
:100C20007B0180E8C81A83E4D80A8DE6E80A88E3E5
:100C3000F80A8CE3882E912CA12CB12CC701B601A7
:100C4000A50194010E9451206D83CA01B901A5013B
:100C500094010E9451206C83C701B60120E13EE05F
:100C600040E050E00E945120CA01B90128E130E083
:100C700040E050E00E9451206B83C701B60120E89C
:100C800031E541E050E00E945120188263E97EEF97
:100C90008881982F937041E050E011F050E040E0DF
:100CA000FA01E359FE4F2E173F0740F0FB01E41B0A
:100CB000F50B2E0F3F1F8F5F8883EACF81E089837A
:100CC00089818C30A0F4482F4150550BFA01E85728
:100CD000FC4FE491911103C0823009F4EF5FF0E022
:100CE0002E173F0720F02E1B3F0B8F5FE8CF2F5FA3
:100CF0002A83DF91CF91FF90EF90DF90CF90BF904C
:100D0000AF909F908F900895DC0150E0E8E8F3E009
:100D100081E0861730F49491490F511D8F5F319611
:100D2000F8CF633038F0CD0183709927892B11F407
:100D30004F5F5F4F9D012D5F3F4F3695279536954D
:100D400027956DE671E0A69FC001A79F900DB69F05
:100D5000900D11240197820F931F840F951F089502
:100D6000EF92FF920F931F93CF93DF93EC01888153
:100D70004A81698190E00E9484069C01A8E1B0E06C
:100D80000E940E202B817B018C01E20EF11C011DC3
:100D9000111DA8019701ACE3B0E00E94CC1F2C818B
:100DA0007B018C01E20EF11C011D111DA8019701B0
:100DB0000E94CC1FAB01BC019D81892F90E0B0E067
:100DC000A0E080589C4BA249B74C8A019B01080FB8
:100DD000191F2A1F3B1FC901B801DF91CF911F9135
:100DE0000F91FF90EF9008958F929F92AF92BF92D4
:100DF000CF92DF92EF92FF92CF93DF93EC010E94AC
:100E0000C6046B017C018D8181112DC0CE010E9431
:100E1000B0064B015C0189E797E00E94B006861A94
:100E2000970AA80AB90A8CE388169104A104B104B0
:100E3000D4F0C0927507D0927607E0927707F092CF
:100E4000780786E0FE01A9E7B7E001900D928A9548
:100E5000E1F78C8161E080FF32C08CE00E941004D9
:100E600081E080937F0780917F078823E9F080915C
:100E7000750790917607A0917707B0917807C81A07
:100E8000D90AEA0AFB0A80EDC81687E0D806E10411
:100E9000F10450F060E08CE00E94100460E08BE010
:100EA0000E94100410927F07DF91CF91FF90EF9086
:100EB000DF90CF90BF90AF909F908F9008958BE080
:100EC000CDCF0F931F93CF93DF9300D000D000D0EE
:100ED000CDB7DEB7FC012081243610F58C010E94CD
:100EE000B006AB01BC01CE0101960E940406F801D8
:100EF00090818981981314C091818A81981310C0C0
:100F000092818B8198130CC093818C81981308C0B7
:100F100094818D81981304C081E025819E812913DD
:100F200080E026960FB6F894DEBF0FBECDBFDF91EE
:100F3000CF911F910F9108952091B701260F33276C
:100F4000331F21323105ECF420913902FC0190E08D
:100F500080E0243069F082E00895A091B7012191EA
:100F6000AC0149565E4FA40FB52FB11D2C930196CD
:100F7000861798F38091B701680F6093B70180E0FE
:100F8000089581E008951092390281E0809338023B
:100F90001092130261E082E10E94100461E083E19B
:100FA0000E941004E9EBF0E080818E7F80838081D5
:100FB0008D7F808388E48093B80085E48093BC00B3
:100FC00008951092F2011092F101109240021092D5
:100FD00062020E94C3078CEB93E09093EB01809335
:100FE000EA018DEB93E09093E9018093E801089585
:100FF000CF93DF9391E0909396018823B9F0C0914D
:10100000B800D091BA008091BC008A7B8093BC006C
:1010100060E082E10E94100460E083E10E9410041D
:101020000E94C307D093BA00C093B800DF91CF915C
:1010300008958F929F92AF92BF92CF92DF92EF92DC
:10104000FF920F931F93CF93DF93D0916202D1321F
:1010500008F0D7C0182FC09161020E946F046B0185
:101060007C018091390281116BC082E0809339024A
:10107000109338028FEF8093370210923602D0938C
:101080003502A1E4B2E0E5E1F2E080E0D81391C0DE
:101090001092140280911402CC0FC82BC09314023A
:1010A00080911302813009F088C0109213020E94CF
:1010B0006F046B017C01809114028093BB008091CE
:1010C0003B0290913C02A0913D02B0913E02892BDF
:1010D0008A2B8B2BA1F00E946F0400913B02109190
:1010E0003C0220913D0230913E026C197D098E092F
:1010F0009F09061717072807390708F442C080918F
:10110000BC0083FDD8CF85EC8093BC000E946F04A7
:101110006B017C0180913902823009F450C08091CA
:1011200037028F3F09F46FC080913702803209F493
:101130006CC080913702803309F469C084E026C016
:1011400080913B0290913C02A0913D02B0913E0201
:10115000892B8A2B8B2B09F484CF0E946F048090FB
:101160003B0290903C02A0903D02B0903E026C1970
:101170007D098E099F0986169706A806B90608F00C
:1011800070CF80913A020E94F80785E010924002E9
:101190001092620210923F02DF91CF911F910F9146
:1011A000FF90EF90DF90CF90BF90AF909F908F9087
:1011B00008959D9191938F5F69CF85EEA5CF809122
:1011C0003B0290913C02A0913D02B0913E02892BDE
:1011D0008A2B8B2B09F49ECF0E946F0400913B0257
:1011E00010913C0220913D0230913E026C197D0924
:1011F0008E099F09061717072807390708F08ACFB5
:10120000C0CF81E0C3CF80E0C1CF82E0BFCF83E019
:10121000BDCFCF93DF93EC018B818823A1F0888130
:1012200091E090933F0280936102109240021092ED
:10123000620281E00E94190891E0811190E0892FFB
:10124000DF91CF9108950E94E10781E08B83CE0169
:101250000E940909982F8111E2CFF1CF0895E09102
:10126000F2018091F101E81730F4F0E0ED50FE4F0B
:10127000808190E008958FEF9FEF08959091F201A3
:101280008091F1012FEF3FEF981748F4E92FF0E03C
:10129000ED50FE4F208130E09F5F9093F201C90135
:1012A00008958091F1019091F201891B990B0895A5
:1012B000CF92DF92EF92FF920F931F93CF93DF9322
:1012C0007C01CB018A0120913F02222389F0EB01AE
:1012D0006B01C40ED51ECC15DD0569F06991D701EF
:1012E000ED91FC910190F081E02DC7010995F3CFBC
:1012F000642F0E949C07C801DF91CF911F910F912D
:10130000FF90EF90DF90CF900895CF93DF931F92DF
:10131000CDB7DEB7698320913F022223F9F02091F7
:101320006202203258F021E030E0FC013383228356
:1013300090E080E00F90DF91CF910895809140027E
:10134000E82FF0E0EF5BFD4F998190838F5F8093F2
:1013500040028093620281E090E0ECCF61E0CE0138
:1013600001960E949C07F7CFDC01ED91FD918081F1
:10137000ED91FD919081ED91FD916C9163708E23C3
:1013800009F064609F2309F06860E1EDF9E0E60F81
:10139000F11D659565956D936D917D918D919D91F3
:1013A000099423C01AC012C016C010C01EC009C0C4
:1013B00014C013C006C019C009C00DC007C00DC0BD
:1013C00014C062507040804090400BC0615070402B
:1013D0008040904006C06E5F01C06F5F7F4F8F4FAF
:1013E0009F4F9E938E937E936E93089580912E07C8
:1013F00090912F070C94B409809130079091310798
:101400000C94B409682F80E093E00C9485098091D6
:10141000100391E090933F0280936102109240028A
:101420001092620280E00C94020ACF93DF93EC01E9
:1014300081E00E941908188283E090E00197F1F79B
:10144000DF91CF9108950E94020A809121078F5F5A
:1014500080932107803190F081E297E00E94150A85
:101460008091100391E090933F028093610210926B
:1014700040021092620280E40C94020A08950F93D5
:101480001F93CF93DF938C01EB010E94070A81E247
:101490000E94020A80E00E94020A8091130390E0F9
:1014A000081719070CF4C8010E94020A82E20E9480
:1014B000020A80E00E94020A8091110390E0C8179E
:1014C000D9070CF4CE010E94020A81E297E0DF9175
:1014D000CF911F910F910C94150ACF93DF936091D8
:1014E000110370E08091130390E00E943F0A809105
:1014F000100391E090933F028093610210924002AA
:101500001092620280E40E94020AC6E1D3E089914F
:101510000E94230A87E0C631D807C9F781E297E025
:10152000DF91CF910C94150A0F931F930130110591
:1015300059F10230110509F44AC0012B11F5FC01E3
:10154000E15FFB4F0190F081E02D2E0F3F2F311D09
:10155000B3E0220F331FBA95E1F7FC01EF5EFB4FBA
:101560000190F081E02D13E0F595E7951A95E1F7EC
:10157000E20FF31FE40FF11DE80FF91F8285682BBE
:1015800062871F910F910895FC01E15FFB4F01906D
:10159000F081E02D2E0F3F2F311DE3E0220F331F8E
:1015A000EA95E1F7FC01EF5EFB4F0190F081E02D41
:1015B000A3E0F595E795AA95E1F7E20FF31FE40F95
:1015C000F11DE80FF91F609582856823D9CFFC01D2
:1015D000E15FFB4F0190F081E02D2E0F3F2F311D79
:1015E00053E0220F331F5A95E1F7FC01EF5EFB4FEA
:1015F0000190F081E02D73E0F595E7957A95E1F79C
:10160000820F931FE80FF91FE40FF11DB9CF2F923E
:101610003F924F925F926F927F928F929F92AF9282
:10162000BF92CF92DF92EF92FF920F931F93CF93CF
:10163000DF93CDB7DEB767970FB6F894DEBF0FBE66
:10164000CDBF9F8B8E8BF62EFC01E25FFB4F20817E
:1016500030E03396845F9B4F6C014DE064133DC0D6
:101660008E899F89815F9B4FDC011D921C9281E0D6
:10167000F12C4E895F89455F5B4FDA016C916623DF
:10168000D1F14E895F89435F5B4FDA019C910E89EE
:101690001F89015F1B4FD8014D915C91B6E09B9F64
:1016A000400D511D1124AE89BF8917969C91941746
:1016B000150609F004F580819181D8011D921C92D4
:1016C000820F931F918380834E895F894D5E5B4FAC
:1016D00080818770DA018C9310C0BAE080E06B13D0
:1016E000C8CF80819181820F931F9183808381E095
:1016F000D6018C93BDCF8111E7CF80819181280FD6
:10170000391FEE89FF89868190E001968217930741
:101710000CF4F12CD6018C91882359F1662349F100
:10172000B0E2FB1226C0EE89FF89E15FFB4F8081AA
:101730009181892B09F048C0F601108281E090E088
:1017400067960FB6F894DEBF0FBECDBFDF91CF9185
:101750001F910F91FF90EF90DF90CF90BF90AF90CF
:101760009F908F907F906F905F904F903F902F90C1
:101770000895F7FE50C0EE89FF89EC5EFB4F2FEB1A
:101780002F15C0F08081813D39F431E9F31241C059
:10179000F082E0ECFE2E18C0803D39F441E8F412EE
:1017A00038C0F082F5E9FF2E0FC0823E29F450E8E0
:1017B000F5122FC0F082C2CF803859F564E9F612D5
:1017C00028C0F082ADE2FA2E8E899F89815F9B4FFF
:1017D0009A838983DC012D913C91EE89FF89E35F37
:1017E000FB4FFB87EA878081A90166E0869F400D59
:1017F000511D1124CA0157FD07C0AE89BF89179634
:101800004C91421713065CF4E981FA81918380833D
:1018100095CFF082D9CFFF2009F490CFD5CFF0EE4D
:10182000FF0DF9878F2F90E0AC014150510925E061
:10183000249FB001259F700D11247F876E8760550E
:101840007109798B688B8F96289FD001299FB00DE5
:101850001124BD87AC87AB5EB109BB8BAA8BD12CA1
:10186000C12CEA85FB85FC83EB832E893F892D5EA5
:101870003B4F3E832D834E895F894A5E5B4F58877D
:101880004F8355E060E0C516B9F06985EA89FB89A8
:10189000603668F080E88F0DEC85FD85803138F08A
:1018A0007985E889F989703A10F0EE85FF85E85965
:1018B000FF4FEC0DFD1D6491EE89FF89E65FFB4F44
:1018C000808181116095AB81BC819C91913009F040
:1018D00053C0EE89FF89E15FFB4F8081918197FDC5
:1018E00035C0EE89FF892781281719067CF1AD8163
:1018F000BE818C91EF81F885008110E020E040E00E
:10190000882301F1A62EB12CB50101C0660F8A957E
:10191000EAF720E040E08E899F890E94940AAF8117
:10192000B8850C9110E0ED81FE81808128E030E0E7
:10193000281B3109B50102C0759567952A95E2F714
:1019400020E041E08E899F890E94940AEA85FB8508
:101950008081A981BA812D913C911197820F932F9B
:10196000911D8D939C93BFEFCB1ADB0AE6E0CE1658
:10197000D10409F086CFE2CE30E020E080E0812C77
:10198000912C5401E62FF0E0AF01022E02C05595D4
:1019900047950A94E2F741705527692F680F86171B
:1019A000F1F0412C512C32014394082E04C0440C18
:1019B000551C661C771C0A94D2F74115510531F06D
:1019C00084289528A628B7288F5FE9CF40945094A3
:1019D0006094709484209520A620B720F5CF2F5FC7
:1019E0003F4F2830310581F6312C4E895F89415FA8
:1019F0005B4F5D8B4C8BAC89BD898D919C91EB814C
:101A0000FC812081321608F0A1CF830D911D97FD36
:101A100047C0AE89BF8917962C91281719060CF478
:101A20003FC0212CE12CED81FE812081AB81BC8166
:101A30008C912816B0F5B8E02B9EC001112424012A
:101A4000350104C076946794579447948A95D2F7E9
:101A5000EF81F885008110E0211109C0232D422D6E
:101A6000642D8E899F890E94940A2394DCCF6E2D69
:101A700070E088E090E0821B910902C0759567953F
:101A80008A95E2F7842D01C0880F2A95EAF7682B22
:101A9000232D422D8E899F890E94940AE42CE5CF44
:101AA000E12CAD81BE818C918823B9F0EF81F8855E
:101AB000008110E06E2D70E028E030E0281B310935
:101AC00002C0759567952A95E2F7232DAB81BC81FD
:101AD0004C918E899F890E94940A33948CCF0895EB
:101AE00090E080E0089541E06AE270E081E690E0F5
:101AF0000E94750241E066E270E081E690E00E949B
:101B0000750241E068E270E083E690E00E947502B1
:101B100041E068E270E08FE590E00E94750241E0EC
:101B20006AE270E082E690E00E94750241E06AE2BB
:101B300070E080E690E00E94750241E066E270E0AD
:101B400082E690E00E94750241E066E270E080E685
:101B500090E00E94750241E069E270E083E690E067
:101B60000E94750241E069E270E08FE590E00E941A
:101B7000750241E067E270E083E690E00E94750242
:101B800041E067E270E08FE590E00E94750241E07D
:101B900069E270E083E690E00E94750241E069E24C
:101BA00070E08FE590E00E94750241E067E270E02E
:101BB00083E690E00E94750241E067E270E08FE505
:101BC00090E00E94750241E06AE270E082E690E0F7
:101BD0000E94750241E06AE270E080E690E00E94B7
:101BE000750241E066E270E082E690E00E947502D4
:101BF00041E066E270E080E690E00C9475022F927E
:101C00003F924F925F926F927F928F929F92AF928C
:101C1000BF92CF92DF92EF92FF920F931F93CF93D9
:101C2000DF935C011B016A01F12CE12CD5011496B4
:101C30008D919C9186010E191F098017910708F458
:101C40008C01F501D0810E946F042B013C01809131
:101C50003902811172C0C02F013208F0C0E2F1E0F8
:101C6000F093390221E0C601801B910BE816F906BA
:101C700008F420E0209338028FEF8093370210920F
:101C800036028C0F80933502A1E0A093140280915C
:101C90001402DD0FD82BD0931402809113028130EF
:101CA00009F090C0109213020E946F042B013C01B6
:101CB000809114028093BB0080913B0290913C0282
:101CC000A0913D02B0913E02892B8A2B8B2BA1F073
:101CD0000E946F0420913B0230913C0240913D02F2
:101CE00050913E026419750986099709261737072E
:101CF0004807590708F442C08091BC0083FDD8CF43
:101D0000B5ECB093BC000E946F042B013C018091A4
:101D10003902813009F45AC0809136028C1710F4D0
:101D2000C0913602A5E1B2E0E3EFF1E080E08C176C
:101D300051F19D9191938F5FFACF80913B029091E9
:101D40003C02A0913D02B0913E02892B8A2B8B2B45
:101D500009F47DCF0E946F0420913B0230913C0238
:101D600040913D0250913E02641975098609970918
:101D7000261737074807590708F069CF80913A02BC
:101D80000E94F807C0E01092F201C093F101C01761
:101D9000110609F057C041018E0C9F1CE401CE01D1
:101DA000881999098017910798F5D50111968D9199
:101DB0009C91DC01ED91FC910284F385E02D099565
:101DC0008993EDCFE5EEE093BC009DCF80913B027F
:101DD00090913C02A0913D02B0913E02892B8A2B4A
:101DE0008B2B09F494CF0E946F0420913B02309119
:101DF0003C0240913D0250913E02641975098609EA
:101E00009709261737074807590708F080CFB6CF3C
:101E1000E00EF11EEC14FD0408F408CF81E0DF9120
:101E2000CF911F910F91FF90EF90DF90CF90BF90D7
:101E3000AF909F908F907F906F905F904F903F906A
:101E40002F90089580E0EBCF1F93CF93DF93DC01B9
:101E50001496ED91FC91E417F50710F490E01FC083
:101E6000122FEA01FC0181819281208131E03093BF
:101E70003F02209361021092400210926202DC0144
:101E8000ED91FC910280F381E02D0995C817D907E7
:101E900029F7812F0E94190891E08111DFCF892F46
:101EA000DF91CF911F910895EF92FF920F931F93AF
:101EB000CF93DF9300D000D000D01F92CDB7DEB714
:101EC0008C011982DB01ED90FC9020E041E050E0B4
:101ED000BE016F5F7F4FC7010E94240F882341F02E
:101EE00047E050E0BE016F5F7F4FC7010E94FF0DCA
:101EF000E981EF77FA81FB805D814E814F778F8199
:101F0000282F30E094E0359527959A95E1F7922FA8
:101F1000990F990F291B220F280FD8012C93842F7A
:101F200090E024E0959587952A95E1F7982F990FF1
:101F3000990F891B880F840F11968C931197652F29
:101F400070E034E0759567953A95E1F7862F880F34
:101F5000880F681B660F650F12966C9312974F2DB2
:101F600050E064E0559547956A95E1F7842F880F16
:101F7000880F481B440F4F0D13964C9313972F2F28
:101F800030E074E0359527957A95E1F7822F880F38
:101F9000880F281B220F2F0F14962C9314978E2F27
:101FA00090E0F4E095958795FA95E1F7982F990FD1
:101FB000990F891B880F8E0F15968C93C801279651
:101FC0000FB6F894DEBF0FBECDBFDF91CF911F914A
:101FD0000F91FF90EF900895CF92DF92EF92FF92D2
:101FE0000F931F93CF93DF9300D0CDB7DEB721E1DE
:101FF00029831A82FC010081118120E041E050E038
:10200000BE016F5F7F4FC8010E94240F882341F0FB
:1020100042E050E0BE016F5F7F4FC8010E94FF0D9C
:102020006A8170E086E0759567958A95E1F7072EDD
:10203000000C880B990B0E94AF1E20E030E040E8B6
:102040005EE30E940E1F6B017C01698170E090E0ED
:1020500080E00E94AD1E9B01AC01C701B6010E9449
:10206000A0200F900F90DF91CF911F910F91FF90C3
:10207000EF90DF90CF900895CF92DF92EF92FF9292
:102080000F931F93CF93DF93CDB7DEB72B970FB688
:10209000F894DEBF0FBECDBF7C018B01CE0101964F
:1020A0006C0188E0F60111928A95E9F7FB01358110
:1020B0002AE0832F622F0E941D20982F880F890FFE
:1020C000880F830F8A833481832F0E941D20982FCD
:1020D000880F890F880F830F8B833381832F0E9492
:1020E0001D20982F880F890F880F830F8C83808184
:1020F0004281618190E00E948406069667E070E06C
:102100000E942920811101C087E08D83F80132816E
:102110002AE0832F622F0E941D20982F880F890F9D
:10212000880F830F8E833181832F0E941D20982F6B
:10213000880F890F880F830F8F833081832F0E9430
:102140001D20982F880F890F880F830F888721E023
:1021500048E050E0B601F701808191810E94240F90
:102160001FE01B8721E041E050E0BE01655F7F4F2B
:10217000F701808191810E94240F41E050E0BE016F
:10218000675F7F4FF701808191810E94FF0D8985F4
:1021900019878F778A8721E042E050E0BE01675FB0
:1021A0007F4FF701808191810E94240F2B960FB6FB
:1021B000F894DEBF0FBECDBFDF91CF911F910F917D
:1021C000FF90EF90DF90CF9008950F931F93CF93E0
:1021D000DF9300D000D000D0CDB7DEB7FC010FE414
:1021E00017E0D80152968C91529750969C91509737
:1021F0001E962C911E9732814181508159834A83CA
:102200003B832C839D838E83BE016F5F7F4F8D91B7
:102210009C910E943C10F8011086178226960FB6FA
:10222000F894DEBF0FBECDBFDF91CF911F910F910C
:102230000895CF93DF930E94E1070E94070AC3EC41
:10224000D3E0FE0184910E94230A2196F3E0C23D6F
:10225000DF07B9F781E297E00E94150A0E94070A9A
:102260008AED0E94230A82E10E94230A88EA0E94E2
:10227000230A8FE30E94230A81E297E00E94150A55
:1022800010921C0710921B0710921E0710921D0738
:1022900010921F076091110370E08091130390E08A
:1022A0000E943F0A0E94070A81E80E94020A8AE00F
:1022B0000E94020A81E297E00E94150A40911403ED
:1022C0005091150370E060E086E193E00E94DC220B
:1022D00080911D07877080931F070E94C60460933A
:1022E0005107709352078093530790935407DF91DF
:1022F000CF910895409114035091150370E060E070
:1023000086E193E00E94DC2280911D078770809314
:102310001F070895FB0101900020E9F73197AF01F5
:10232000461B570BDC01ED91FC910280F381E02DFF
:1023300009948F929F92AF92BF920F931F93CF9366
:10234000DF93CDB7DEB7A1970FB6F894DEBF0FBE0F
:10235000CDBF19A2423008F44AE08E010F5D1F4F35
:10236000842E912CB12CA12CA50194010E94512006
:10237000E62FB901CA01EA3004F5E05DD801EE9319
:102380008D01232B242B252B79F790E080E01097EB
:1023900029F0BD018CE093E00E948A11A1960FB64E
:1023A000F894DEBF0FBECDBFDF91CF911F910F918B
:1023B000BF90AF909F908F900895E95CDFCFBC01F4
:1023C0008CE093E00C948A115F926F927F928F92CF
:1023D0009F92AF92BF92CF92DF92EF92FF920F93B4
:1023E0001F93CF93DF93CDB7DEB764970FB6F89402
:1023F000DEBF0FBECDBF0E94C604AB01BC01809101
:10240000ED019091EE01A091EF01B091F0018A01F0
:102410009B01081B190B2A0B3B0BD901C8018A3FF2
:102420009105A105B10580F08091EC0190E0019645
:10243000837099278093EC014093ED015093EE0156
:102440006093EF017093F0016AE371E0CE010196B1
:102450000E94E3220E947A1182E08093190780E1B2
:1024600080931A0788E090E090931C0780931B07E5
:1024700010921E0710921D0710921F07CE010196A1
:102480000E94DF11F12C8091EC01F81630F484E504
:1024900091E00E94DF11F394F6CF10921C07109286
:1024A0001B0710921E0710921D0710921F0798E23B
:1024B000E92EF12C28E0622E712C809113038E15E9
:1024C0001F0444F1970127543C4F4901512C84E0EB
:1024D000C82ED12CF401A590B49020911F078091B3
:1024E000110390E0211135C08C159D054CF010E0D2
:1024F00000E02E2D4C2D6A2D8CE093E00E94940A72
:102500003FEFC31AD30A80E2880E911C98E0C916E7
:10251000D10401F70FEFE01AF00A18E4E116F10414
:1025200061F60E946D0A64960FB6F894DEBF0FBE86
:10253000CDBFDF91CF911F910F91FF90EF90DF9072
:10254000CF90BF90AF909F908F907F906F905F9053
:1025500008958C159D05CCF0652D70E0C301821B9C
:10256000910902C0759567958A95E2F7C50199278B
:1025700001C0880F2A95EAF7682B10E000E02E2DA5
:102580004C2D8CE093E00E94940A5A2CB9CFEF9224
:10259000FF920F931F93CF93DF93CDB7DEB72A97A8
:1025A0000FB6F894DEBF0FBECDBF24E631E097FD35
:1025B00002C029E431E09F938F933F932F938BE4E4
:1025C00091E09F938F931F928AE08F93CE010196A3
:1025D0007C019F938F930E94EA220E947A1102E06D
:1025E0000093190710E110931A0784E190E090938B
:1025F0001C0780931B0710921E0710921D07109254
:102600001F0762ED73E08CE093E00E94D30483E047
:102610008093190788E180931A0785E090E09093F2
:102620001C0780931B0788E290E090931E0780931D
:102630001D0710921F07C7010E94DF1100931907A1
:1026400010931A078CE590E090931C0780931B076A
:1026500080E390E090931E0780931D0710921F0760
:1026600080E591E00E94DF110E946D0A0FB6F89498
:10267000DEBF0FBECDBF2A960FB6F894DEBF0FBEE9
:10268000CDBFDF91CF911F910F91FF90EF900895F3
:102690004F925F926F927F928F929F92AF92BF9272
:1026A000CF92DF92EF92FF920F931F93CF936B0124
:1026B0007C01742EAC019B010E94B22166E571E0A1
:1026C000811126C046015701E894B7F82FEF3FEF7C
:1026D0004FE75FE7C501B4010E94B22181110CC030
:1026E0002FEF3FEF4FE75FE7C501B4010E94A81E3F
:1026F0006AE571E0181664F02FEF3FEF4FE75FE4F3
:10270000C701B6010E94AD211816ACF46EE571E068
:102710008CE093E0CF911F910F91FF90EF90DF90AD
:10272000CF90BF90AF909F908F907F906F905F9071
:102730004F900C948A112FEF3FEF4FE75FECC701EA
:10274000B6010E94A81E87FDE1CF20E030E0A9017C
:10275000C701B6010E94A81E10E000E087FF0AC072
:102760006DE28CE093E00E94070B8C01F7FAF09485
:10277000F7F8F094C0E060E070E080E09FE37C1642
:1027800041F020E030E040E251E40E940C21CF5FB4
:10279000F6CFA70196010E94A0202B013C010E94C8
:1027A0007E214B015C014AE00E9499117C01E00E00
:1027B000F11ECC23C1F1C501B4010E94AD1E9B01E5
:1027C000AC01C301B2010E949F204B015C016EE28B
:1027D0008CE093E00E94070BE80EF91EC15018F13F
:1027E00020E030E040E251E4C501B4010E940E1F38
:1027F0002B013C010E947E214B01B12CA12C4AE00F
:10280000C501B4010E949911E80EF91EC501B40179
:102810000E94AD1E9B01AC01C301B2010E949F202A
:102820004B015C01DBCFC701CF911F910F91FF904E
:10283000EF90DF90CF90BF90AF909F908F907F9060
:102840006F905F904F90089585ED8093BC008091CC
:102850003B0290913C02A0913D02B0913E0207964E
:10286000A11DB11D23E0B695A795979587952A954B
:10287000D1F72091BC0024FD03C0109239020895C5
:1028800040913B0250913C0260913D0270913E02AA
:10289000452B462B472B69F30097A105B10541F065
:1028A0002AE22A95F1F700C00197A109B109E1CF09
:1028B00080913A020C94F8071F920F920FB60F9274
:1028C00011242F933F938F939F93AF93BF93809146
:1028D000E0019091E101A091E201B091E30130911A
:1028E000DF0123E0230F2D3758F50196A11DB11DFF
:1028F0002093DF018093E0019093E101A093E20136
:10290000B093E3018091E4019091E501A091E6018B
:10291000B091E7010196A11DB11D8093E401909350
:10292000E501A093E601B093E701BF91AF919F91BC
:102930008F913F912F910F900FBE0F901F90189580
:1029400026E8230F0296A11DB11DD2CF1F920F9230
:102950000FB60F9211242F933F934F935F936F9372
:102960007F938F939F93AF93BF93EF93FF93E091E8
:102970000201F09103010995FF91EF91BF91AF9191
:102980009F918F917F916F915F914F913F912F9187
:102990000F900FBE0F901F9018951F920F920FB6B9
:1029A0000F9211242F933F934F935F936F937F93D5
:1029B0008F939F93AF93BF93EF93FF93E0910001A9
:1029C000F09101010995FF91EF91BF91AF919F9116
:1029D0008F917F916F915F914F913F912F910F90C8
:1029E0000FBE0F901F9018951F920F920FB60F9267
:1029F00011242F933F934F935F936F937F938F9304
:102A00009F93AF93BF93EF93FF9383E692E00E946F
:102A10007505FF91EF91BF91AF919F918F917F913C
:102A20006F915F914F913F912F910F900FBE0F903B
:102A30001F9018951F920F920FB60F9211242F938B
:102A40008F939F93EF93FF93E0917302F091740241
:102A50008081E0917902F0917A0282FD1BC0908121
:102A600080917C028F5F8F7320917D02821741F0ED
:102A7000E0917C02F0E0ED59FD4F958F80937C0250
:102A8000FF91EF919F918F912F910F900FBE0F901B
:102A90001F9018958081F4CF1F920F920FB60F925E
:102AA00011242F933F934F935F936F937F938F9353
:102AB0009F93AF93BF93EF93FF938091B900887F6B
:102AC000803609F44AC0F0F5883209F4A7C018F539
:102AD000803109F49BC0B8F4882309F4F9C0883028
:102AE00009F494C0FF91EF91BF91AF919F918F91A5
:102AF0007F916F915F914F913F912F910F900FBEFA
:102B00000F901F901895883109F488C0803251F7D2
:102B10008093370214C0803409F49DC040F48033A0
:102B2000B9F38833F9F68093370285ECB0C080356D
:102B300009F485C0883509F496C0883499F60E9456
:102B40002414D0CF883909F48CC038F5883729F09F
:102B500050F4883611F0803729F683E080933902EB
:102B60001092D90157C0883809F47BC0803919F018
:102B7000803809F0B7CF8091D901803208F071C058
:102B8000E091D90181E08E0F8093D9018091BB0043
:102B9000F0E0E754FE4F80833DC0803B39F0E0F425
:102BA000803A09F479C0883A09F09CCF84E0809398
:102BB00039021092B8011092B701E091EA01F09148
:102BC000EB0109958091B70181110FC081E08093DD
:102BD000B7011092970109C0803C09F4A6CF883C48
:102BE00009F4A3CF883B09F07DCFE091B80181E0E3
:102BF0008E0F8093B801F0E0E956FE4F80818093FC
:102C0000BB009091B8018091B70129C08091140256
:102C10008093BB0085EC8093BC0064CF909136021A
:102C200080913502981758F5E091360281E08E0FB9
:102C300080933602F0E0EB5EFD4F8081E9CFE091BA
:102C4000360281E08E0F809336028091BB00F0E067
:102C5000EB5EFD4F8083909136028091350298178C
:102C6000C8F285E8D8CFE091360281E08E0F8093DC
:102C700036028091BB00F0E0EB5EFD4F80838091D7
:102C8000380281115CCF81E08093130284EA809343
:102C9000BC001092390226CF85EC8093BC001092C4
:102CA00039028091D901803230F4E091D901F0E00D
:102CB000E754FE4F10826091D90170E0E091E80185
:102CC000F091E90189EB91E009951092D9010ACFC1
:102CD0001092370234CFCF93DF9310926602109296
:102CE000650288EE93E0A0E0B0E0809367029093E5
:102CF0006802A0936902B0936A022EE031E030933B
:102D000064022093630225EC30E03093700220933C
:102D10006F0224EC30E0309372022093710220ECB9
:102D200030E0309374022093730221EC30E0309352
:102D300076022093750222EC30E0309378022093E3
:102D4000770226EC30E030937A02209379021092D9
:102D50007C0210927D0210927E0210927F021092ED
:102D60000303109202038093040390930503A0933E
:102D70000603B093070380E291E0909301038093F0
:102D8000000310920F0310920E0382E391E09093E0
:102D90000D0380930C038CE38093100387E08093F2
:102DA00011038FE3809312038FE78093130380E076
:102DB00094E09093150380931403109216071092D9
:102DC000170710921807C1E0C093190788E0809395
:102DD0001A0710921C0710921B0710921E071092E0
:102DE0001D0710921F071092210782E0809322078F
:102DF00010922D071092810710928007109282077F
:102E0000109283071092840710928507109286070C
:102E1000109287071092680710926A07109269074C
:102E200010926C0710926B0710926D0710926E074C
:102E300010926F071092700710927107109272072C
:102E4000109273071092740710927507109276070C
:102E500010927707109278074FEF5FEFBA0189E77A
:102E600097E00E94040610927F0780E897E0909315
:102E7000500780934F0710925107109252071092FB
:102E8000530710925407C09355071092570710929A
:102E90005607109258071092590710925A0710922D
:102EA0005B0710925C0710925E0710925D0710920C
:102EB000600710925F0710926207109261071092EC
:102EC0006307109264071092650710926607C0931B
:102ED000670762E083E00E943E0462E082E00E94B5
:102EE0003E04E2E8F4E0E491F0E0EE0FFF1FEB585F
:102EF000FB4FA591B491B0933307A0933207E4E65A
:102F0000F4E0449140933607E1E8F4E0E491F0E026
:102F1000EE0FFF1FEB58FB4FC591D491D0933507AF
:102F2000C0933407E3E6F4E0E491E09337071092AE
:102F3000390710923A0710923B0710923C072BE397
:102F40003FE1C9010197F1F79C91842F892391E01A
:102F500009F490E08881E82309F0926022E337E0E9
:102F60009093380730933107209330078CEF99E026
:102F7000909303018093020180916900837F8460B4
:102F800080936900E99A81E080933D0730932F0791
:102F900020932E0786EF99E0909301018093000122
:102FA000809169008C7F816080936900E89A82E05B
:102FB00080933D0710923E0710923F071092400702
:102FC0001092410710924207109243071092440753
:102FD0001092450710924707109246071092480733
:102FE0008FE497E090934A078093490788E697E03B
:102FF00090934C0780934B0780E897E090934E079F
:1030000080934D07DF91CF910895CF93DF93CDB794
:10301000DEB7A1970FB6F894DEBF0FBECDBF789490
:1030200084B5826084BD84B5816084BD85B58260CD
:1030300085BD85B5816085BD80916E00816080937E
:103040006E001092810080918100826080938100E7
:1030500080918100816080938100809180008160F7
:10306000809380008091B10084608093B100809152
:10307000B00081608093B00080917A00846080937A
:103080007A0080917A00826080937A0080917A0041
:10309000816080937A0080917A00806880937A00C2
:1030A0001092C100E0917302F091740282E080837B
:1030B000E0916F02F09170021082E0917102F09144
:1030C00072028FEC808310927B02E0917702F09184
:1030D000780286E08083E0917502F091760280812B
:1030E00080618083E0917502F09176028081886032
:1030F0008083E0917502F091760280818068808300
:10310000E0917502F091760280818F7D808362E08C
:103110008AE00E943E0462E089E00E943E040E9430
:10312000E1078091800790918107009711F00E943C
:10313000532286E090E00E94B7218C0188E6F801D6
:10314000808380E093E092838183138280E290E029
:103150009583848310938107009380070E94E10781
:1031600081E0F8018383C8010E9409098111EEC042
:1031700063E973E083E692E00E94D30462E671E0C3
:1031800083E692E00E948A110E94191162E084E0B5
:103190000E943E0480913D07823008F0E2C0F8941E
:1031A00082E397E00E94B4098091390790913A0731
:1031B000A0913B07B0913C07789480933E07909391
:1031C0003F07A0934007B09341070E94C604609355
:1031D000420770934307809344079093450761E04B
:1031E0008CE00E943E0461E08BE00E943E0460E0BF
:1031F0008CE00E94100460E08BE00E94100464E107
:1032000070E080E090E00E9494041E01FAE02F0E2E
:10321000311C9E012D5E3F4F3F8B2E8BAE01405FD8
:103220005F4F598F488F8E010F5F1F4F8091480766
:10323000882309F44BC080913D07823008F093C089
:10324000F89482E397E00E94B40960913907709185
:103250003A0780913B0790913C07789424E030E056
:1032600040E050E00E94732069017A0180913E079E
:1032700090913F07A0914007B0914107C816D90629
:10328000EA06FB0619F188E89FEF58E8C5165FEFDC
:10329000D506E506F50664F03C2D2D2D89E7C81608
:1032A000D104E104F10414F038E720E0832F922FD9
:1032B00090934707809346070E94C712C0923E072B
:1032C000D0923F07E0924007F09241070E94C60467
:1032D00020916807222309F464C0C0906D07D09044
:1032E0006E07E0906F07F09070079B01AC012C19FE
:1032F0003D094E095F0969017A0130EDC31637E0D7
:10330000D306E104F10408F44CC060936D07709398
:103310006E0780936F079093700720916B07309131
:103320006C0720FD24C0C90197FD019661E081FD75
:103330001CC08CE00E94100480916B0790916C0778
:10334000019690936C0780936B072BC060E877E041
:10335000CE0101960E94540FCE0101960E94610792
:1033600013CFF89421CFF89470CF8BE0E3CF60E0D7
:103370008CE00E94100460E08BE00E9410048091B9
:103380006B0790916C07019697FD0196959587952F
:103390002091690730916A07821793076CF21092A7
:1033A000680784E00E94E703892B09F040C00E946F
:1033B000C604C0904207D0904307E0904407F090C5
:1033C00045076C197D098E099F096D327140810591
:1033D000910568F10E94C604609342077093430709
:1033E00080934407909345078091480781118AC0D4
:1033F0001092470710924607F894109239071092DE
:103400003A0710923B0710923C07789410923E07BF
:1034100010923F07109240071092410781E080937D
:10342000480780914607909147070E94C7128091F4
:103430005507882309F453C4809156079091570784
:10344000009709F4D6C28230910509F473C4833021
:10345000910509F4B7C0019709F0EDC122E0822E71
:10346000912C88E190E09D8F8C8FEDE5F7E0FB8F4C
:10347000EA8F0E94C604C0905807D0905907E09088
:103480005A07F0905B076C197D098E099F09653F0B
:1034900071408105910580F080915C0791E089275A
:1034A00080935C070E94C604609358077093590785
:1034B00080935A0790935B07C0905D07B0905E07BA
:1034C00050915F075E8F809160078F8F90916107A9
:1034D00098A3E0916207E9A380914F07909150076C
:1034E0000E94EC0F2B013C018091560790915707E9
:1034F0008130910509F071C080915C07811124C46D
:10350000D12C76C0F0904607A0904D07B0904E07A2
:10351000B501C1010E94540FC1010E9461078823B7
:10352000F1F0AF2DFF0CBB0B2CE330E00E9492209A
:103530006B017C01C1010E94B006AB01BC014C0DC6
:103540005D1D6E1D7F1DC8010E940406C8010E94FA
:103550006107882321F0B801C5010E943C10109238
:1035600048078091460790914707892BB9F00E9440
:10357000E411E0904B07F0904C0780914607909142
:103580004707181619067CF060E08CE00E941004D2
:1035900060E08BE00E941004F70110821092470750
:1035A0001092460744CFF7019283818314821382DD
:1035B00081E080830E94C604F70165837683878358
:1035C0009087ECCF912C812C2CE330E03D8F2C8F19
:1035D00041E657E05B8F4A8F4CCF8230910551F422
:1035E00080915C07F12C882309F4B0C3F2E0DF2E50
:1035F000F12C0BC0039709F083CF80915C07D12C8D
:10360000F12CA2E0EA2E811101C0E12CBF92CF92F1
:1036100071E9A72E71E0B72EBF92AF921F92E3E03F
:10362000CE2ECF92FF89FF932E892F930E94EA22FC
:103630003F8D3F934E8D4F93BF92AF921F92CF928B
:10364000598D5F93888D8F930E94EA2299A19F9351
:10365000E8A1EF93BF92AF921F92CF923F922F9229
:103660000E94EA220FB6F894DEBF0FBECDBFFF2046
:1036700011F080E28C8BDD2011F080E2898BEE204E
:1036800011F080E28B873F922F92398D3F93488DC6
:103690004F935F895F938E898F9385E691E09F9327
:1036A0008F931F9289E08F931F930F930E94EA22BA
:1036B0000E947A1152E0D52ED092190760E1E62ED1
:1036C000E0921A07E0E1F0E0F0931C07E0931B079B
:1036D00010921E0710921D0710921F07C8010E942A
:1036E000DF11FF24F394F092190788E080931A0702
:1036F0002CE030E030931C0720931B078CE190E016
:1037000090931E0780931D0784E080931F078EE629
:1037100091E00E94DF1120E230E04AE050E060E2F8
:1037200070E088E090E00E94AD0220E230E048E7DF
:1037300050E060E270E080E590E00E94AD022FE38F
:1037400030E048E050E060E270E088E090E00E9405
:10375000AD022FE330E048E750E060E270E088E738
:1037600090E00E94AD02D0921907E0921A0784E11E
:1037700090E090931C0780931B0789E290E0909360
:103780001E0780931D07F0921F070FB6F894DEBF47
:103790000FBECDBF20E030E0A901C301B2010E94FD
:1037A000AD2187FD04C089E491E00E94DF1142E071
:1037B000C301B2010E9448130E94730D84E690E099
:1037C00090931C0780931B0789E290E090931E075B
:1037D00080931D0781E080931F0785E891E00E9498
:1037E000DF112FE330E048E750E06FE370E088E05E
:1037F00090E00E94AD020E946D0A0E94C604C09033
:103800006307D0906407E0906507F09066076C1935
:103810007D098E099F09E0904F07F0905007693BA2
:103820007B4081059105D0F0B701C8010E94540F7B
:10383000C8010E94E51062E370E080E090E00E9421
:10384000940480E090E0892B09F4F0CC0E9461059B
:10385000882309F4EBCC0E940000E5CC89E00E94AB
:10386000E7039C0181E02115310509F080E0F701B3
:1038700087839091DE01232B09F0ACC0911114C015
:1038800080916707882309F499C01092670781E047
:103890008093DE010E94C6046093630770936407FF
:1038A0008093650790936607E0904F07F09050076C
:1038B0008AE00E94E70321E0009709F020E0F70189
:1038C0002683892B71F410925707109256070E9495
:1038D000C6046093630770936407809365079093B1
:1038E0006607E0904F07F090500789E00E94E703D9
:1038F00021E0009709F020E0F7012783892B09F0E8
:103900006FC08091DA019091DB01A091DC01B09150
:10391000DD01892B8A2B8B2B51F40E94C604609306
:10392000DA017093DB018093DC019093DD010E944A
:10393000C604C090DA01D090DB01E090DC01F09089
:10394000DD016C197D098E099F09693E734081056F
:10395000910508F470CF9092570780925607109205
:103960005C070E94C60460935807709359078093C0
:103970005A0790935B071092DA011092DB011092C4
:10398000DC011092DD011092DE010E94C6046093FA
:10399000630770936407809365079093660781E0DF
:1039A000809367078091560790915707892B09F0FC
:1039B00042CF60914F077091500737CFEA8DFB8D52
:1039C0008081918101966C8D7D8D0E943D20918337
:1039D00080835DCF992309F467CF1092DE0164CF15
:1039E0001092DA011092DB011092DC011092DD01DD
:1039F00022CF80914807882309F493C0809146071D
:103A0000909147070E94C71289E00E94E70321E0D6
:103A1000009709F020E020938707892B09F050C018
:103A200060914F0770915007C8010E94540FC80160
:103A30000E946107882389F141E050E050935707C5
:103A4000409356078C8190E090935E0780935D07CA
:103A50008D8190E09093600780935F078E8190E066
:103A600090936207809361070E94C6046093580791
:103A70007093590780935A0790935B0710925C07E5
:103A80000E94C60460936307709364078093650780
:103A90009093660781E0809367070E94C604609355
:103AA0005107709352078093530790935407809166
:103AB000550781110AC081E0809355070E941911B2
:103AC00080915507882309F4B6CE0E94C604C090A1
:103AD0005107D0905207E0905307F09054076C19AB
:103AE0007D098E099F0961367A4E8105910508F49A
:103AF000A2CE109255078091100391E090933F025F
:103B000080936102109240021092620280E80E944B
:103B1000020A8EEA0E94020A81E297E00E94150AD8
:103B20008ACE80916807882319F00E94E4116CCF37
:103B300060914F0770915007C1010E94540FC1015D
:103B40000E946107882309F4C1C080914F079091BA
:103B500050070E94EC0F6B017C018F851F928F93A1
:103B60008E851F928F938D851F928F9327E831E06A
:103B70003F932F931F9289E08F931F930F930E947F
:103B8000EA220E947A1132E0932E9092190740E1C6
:103B9000A42EA0921A0780E190E090931C078093D6
:103BA0001B0710921E0710921D0710921F07C801D5
:103BB0000E94DF11BB24B394B092190788E0809370
:103BC0001A07ECE0F0E0F0931C07E0931B078CE190
:103BD00090E090931E0780931D0784E080931F0759
:103BE0008EE691E00E94DF1120E230E04AE050E0F2
:103BF00060E270E088E090E00E94AD0220E230E0F8
:103C000048E750E060E270E080E590E00E94AD029D
:103C10002FE330E048E050E060E270E088E090E0C0
:103C20000E94AD022FE330E048E750E060E270E030
:103C300088E790E00E94AD0290921907A0921A07BF
:103C400084E190E090931C0780931B0789E290E049
:103C500090931E0780931D07B0921F070FB6F8942C
:103C6000DEBF0FBECDBF20E030E0A901C701B60125
:103C70000E94AD2187FD04C089E491E00E94DF111C
:103C800042E0C701B6010E9448130E94730D84E60A
:103C900090E090931C0780931B0789E290E090933B
:103CA0001E0780931D0781E080931F0785E891E040
:103CB0000E94DF112FE330E048E750E06FE370E04F
:103CC00088E090E00E94AD020E946D0A60E877E013
:103CD000C8010E94540FC8010E94F40695CE89E0E5
:103CE0000E94E70321E0009709F020E02093870776
:103CF000892BA1F40E94C604609351077093520768
:103D0000809353079093540780915507811193CD69
:103D100081E0809355070E9419118DCD8AE00E94A1
:103D2000E70321E0009709F020E020938607892B24
:103D300009F381CD93E0892E912C2CE330E03D8F67
:103D40002C8F4FE557E046CC82E0F82ED12C5DCC8D
:103D50000E94EA1E08F481E00895E89409C097FBE8
:103D60003EF490958095709561957F4F8F4F9F4F52
:103D70009923A9F0F92F96E9BB279395F695879596
:103D800077956795B795F111F8CFFAF4BB0F11F459
:103D900060FF1BC06F5F7F4F8F4F9F4F16C0882300
:103DA00011F096E911C0772321F09EE8872F762F36
:103DB00005C0662371F096E8862F70E060E02AF077
:103DC0009A95660F771F881FDAF7880F9695879563
:103DD00097F90895990F0008550FAA0BE0E8FEEF38
:103DE00016161706E807F907C0F012161306E407BF
:103DF000F50798F0621B730B840B950B39F40A26B8
:103E000061F0232B242B252B21F408950A2609F495
:103E1000A140A6958FEF811D811D08950E94211F4D
:103E20000C94921F0E94841F38F00E948B1F20F078
:103E3000952311F00C947B1F0C94811F11240C947A
:103E4000C61F0E94A31F70F3959FC1F3950F50E00A
:103E5000551F629FF001729FBB27F00DB11D639F3C
:103E6000AA27F00DB11DAA1F649F6627B00DA11DE2
:103E7000661F829F2227B00DA11D621F739FB00D88
:103E8000A11D621F839FA00D611D221F749F3327F8
:103E9000A00D611D231F849F600D211D822F762F91
:103EA0006A2F11249F5750409AF0F1F088234AF06E
:103EB000EE0FFF1FBB1F661F771F881F91505040DA
:103EC000A9F79E3F510580F00C947B1F0C94C61FF0
:103ED0005F3FE4F3983ED4F3869577956795B79561
:103EE000F795E7959F5FC1F7FE2B880F911D96957B
:103EF000879597F9089597F99F6780E870E060E0EB
:103F000008959FEF80EC089500240A941616170672
:103F100018060906089500240A94121613061406BA
:103F200005060895092E0394000C11F4882352F01D
:103F3000BB0F40F4BF2B11F460FF04C06F5F7F4FD5
:103F40008F4F9F4F089557FD9058440F551F59F0BC
:103F50005F3F71F04795880F97FB991F61F09F3F76
:103F600079F087950895121613061406551FF2CF9F
:103F70004695F1DF08C0161617061806991FF1CFEF
:103F800086957105610508940895E894BB27662716
:103F90007727CB0197F908950E940E20A59F900DD9
:103FA000B49F900DA49F800D911D112408952F9210
:103FB0003F924F925F926F927F928F929F92AF92B9
:103FC000BF92CF92DF92EF92FF920F931F93CF9306
:103FD000DF93CDB7DEB7CA1BDB0B0FB6F894DEBF9D
:103FE0000FBECDBF09942A88398848885F846E84C3
:103FF0007D848C849B84AA84B984C884DF80EE800D
:10400000FD800C811B81AA81B981CE0FD11D0FB615
:10401000F894DEBF0FBECDBFED010895A29FB001A1
:10402000B39FC001A39F700D811D1124911DB29FEC
:10403000700D811D1124911D0895991B79E004C014
:10404000991F961708F0961B881F7A95C9F78095D7
:104050000895AA1BBB1B51E107C0AA1FBB1FA617CF
:10406000B70710F0A61BB70B881F991F5A95A9F721
:1040700080959095BC01CD01089597FB072E16F40D
:10408000009407D077FD09D00E94292007FC05D0B5
:104090003EF4909581959F4F0895709561957F4F5F
:1040A0000895A1E21A2EAA1BBB1BFD010DC0AA1F79
:1040B000BB1FEE1FFF1FA217B307E407F50720F091
:1040C000A21BB30BE40BF50B661F771F881F991F0C
:1040D0001A9469F760957095809590959B01AC0155
:1040E000BD01CF010895052E97FB1EF400940E9498
:1040F0008A2057FD07D00E94512007FC03D04EF4C0
:104100000C948A2050954095309521953F4F4F4F04
:104110005F4F089590958095709561957F4F8F4F73
:104120009F4F08950E940E20B7FF0895821B930BA6
:104130000895EE0FFF1F0590F491E02D099450585B
:10414000BB27AA270E94B7200C94921F0E94841FAD
:1041500038F00E948B1F20F039F49F3F19F426F4A9
:104160000C94811F0EF4E095E7FB0C947B1FE92F64
:104170000E94A31F58F3BA176207730784079507B5
:1041800020F079F4A6F50C94C51F0EF4E0950B2EE3
:10419000BA2FA02D0B01B90190010C01CA01A00199
:1041A0001124FF27591B99F0593F50F4503E68F1F4
:1041B0001A16F040A22F232F342F4427585FF3CF35
:1041C000469537952795A795F0405395C9F77EF406
:1041D0001F16BA0B620B730B840BBAF09150A1F04F
:1041E000FF0FBB1F661F771F881FC2F70EC0BA0FD5
:1041F000621F731F841F48F4879577956795B7955D
:10420000F7959E3F08F0B0CF9395880F08F0992757
:10421000EE0F9795879508950E9420210C94921F88
:104220000E948B1F58F00E94841F40F029F45F3FCA
:1042300029F00C947B1F51110C94C61F0C94811F04
:104240000E94A31F68F39923B1F3552391F3951BA3
:10425000550BBB27AA2762177307840738F09F5FA7
:104260005F4F220F331F441FAA1FA9F335D00E2E14
:104270003AF0E0E832D091505040E695001CCAF781
:104280002BD0FE2F29D0660F771F881FBB1F261744
:1042900037074807AB07B0E809F0BB0B802DBF011B
:1042A000FF2793585F4F3AF09E3F510578F00C94EA
:1042B0007B1F0C94C61F5F3FE4F3983ED4F38695B2
:1042C00077956795B795F7959F5FC9F7880F911D0B
:1042D0009695879597F90895E1E0660F771F881FF7
:1042E000BB1F621773078407BA0720F0621B730BAA
:1042F000840BBA0BEE1F88F7E09508950E94AB1F60
:1043000088F09F5798F0B92F9927B751B0F0E1F096
:10431000660F771F881F991F1AF0BA95C9F714C046
:10432000B13091F00E94C51FB1E008950C94C51FF3
:10433000672F782F8827B85F39F0B93FCCF386957F
:1043400077956795B395D9F73EF4909580957095DC
:1043500061957F4F8F4F9F4F08950E94EA1E08F48A
:104360008FEF08950E94EA1E880B990B08950F9312
:104370001F93CF93DF938230910510F482E090E099
:10438000E0918A07F0918B0730E020E0B0E0A0E0F8
:10439000309799F42115310509F44AC0281B390BCF
:1043A00024303105D8F58A819B816115710589F129
:1043B000FB0193838283FE0111C040815181028100
:1043C000138148175907E0F04817590799F41097D7
:1043D00061F012960C93129713961C933296CF01AC
:1043E000DF91CF911F910F91089500938A07109349
:1043F0008B07F4CF2115310551F04217530738F0E0
:10440000A901DB019A01BD01DF01F801C1CFEF0174
:10441000F9CF90938B0780938A07CDCFFE01E20FEF
:10442000F31F819391932250310939832883D7CF89
:104430002091880730918907232B41F420910601B0
:104440003091070130938907209388072091040158
:10445000309105012115310541F42DB73EB740914A
:10446000080150910901241B350BE0918807F09158
:104470008907E217F307A0F42E1B3F0B2817390713
:1044800078F0AC014E5F5F4F2417350748F04E0FB0
:104490005F1F5093890740938807819391939FCF23
:1044A000F0E0E0E09CCFCF93DF930097E9F0FC01D0
:1044B000329713821282A0918A07B0918B07ED0187
:1044C00030E020E01097A1F420813181820F931F0A
:1044D00020918807309189072817390709F061C0B2
:1044E000F0938907E0938807DF91CF910895EA015F
:1044F000CE17DF07E8F54A815B819E014115510522
:10450000B1F7E901FB83EA8349915991C40FD51FA3
:10451000EC17FD0761F4808191810296840F951F4D
:10452000E90199838883828193819B838A83F0E068
:10453000E0E012968D919C9113970097B9F52D911B
:104540003C911197CD010296820F931F209188070D
:10455000309189072817390739F6309751F51092AD
:104560008B0710928A07B0938907A0938807BCCF66
:10457000D383C28340815181840F951FC817D90707
:1045800061F44E5F5F4F88819981480F591F5183B5
:1045900040838A819B81938382832115310509F0B1
:1045A000B0CFF0938B07E0938A079ECFFD01DC012B
:1045B000C0CF13821282D7CFDC0101C06D9341506E
:1045C0005040E0F70895FB01DC0101900D920020BE
:1045D000E1F70895AEE0B0E0E0EFF2E20C94E51F01
:1045E0000D891E898F89988D26E02C831A83098373
:1045F00097FF02C080E090E801979E838D83AE0113
:10460000455E5F4F698D7A8DCE0101960E941A2317
:104610004D815E8157FD0AC02F81388542175307AF
:104620000CF49A01020F131FF80110822E96E4E099
:104630000C940120ABE0B0E0E0E2F3E20C94D71F71
:104640007C013B018A01FC0117821682838181FF74
:10465000C8C1CE0101965C01F7019381F30193FD7E
:10466000859193FF81913F01882309F453C18532DD
:1046700039F493FD859193FF81913F01853229F4AF
:10468000B70190E00E940A25E7CF912C212C312C14
:10469000FFE1F31538F08B3211F190F4803209F11B
:1046A000833229F137FC3CC020ED280F2A3050F529
:1046B00036FE20C08AE0989E200D1124922E06C05E
:1046C0008D3291F0803371F7689430F8F30193FDE7
:1046D000859193FF81913F018111DACF21C06894C8
:1046E00031F8689432F8F2CF689433F8EFCF6894D9
:1046F00034F8ECCFEAE02E9E200D1124222E68948F
:1047000035F8E4CF8E3229F436FC04C1689436F8CB
:10471000DDCF8C3619F4689437F8D8CF8836B1F2EB
:10472000982F9F7D95549330E0F08336A1F1833725
:10473000C1F1833509F063C02801F2E04F0E511C2E
:10474000F801C080D180692D70E036FC02C06FEFA7
:104750007FEFC6010E94F4244C01689437F882016F
:104760000AC00C5F1F4FFFE3F98388248394912CC8
:104770006501E89437F833FE2DC0522C8114910462
:1047800071F5552009F468CFB70180E290E00E94EE
:104790000A255A94F6CFF801808189830E5F1F4F56
:1047A000E4CF2801F2E04F0E511CF801C080D18007
:1047B000692D70E036FC02C06FEF7FEFC6010E94EA
:1047C000FF244C018201D5CFB70180E290E00E9426
:1047D0000A252A942814190409F0B0F7CECFF6015F
:1047E00037FC859137FE81916F01B70190E00E94FF
:1047F0000A2551105A94F1E08F1A9108BFCF8436E0
:1048000019F0893609F077C0F80137FE6BC0608176
:104810007181828193810C5F1F4FF32DFF763F2EB4
:1048200097FF09C090958095709561957F4F8F4F48
:104830009F4F689437F82AE030E0A5010E943A259E
:10484000C82ECA188C2C432C36FE0CC0E89440F8B5
:10485000C91440F434FE05C032FC03C0F32DFE7EC3
:104860004F2E892C44FE95C0FE01EC0DF11D808178
:10487000803309F087C0242D297E422E842D887034
:10488000582E43FC95C040FE8FC09C2C821418F417
:104890002C0C922C981844FE91C0B70180E390E054
:1048A0000E940A2542FE09C088E790E041FE02C04E
:1048B00088E590E0B7010E940A25C91408F48AC06F
:1048C000CA94D12C9FEFC91AD90ACA0CDB1CF60175
:1048D00082916F01B70190E00E940A25AC14BD04DB
:1048E000B1F74FCF60817181072E000C880B990BB7
:1048F0000E5F1F4F92CFD32CE894D4F82AE030E01B
:10490000853739F1232D297FD22E8F3601F148F4D6
:104910008835A9F0F701868197812B96E2E10C9406
:10492000F31F803749F08837A9F7D4FE02C0689496
:10493000D2F820E130E00DC06894D4F8F6CF34FE10
:1049400003C0822F8660D82E20E132E002C028E02A
:1049500030E0F801D7FE0FC06081718182819381C0
:104960000C5F1F4FA5010E943A25C82ECA183D2C86
:10497000E89437F867CF6081718190E080E00E5F46
:104980001F4FF0CF42FC02C0839478CF839483946E
:1049900075CF842D867809F471CFF6CFB70180E208
:1049A00090E00E940A2583948214C0F3512C73CFA7
:1049B000522C5818821408F46ECFF8CF842D8678C4
:1049C00009F47BCF8BE241FE80E247FC8DE2B70128
:1049D00090E071CFB70180E390E00E940A259A949D
:1049E0006CCF8FEF9FEF99CFFC0105906150704025
:1049F0000110D8F7809590958E0F9F1F0895FC01A8
:104A00006150704001900110D8F7809590958E0FFD
:104A10009F1F08950F931F93CF93DF93182F092F94
:104A2000EB018B8181FD09C01FEF0FEF812F902FCC
:104A3000DF91CF911F910F91089582FF14C02E81B5
:104A40003F818C819D81281739073CF4E881F981E9
:104A5000CF0101969983888310838E819F8101966F
:104A60009F838E83E3CFE885F985812F0995892B74
:104A7000A1F3DACFFA01AA27283051F1203181F1D0
:104A8000E8946F936E7F6E5F7F4F8F4F9F4FAF4F56
:104A9000B1E03ED0B4E03CD0670F781F891F9A1F69
:104AA000A11D680F791F8A1F911DA11D6A0F711D1D
:104AB000811D911DA11D20D009F468943F912AE029
:104AC000269F11243019305D3193DEF6CF01089511
:104AD000462F4770405D4193B3E00FD0C9F7F6CF42
:104AE000462F4F70405D4A3318F0495D31FD40520A
:104AF000419302D0A9F7EACFB4E0A69597958795A0
:104B000077956795BA95C9F700976105710508957E
:104B10009B01AC010A2E069457954795379527952A
:104B2000BA95C9F7620F731F841F951FA01D0895C2
:044B3000F894FFCF27
:104B3400D204D20400008C07800000000000970516
:104B4400F7042405E4055505330547050000000076
:104B540085095809700D2E0951093E092F090000D5
:104B64000000070BF704700D6F0DD09ED0B1D180FB
:104B7400D0BED0B1D0BAD0B0002B002573256400CC
:104B8400D185D0B22E006E616E00696E66006F76BC
:104B940066000D0A0025733A25733A257300D0A2E6
:104BA400D0B5D0BCD0BFD0B5D180D0B0D182D18364
:104BB400D180D0B0004300253032643A25303264CD
:064BC4003A2530326400C6
:00000001FF
