:100000000C944B020C94E9150C94C2150C947302D9
:100010000C9473020C9473020C9473020C9473028C
:100020000C9473020C9473020C9473020C9473027C
:100030000C9473020C9473020C9473020C9473026C
:100040000C9478150C9473020C9436160C941016BC
:100050000C9473020C9473020C9473020C9473024C
:100060000C9468160C947302000000000000006FEE
:1000700000000007000700147F147F148C92FF9289
:1000800062231308646236495620500000070000BE
:10009000001C2241000041221C0014083E081408E4
:1000A000083E0808005030000008080808080060F2
:1000B00060000020100804023E5149453E00427F86
:1000C000400042615149462141454B311814127F8D
:1000D0001027454545393C4A494930017109050316
:1000E0003649494936064949291E0036360000007E
:1000F0005636000008142241001414141414004150
:1001000022140802015109063E415D494E7E09094B
:10011000097E7F494949363E414141227F41414163
:100120003E7F494949417F090909013E4149497AD0
:100130007F0808087F00417F41002040413F017F48
:10014000081422417F404040407F020C027F7F0420
:1001500008107F3E4141413E7F090909063E415159
:10016000215E7F09192946464949493101017F012C
:10017000013F4040403F0F3040300F3F4030403F54
:100180006314081463070870080761514945430068
:10019000007F4100020408102000417F000004029B
:1001A0000102044040404040000003040020545439
:1001B00054787F48444438384444442038444448C0
:1001C0007F3854545418087E0901020C5252523E92
:1001D0007F0804047800447D40002040443D000036
:1001E0007F10284400417F40007C041804787C087C
:1001F00004047838444444387C1414140808141453
:10020000187C7C080404084854545420043F44409B
:10021000203C4040207C1C2040201C3C4030403C86
:1002200044281028440C5050503C4464544C440022
:100230000836414100007F000041413608000402B9
:100240000408047E1111117E7F494949337F4949D1
:1002500049367F01010103E0514F41FF7F49494980
:100260004177087F087741494949367F1008047F64
:100270007C2112097C7F0814224120413F017F7FAD
:10028000020C027F7F0808087F3E4141413E7F010A
:1002900001017F7F090909063E4141412201017F99
:1002A000010147281008071C227F221C6314081430
:1002B000637F404040FF070808087F7F407F407F02
:1002C0007F407F40FF017F4848307F4830007F00FB
:1002D0007F484830224149493E7F083E413E4629F9
:1002E00019097F20545454783C4A4A49317C54546B
:1002F00028007C04040C00E0544C44FC3854545452
:10030000186C107C106C44545428007C2010087C1D
:1003100078422412787C1028440020443C047C7CE1
:100320000810087C7C1010107C38444444387C044D
:1003300004047C7C14141408384444440004047CF1
:1003400004040C5050503C3048FE483044281028DB
:10035000447C40407CC00C1010107C7C407C407C75
:100360007C407C40FC047C5050207C5050207C7CA5
:100370005050200028445454387C103844380854D5
:1003800034147C38555455181F1C1F1E1F1E1F1F68
:100390001E1F1E525443206572720000000000248C
:1003A0000027002A0000000000250028002B000084
:1003B0000000080002010000030407000000000024
:1003C000000000D0A3D181D182D0B0D0B2D0BAD0B9
:1003D000B000000000000080C0C0E0F0707030305D
:1003E0003020000000000000C0E0F0F0703030204D
:1003F0000000003078FC7F3F0F0F1F3C78F0E0C01A
:1004000080808040E0F0F8FCFF7F33131E1C1C0E40
:100410000700000000000000000080C0E0F0F9F7D5
:10042000EF5F3F7FFEFDFBF1E0C0800000000000B9
:10043000000000000000000C1E33331F0F070301F3
:1004400000000000000103070F1F3F1F0E04000003
:100450000000AED5808D142001A1C8817FDB40A6AD
:10046000AF0102040810204080010204081020019E
:1004700002040810200000000023002600290004C8
:10048000040404040404040202020202020303033B
:1004900003030300871711241FBECFEFD8E0DEBF90
:1004A000CDBF27E0ACE8B1E001C01D92A238B20791
:1004B000E1F711E0A0E0B1E0E8E4F9E402C0059062
:1004C0000D92AC38B107D9F712E0CBE4D2E004C00A
:1004D0002197FE010E941520CA34D107C9F70E9456
:1004E0002B190C94A2240C940000089508952091D7
:1004F00004032817190670F1209103032617170625
:1005000048F110920D0710920C0710920F071092ED
:100510000E07FB0123E0F595E7952A95E1F733E017
:10052000880F991F3A95E1F7E80FF91F6770772751
:1005300081E090E0A0E0B0E004C0880F991FAA1FFE
:10054000BB1F6A95D2F7E350FD4F442321F022856B
:10055000822B82870895809592858923FACF2F92E6
:100560003F924F925F926F927F928F929F92AF9243
:10057000BF92CF92DF92EF92FF920F931F93CF9390
:10058000DF9300D000D0CDB7DEB79C838B837B0197
:100590008A01690110920D0710920C0710920F0743
:1005A00010920E078417950709F051C026173707D8
:1005B00024F08D2D6B01E22EF82E809104032B8107
:1005C0003C8182171306BCF40F900F900F900F9090
:1005D000DF91CF911F910F91FF90EF90DF90CF901F
:1005E000BF90AF909F908F907F906F905F904F9053
:1005F0003F902F900895CE14DF04E1F441E0B6015E
:100600008B819C810F900F900F900F90DF91CF9175
:100610001F910F91FF90EF90DF90CF90BF90AF9020
:100620009F908F907F906F905F904F903F902F9012
:100630000C947702EC14FD043CF241E0B6018B818E
:100640009C810E9477022FEFC21AD20AF3CF621761
:100650007307E9F58B819C81481759072CF0812F8E
:100660000B811C814B838C83809103038E151F04A7
:100670000CF4AACF2B813C810217130721F441E02F
:10068000B701C801BFCF8091040390E080179107A4
:100690000CF48C0117FF02C010E000E02B813C81BC
:1006A0002F5F3F4F3A8329838217930714F49A836D
:1006B000898389819A81081719070CF085CF41E059
:1006C000B701C8010E9477020F5F1F4FF2CF2A01C6
:1006D0002B813C81421A530A57FE03C05194419426
:1006E000510836016E187F0877FE03C0719461943B
:1006F00071088B819C8122242394312C80179107CF
:100700001CF022242A94322CEC14FD0494F521E0F0
:1007100030E03A832983420186189708AA24BB2433
:10072000A618B70841E0B7018B819C810E9477022F
:100730002B813C810217130721F4CE14DF0409F446
:1007400043CFC401880F991FA816B9065CF4861818
:1007500097082B813C81220D331D3C832B8384150C
:10076000950504F7840C951C89819A81E80EF91E81
:10077000D9CF8FEF9FEF9A838983CDCF833081F0DC
:1007800028F4813099F08230A9F008958730A9F0DB
:100790008830C9F08430B1F4809180008F7D03C02F
:1007A000809180008F7780938000089584B58F7743
:1007B00084BD089584B58F7DFBCF8091B0008F7785
:1007C0008093B00008958091B0008F7DF9CFCF93D2
:1007D000DF93282F30E0F901E155FC4F8491F901B6
:1007E000EF59FB4FD491F901E158FB4FC491CC2351
:1007F000A1F081110E94BE03EC2FF0E0EE0FFF1F6D
:10080000EB58FB4FA591B491EC91ED2381E090E082
:1008100009F480E0DF91CF91089580E090E0FACF75
:100820001F93CF93DF93282F30E0F901E155FC4F60
:100830008491F901EF59FB4FD491F901E158FB4F35
:10084000C491CC23A9F0162F81110E94BE03EC2F76
:10085000F0E0EE0FFF1FEB55FC4FA591B4918FB761
:10086000F894EC91111108C0D095DE23DC938FBF72
:10087000DF91CF911F910895DE2BF8CFCF93DF93B7
:1008800090E0FC01EF59FB4F249181589B4FFC01F4
:1008900084918823D1F090E0880F991FFC01E556E0
:1008A000FC4FA591B491FC01EB55FC4FC591D4913F
:1008B000623071F49FB7F8943C91822F8095832326
:1008C0008C93E8812E2B28839FBFDF91CF910895D1
:1008D0008FB7F894EC912E2B2C938FBFF6CF3FB7A8
:1008E000F8948091D5019091D601A091D701B09153
:1008F000D80126B5A89B05C02F3F19F00196A11D70
:10090000B11D3FBFBA2FA92F982F8827BC01CD0159
:10091000620F711D811D911D42E0660F771F881FB8
:10092000991F4A95D1F708958F929F92AF92BF92E7
:10093000CF92DF92EF92FF924B015C010E946F0415
:100940006B017C010E946F046C197D098E099F095F
:10095000683E734081059105A8F321E0821A910851
:10096000A108B10888EEC80E83E0D81EE11CF11C76
:1009700081149104A104B10429F7FF90EF90DF9056
:10098000CF90BF90AF909F908F9008952FB7F8941D
:100990006091D1017091D2018091D3019091D401E5
:1009A0002FBF08950895EF92FF920F931F93CF9357
:1009B000DF938C017B01D0E0C0E0F701EC0FFD1F5D
:1009C0006491662361F0D801ED91FC910190F08172
:1009D000E02DC8010995892B11F02196EECFCE01AB
:1009E000DF91CF911F910F91FF90EF900895AF92FB
:1009F000BF92CF92DF92EF92FF920F931F93CF930C
:100A0000DF936C017B018B01040F151FEB015E016D
:100A1000AE18BF08C017D10759F06991D601ED9102
:100A2000FC910190F081E02DC6010995892B79F7A1
:100A3000C501DF91CF911F910F91FF90EF90DF9053
:100A4000CF90BF90AF900895FC01538D448D252F1A
:100A500030E0842F90E0821B930B541710F0CF9658
:100A6000089501970895FC01918D828D981761F08A
:100A7000A28DAE0FBF2FB11D5D968C91928D9F5FA1
:100A80009F73928F90E008958FEF9FEF0895FC0180
:100A9000918D828D981731F0828DE80FF11D858D33
:100AA00090E008958FEF9FEF0895FC01918D228DC6
:100AB000892F90E0805C9F4F821B91098F7399274B
:100AC000089584E592E00E94550521E0892B09F400
:100AD00020E0822F089580E090E0892B29F00E9489
:100AE000610581110C9400000895FC01A48DA80FEC
:100AF000B92FB11DA35ABF4F2C91848D90E0019660
:100B00008F739927848FA689B7892C93A089B1897F
:100B10008C91837080648C93938D848D981306C020
:100B20000288F389E02D80818F7D80830895EF9284
:100B3000FF920F931F93CF93DF93EC0181E0888F97
:100B40009B8D8C8D98131AC0E889F989808185FF67
:100B500015C09FB7F894EE89FF896083E889F98909
:100B600080818370806480839FBF81E090E0DF910B
:100B7000CF911F910F91FF90EF900895F62E0B8D5E
:100B800010E00F5F1F4F0F731127E02E8C8D8E1119
:100B90000CC00FB607FCFACFE889F989808185FF80
:100BA000F5CFCE010E947505F1CFEB8DEC0FFD2F37
:100BB000F11DE35AFF4FF0829FB7F8940B8FEA893B
:100BC000FB8980818062CFCFCF93DF93EC01888D4A
:100BD0008823B9F0AA89BB89E889F9898C9185FDB8
:100BE00003C0808186FD0DC00FB607FCF7CF8C9146
:100BF00085FFF2CF808185FFEDCFCE010E94750584
:100C0000E9CFDF91CF9108958F929F92AF92BF92DB
:100C1000CF92DF92EF92FF92CF93DF93EC016A01C4
:100C20007B0180E8C81A83E4D80A8DE6E80A88E3E5
:100C3000F80A8CE3882E912CA12CB12CC701B601A7
:100C4000A50194010E94CD1F6D83CA01B901A501C0
:100C500094010E94CD1F6C83C701B60120E13EE0E4
:100C600040E050E00E94CD1FCA01B90128E130E008
:100C700040E050E00E94CD1F6B83C701B60120E821
:100C800031E541E050E00E94CD1F188263E97EEF1C
:100C90008881982F937041E050E011F050E040E0DF
:100CA000FA01E359FE4F2E173F0740F0FB01E41B0A
:100CB000F50B2E0F3F1F8F5F8883EACF81E089837A
:100CC00089818C30A0F4482F4150550BFA01E85728
:100CD000FC4FE491911103C0823009F4EF5FF0E022
:100CE0002E173F0720F02E1B3F0B8F5FE8CF2F5FA3
:100CF0002A83DF91CF91FF90EF90DF90CF90BF904C
:100D0000AF909F908F900895DC0150E0E8E8F3E009
:100D100081E0861730F49491490F511D8F5F319611
:100D2000F8CF633038F0CD0183709927892B11F407
:100D30004F5F5F4F9D012D5F3F4F3695279536954D
:100D400027956DE671E0A69FC001A79F900DB69F05
:100D5000900D11240197820F931F840F951F089502
:100D6000EF92FF920F931F93CF93DF93EC01888153
:100D70004A81698190E00E9484069C01A8E1B0E06C
:100D80000E948A1F2B817B018C01E20EF11C011D48
:100D9000111DA8019701ACE3B0E00E94481F2C810F
:100DA0007B018C01E20EF11C011D111DA8019701B0
:100DB0000E94481FAB01BC019D81892F90E0B0E0EB
:100DC000A0E080589C4BA249B74C8A019B01080FB8
:100DD000191F2A1F3B1FC901B801DF91CF911F9135
:100DE0000F91FF90EF9008950F931F93CF93DF9390
:100DF00000D000D000D0CDB7DEB7FC012081243672
:100E000010F58C010E94B006AB01BC01CE01019629
:100E10000E940406F80190818981981314C0918181
:100E20008A81981310C092818B8198130CC0938192
:100E30008C81981308C094818D81981304C081E03F
:100E400025819E81291380E026960FB6F894DEBF97
:100E50000FBECDBFDF91CF911F910F9108952091CB
:100E6000AD01260F3327331F21323105ECF42091D9
:100E70002A02FC0190E080E0243069F082E00895CD
:100E8000A091AD012191AC0143575E4FA40FB52F46
:100E9000B11D2C930196861798F38091AD01680FD0
:100EA0006093AD0180E0089581E0089510922A02D8
:100EB00081E0809329021092040261E082E10E94A5
:100EC000100461E083E10E941004E9EBF0E080810E
:100ED0008E7F808380818D7F808388E48093B800BB
:100EE00085E48093BC0008951092E3011092E20122
:100EF00010923102109253020E94560785E792E049
:100F00009093E1018093E00186E792E09093DF0106
:100F10008093DE010895CF93DF9391E090938C014D
:100F20008823B9F0C091B800D091BA008091BC007C
:100F30008A7B8093BC0060E082E10E94100460E044
:100F400083E10E9410040E945607D093BA00C09318
:100F5000B800DF91CF9108958F929F92AF92BF9288
:100F6000CF92DF92EF92FF920F931F93CF93DF9375
:100F7000D0915302D13208F0D7C0182FC09152023D
:100F80000E946F046B017C0180912A0281116BC069
:100F900082E080932A02109329028FEF8093280227
:100FA00010922702D0932602A2E3B2E0E6E0F2E03C
:100FB00080E0D81391C01092050280910502CC0FF9
:100FC000C82BC093050280910402813009F088C0CB
:100FD000109204020E946F046B017C018091050253
:100FE0008093BB0080912C0290912D02A0912E0243
:100FF000B0912F02892B8A2B8B2BA1F00E946F04BA
:1010000000912C0210912D0220912E0230912F027E
:101010006C197D098E099F090617170728073907DC
:1010200008F442C08091BC0083FDD8CF85EC80934A
:10103000BC000E946F046B017C0180912A02823007
:1010400009F450C0809128028F3F09F46FC080914D
:101050002802803209F46CC080912802803309F4A0
:1010600069C084E026C080912C0290912D02A0914D
:101070002E02B0912F02892B8A2B8B2B09F484CF5F
:101080000E946F0480902C0290902D02A0902E025E
:10109000B0902F026C197D098E099F09861697065C
:1010A000A806B90608F070CF80912B020E948B072A
:1010B00085E0109231021092530210923002DF91BB
:1010C000CF911F910F91FF90EF90DF90CF90BF9045
:1010D000AF909F908F9008959D9191938F5F69CF6E
:1010E00085EEA5CF80912C0290912D02A0912E0229
:1010F000B0912F02892B8A2B8B2B09F49ECF0E9453
:101100006F0400912C0210912D0220912E0230913B
:101110002F026C197D098E099F09061717072807EA
:10112000390708F08ACFC0CF81E0C3CF80E0C1CFBC
:1011300082E0BFCF83E0BDCFCF93DF93EC018B8103
:101140008823A1F0888191E090933002809352022D
:10115000109231021092530281E00E94AC0791E09C
:10116000811190E0892FDF91CF9108950E9474073B
:1011700081E08B83CE010E949C08982F8111E2CFE1
:10118000F1CF0895E091E3018091E201E81730F496
:10119000F0E0EC51FE4F808190E008958FEF9FEFDB
:1011A00008959091E3018091E2012FEF3FEF9817AE
:1011B00048F4E92FF0E0EC51FE4F208130E09F5FD2
:1011C0009093E301C90108958091E2019091E301B8
:1011D000891B990B0895CF92DF92EF92FF920F93A4
:1011E0001F93CF93DF937C01CB018A0120913002C2
:1011F000222389F0EB016B01C40ED51ECC15DD0551
:1012000069F06991D701ED91FC910190F081E02D99
:10121000C7010995F3CF642F0E942F07C801DF9102
:10122000CF911F910F91FF90EF90DF90CF90089595
:10123000CF93DF931F92CDB7DEB769832091300241
:101240002223F9F020915302203258F021E030E0BF
:10125000FC013383228390E080E00F90DF91CF91F7
:10126000089580913102E82FF0E0EE5CFD4F998106
:1012700090838F5F809331028093530281E090E0EE
:10128000ECCF61E0CE0101960E942F07F7CF60E01E
:101290008BE00E94100461E08CE00C9410048F92AB
:1012A0009F92AF92BF92CF92DF92EF92FF92CF9335
:1012B000DF93EC010E94C6046B017C018D818111DA
:1012C0002BC0CE010E94B0064B015C018FE697E077
:1012D0000E94B006861A970AA80AB90A8CE38816F3
:1012E0009104A104B104C4F0C0926B07D0926C07C2
:1012F000E0926D07F0926E0786E0FE01AFE6B7E080
:1013000001900D928A95E1F78C8180FF31C00E9497
:10131000470981E080937507809175078823E9F07C
:1013200080916B0790916C07A0916D07B0916E074B
:10133000C81AD90AEA0AFB0A80EDC81687E0D8065F
:10134000E104F10450F060E08CE00E94100460E0E1
:101350008BE00E94100410927507DF91CF91FF90EF
:10136000EF90DF90CF90BF90AF909F908F900895B7
:1013700060E08CE00E94100461E08BE00E941004A9
:10138000C8CFDC01ED91FD918081ED91FD919081BF
:10139000ED91FD916C9163708E2309F064609F2341
:1013A00009F06860EEEDF9E0E60FF11D65956595D1
:1013B0006D936D917D918D919D91099423C01AC07B
:1013C00012C016C010C01EC009C014C013C006C091
:1013D00019C009C00DC007C00DC014C062507040D4
:1013E000804090400BC0615070408040904006C0EB
:1013F0006E5F01C06F5F7F4F8F4F9F4F9E938E93A5
:101400007E936E93089580911F07909120070C940E
:10141000C10980912107909122070C94C109682F7E
:1014200081EF92E00C9418098091010391E0909370
:10143000300280935202109231021092530280E0E7
:101440000C940F0ACF93DF93EC0181E00E94AC076C
:10145000188283E090E00197F1F7DF91CF91089532
:101460000F931F93CF93DF938C01EB010E94140A1B
:1014700081E20E940F0A80E00E940F0A809104031B
:1014800090E0081719070CF4C8010E940F0A82E2C5
:101490000E940F0A80E00E940F0A8091020390E0F0
:1014A000C817D9070CF4CE010E940F0A82E197E019
:1014B000DF91CF911F910F910C94220A0E940F0A85
:1014C000809112078F5F80931207803190F082E144
:1014D00097E00E94220A8091010391E090933002EC
:1014E00080935202109231021092530280E40C94C5
:1014F0000F0A0895CF93DF936091020370E080910B
:10150000040390E00E94300A8091010391E09093DF
:10151000300280935202109231021092530280E402
:101520000E940F0AC7E0D3E089910E945E0A87E01B
:10153000C730D807C9F782E197E0DF91CF910C94CB
:10154000220A0F931F930130110559F10230110542
:1015500009F44AC0012B11F5FC01E15FFB4F01903A
:10156000F081E02D2E0F3F2F311DB3E0220F331FEE
:10157000BA95E1F7FC01EF5EFB4F0190F081E02DA1
:1015800013E0F595E7951A95E1F7E20FF31FE40FE5
:10159000F11DE80FF91F8285682B62871F910F915B
:1015A0000895FC01E15FFB4F0190F081E02D2E0FCB
:1015B0003F2F311DE3E0220F331FEA95E1F7FC01D5
:1015C000EF5EFB4F0190F081E02DA3E0F595E795EC
:1015D000AA95E1F7E20FF31FE40FF11DE80FF91FE1
:1015E000609582856823D9CFFC01E15FFB4F0190B4
:1015F000F081E02D2E0F3F2F311D53E0220F331FBE
:101600005A95E1F7FC01EF5EFB4F0190F081E02D70
:1016100073E0F595E7957A95E1F7820F931FE80F50
:10162000F91FE40FF11DB9CF2F923F924F925F92B5
:101630006F927F928F929F92AF92BF92CF92DF92E2
:10164000EF92FF920F931F93CF93DF93CDB7DEB747
:1016500067970FB6F894DEBF0FBECDBF9F8B8E8B02
:10166000F62EFC01E25FFB4F208130E03396845F71
:101670009B4F6C014DE064133DC08E899F89815F53
:101680009B4FDC011D921C9281E0F12C4E895F89F9
:10169000455F5B4FDA016C916623D1F14E895F891A
:1016A000435F5B4FDA019C910E891F89015F1B4FDD
:1016B000D8014D915C91B6E09B9F400D511D1124C6
:1016C000AE89BF8917969C919417150609F004F509
:1016D00080819181D8011D921C92820F931F91836A
:1016E00080834E895F894D5E5B4F80818770DA0110
:1016F0008C9310C0BAE080E06B13C8CF80819181D9
:10170000820F931F9183808381E0D6018C93BDCF9C
:101710008111E7CF80819181280F391FEE89FF89E0
:10172000868190E00196821793070CF4F12CD60184
:101730008C91882359F1662349F1B0E2FB1226C04F
:10174000EE89FF89E15FFB4F80819181892B09F050
:1017500048C0F601108281E090E067960FB6F894D9
:10176000DEBF0FBECDBFDF91CF911F910F91FF90D4
:10177000EF90DF90CF90BF90AF909F908F907F9031
:101780006F905F904F903F902F900895F7FE50C05C
:10179000EE89FF89EC5EFB4F2FEB2F15C0F08081A7
:1017A000813D39F431E9F31241C0F082E0ECFE2EC4
:1017B00018C0803D39F441E8F41238C0F082F5E9F0
:1017C000FF2E0FC0823E29F450E8F5122FC0F082A0
:1017D000C2CF803859F564E9F61228C0F082ADE234
:1017E000FA2E8E899F89815F9B4F9A838983DC01C2
:1017F0002D913C91EE89FF89E35FFB4FFB87EA87E0
:101800008081A90166E0869F400D511D1124CA0107
:1018100057FD07C0AE89BF8917964C914217130632
:101820005CF4E981FA819183808395CFF082D9CFEE
:10183000FF2009F490CFD5CFF0EEFF0DF9878F2F61
:1018400090E0AC014150510925E0249FB001259F53
:10185000700D11247F876E8760557109798B688BB5
:101860008F96289FD001299FB00D1124BD87AC878A
:10187000AB5EB109BB8BAA8BD12CC12CEA85FB8551
:10188000FC83EB832E893F892D5E3B4F3E832D8366
:101890004E895F894A5E5B4F58874F8355E060E011
:1018A000C516B9F06985EA89FB89603668F080E879
:1018B0008F0DEC85FD85803138F07985E889F989CF
:1018C000703A10F0EE85FF85E859FF4FEC0DFD1DD5
:1018D0006491EE89FF89E65FFB4F808181116095FD
:1018E000AB81BC819C91913009F053C0EE89FF8996
:1018F000E15FFB4F8081918197FD35C0EE89FF89C3
:101900002781281719067CF1AD81BE818C91EF816A
:10191000F885008110E020E040E0882301F1A62E48
:10192000B12CB50101C0660F8A95EAF720E040E0CE
:101930008E899F890E94A10AAF81B8850C9110E021
:10194000ED81FE81808128E030E0281B3109B5015E
:1019500002C0759567952A95E2F720E041E08E89EF
:101960009F890E94A10AEA85FB858081A981BA81AD
:101970002D913C911197820F932F911D8D939C93E4
:10198000BFEFCB1ADB0AE6E0CE16D10409F086CF12
:10199000E2CE30E020E080E0812C912C5401E62F53
:1019A000F0E0AF01022E02C0559547950A94E2F788
:1019B00041705527692F680F8617F1F0412C512C83
:1019C00032014394082E04C0440C551C661C771C3D
:1019D0000A94D2F74115510531F084289528A6289C
:1019E000B7288F5FE9CF409450946094709484201E
:1019F0009520A620B720F5CF2F5F3F4F2830310527
:101A000081F6312C4E895F89415F5B4F5D8B4C8B3A
:101A1000AC89BD898D919C91EB81FC81208132162E
:101A200008F0A1CF830D911D97FD47C0AE89BF89F6
:101A300017962C91281719060CF43FC0212CE12C85
:101A4000ED81FE812081AB81BC818C912816B0F59F
:101A5000B8E02B9EC00111242401350104C0769406
:101A60006794579447948A95D2F7EF81F88500815F
:101A700010E0211109C0232D422D642D8E899F89EC
:101A80000E94A10A2394DCCF6E2D70E088E090E0E4
:101A9000821B910902C0759567958A95E2F7842D9E
:101AA00001C0880F2A95EAF7682B232D422D8E89D5
:101AB0009F890E94A10AE42CE5CFE12CAD81BE8173
:101AC0008C918823B9F0EF81F885008110E06E2DAC
:101AD00070E028E030E0281B310902C07595679559
:101AE0002A95E2F7232DAB81BC814C918E899F8989
:101AF0000E94A10A33948CCF089590E080E008956D
:101B00002F923F924F925F926F927F928F929F920D
:101B1000AF92BF92CF92DF92EF92FF920F931F93FB
:101B2000CF93DF935C011B016A01F12CE12CD501FD
:101B300014968D919C9186010E191F0980179107AB
:101B400008F48C01F501D0810E946F042B013C0147
:101B500080912A02811172C0C02F013208F0C0E2C8
:101B6000F1E0F0932A0221E0C601801B910BE816F8
:101B7000F90608F420E0209329028FEF80932802D1
:101B8000109227028C0F80932602A1E0A0930502F9
:101B900080910502DD0FD82BD093050280910402BD
:101BA000813009F090C0109204020E946F042B0152
:101BB0003C01809105028093BB0080912C029091A2
:101BC0002D02A0912E02B0912F02892B8A2B8B2BF4
:101BD000A1F00E946F0420912C0230912D024091BF
:101BE0002E0250912F02641975098609970926174C
:101BF00037074807590708F442C08091BC0083FDAD
:101C0000D8CFB5ECB093BC000E946F042B013C010F
:101C100080912A02813009F45AC0809127028C17E2
:101C200010F4C0912702A6E0B2E0E4EEF1E080E01B
:101C30008C1751F19D9191938F5FFACF80912C0277
:101C400090912D02A0912E02B0912F02892B8A2B08
:101C50008B2B09F47DCF0E946F0420912C023091D0
:101C60002D0240912E0250912F02641975098609A8
:101C70009709261737074807590708F069CF809159
:101C80002B020E948B07C0E01092E301C093E20197
:101C9000C017110609F057C041018E0C9F1CE401CA
:101CA000CE01881999098017910798F5D5011196E9
:101CB0008D919C91DC01ED91FC910284F385E02DE6
:101CC00009958993EDCFE5EEE093BC009DCF80911F
:101CD0002C0290912D02A0912E02B0912F02892BFF
:101CE0008A2B8B2B09F494CF0E946F0420912C0235
:101CF00030912D0240912E0250912F0264197509E6
:101D000086099709261737074807590708F080CF33
:101D1000B6CFE00EF11EEC14FD0408F408CF81E00C
:101D2000DF91CF911F910F91FF90EF90DF90CF90B7
:101D3000BF90AF909F908F907F906F905F904F90EB
:101D40003F902F90089580E0EBCF1F93CF93DF93C8
:101D5000DC011496ED91FC91E417F50710F490E086
:101D60001FC0122FEA01FC0181819281208131E0A4
:101D7000309330022093520210923102109253029B
:101D8000DC01ED91FC910280F381E02D0995C817EB
:101D9000D90729F7812F0E94AC0791E08111DFCF8D
:101DA000892FDF91CF911F910895EF92FF920F93AA
:101DB0001F93CF93DF9300D000D000D01F92CDB7F8
:101DC000DEB78C011982DB01ED90FC9020E041E050
:101DD00050E0BE016F5F7F4FC7010E94A50E8823B0
:101DE00041F047E050E0BE016F5F7F4FC7010E94A6
:101DF000800DE981EF77FA81FB805D814E814F771D
:101E00008F81282F30E094E0359527959A95E1F75A
:101E1000922F990F990F291B220F280FD8012C936D
:101E2000842F90E024E0959587952A95E1F7982FE7
:101E3000990F990F891B880F840F11968C93119716
:101E4000652F70E034E0759567953A95E1F7862F38
:101E5000880F880F681B660F650F12966C93129798
:101E60004F2D50E064E0559547956A95E1F7842F32
:101E7000880F880F481B440F4F0D13964C931397F0
:101E80002F2F30E074E0359527957A95E1F7822F72
:101E9000880F880F281B220F2F0F14962C9314974E
:101EA0008E2F90E0F4E095958795FA95E1F7982FBD
:101EB000990F990F891B880F8E0F15968C93C80167
:101EC00027960FB6F894DEBF0FBECDBFDF91CF913E
:101ED0001F910F91FF90EF900895CF92DF92EF92B4
:101EE000FF920F931F93CF93DF9300D0CDB7DEB750
:101EF00021E129831A82FC010081118120E041E067
:101F000050E0BE016F5F7F4FC8010E94A50E88237D
:101F100041F042E050E0BE016F5F7F4FC8010E9478
:101F2000800D6A8170E086E0759567958A95E1F786
:101F3000072E000C880B990B0E942B1E20E030E02E
:101F400040E85EE30E948A1E6B017C01698170E0BB
:101F500090E080E00E94291E9B01AC01C701B60100
:101F60000E941C200F900F90DF91CF911F910F9135
:101F7000FF90EF90DF90CF900895CF92DF92EF9295
:101F8000FF920F931F93CF93DF93CDB7DEB72B97BD
:101F90000FB6F894DEBF0FBECDBF7C018B01CE0122
:101FA00001966C0188E0F60111928A95E9F7FB0130
:101FB00035812AE0832F622F0E94991F982F880F66
:101FC000890F880F830F8A833481832F0E94991F82
:101FD000982F880F890F880F830F8B833381832F6E
:101FE0000E94991F982F880F890F880F830F8C8369
:101FF00080814281618190E00E948406069667E0BC
:1020000070E00E94A51F811101C087E08D83F80157
:1020100032812AE0832F622F0E94991F982F880F08
:10202000890F880F830F8E833181832F0E94991F20
:10203000982F880F890F880F830F8F833081832F0C
:102040000E94991F982F880F890F880F830F888708
:1020500021E048E050E0B601F701808191810E94C3
:10206000A50E1FE01B8721E041E050E0BE01655F47
:102070007F4FF701808191810E94A50E41E050E0E1
:10208000BE01675F7F4FF701808191810E94800DC3
:10209000898519878F778A8721E042E050E0BE0169
:1020A000675F7F4FF701808191810E94A50E2B967B
:1020B0000FB6F894DEBF0FBECDBFDF91CF911F9159
:1020C0000F91FF90EF90DF90CF9008950F931F93A3
:1020D000CF93DF9300D000D000D0CDB7DEB7FC01A6
:1020E00000E417E0D80152968C91529750969C913B
:1020F00050971E962C911E973281418150815983B1
:102100004A833B832C839D838E83BE016F5F7F4F09
:102110008D919C910E94BD0FF80110861782269622
:102120000FB6F894DEBF0FBECDBFDF91CF911F91E8
:102130000F910895CF93DF930E9474070E94140AB1
:10214000C2E5D4E0FE0184910E945E0A2196F4E08B
:10215000C136DF07B9F782E197E00E94220A0E94A8
:10216000140A8AED0E945E0A82E10E945E0A88EAF1
:102170000E945E0A8FE30E945E0A82E197E00E945D
:10218000220A10920D0710920C0710920F0710925E
:102190000E07109210076091020370E08091040313
:1021A00090E00E94300A0E94140A81E80E940F0AFF
:1021B00086EE0E940F0A82E197E00E94220A409177
:1021C00005035091060370E060E087E093E00E9411
:1021D000E62180910E078770809310070E94C60445
:1021E0006093420770934307809344079093450799
:1021F000DF91CF910895409105035091060370E05F
:1022000060E087E093E00E94E62180910E078770EE
:10221000809310070895FB0101900020E9F73197A2
:10222000AF01461B570BDC01ED91FC910280F3815D
:10223000E02D09948F929F92AF92BF920F931F93BC
:10224000CF93DF93CDB7DEB7A1970FB6F894DEBF7B
:102250000FBECDBF19A2423008F44AE08E010F5DD7
:102260001F4F842E912CB12CA12CA50194010E940A
:10227000CD1FE62FB901CA01EA3004F5E05DD801AF
:10228000EE938D01232B242B252B79F790E080E012
:10229000109729F0BD018DEF92E00E940B11A196DD
:1022A0000FB6F894DEBF0FBECDBFDF91CF911F9167
:1022B0000F91BF90AF909F908F900895E95CDFCF12
:1022C0008F929F92AF92BF92CF92DF92EF92FF9246
:1022D0000F931F93CF93DF93CDB7DEB762970FB6FF
:1022E000F894DEBF0FBECDBF8C01FC0181818F93BE
:1022F00080818F932AE3E22E21E0F22EFF92EF926B
:102300001F9233E0932E9F926E01F0E1CF0ED11C0D
:10231000DF92CF920E94F421F80183818F93828112
:102320008F93FF92EF921F929F925E01FDE0AF0E9E
:10233000B11CBF92AF920E94F421F80185818F9366
:1023400084818F93FF92EF921F929F927E01FAE019
:10235000EF0EF11CFF92EF920E94F421F8018285AA
:102360000FB6F894DEBF0FBECDBF80FF02C090E273
:10237000988B81FF02C080E2898BF801838580FF02
:1023800002C090E29D8781FF02C080E28E87F80143
:10239000848580FF02C090E29A8781FF02C080E2BC
:1023A0008B87FF92EF92BF92AF92DF92CF928FE333
:1023B00091E09F938F931F9289E08F939E012F5FEF
:1023C0003F4F59013F932F930E94F4210E94FB102D
:1023D00082E0D82ED0920A0790E1E92EE0920B0716
:1023E00080E190E090930D0780930C0710920F0707
:1023F00010920E0710921007B5018DEF92E00E9427
:102400000B11FF24F394F0920A0788E080930B07E6
:102410008CE090E090930D0780930C078CE190E0A6
:1024200090930F0780930E0784E08093100768E471
:1024300071E08DEF92E00E940B1120E230E04AE063
:1024400050E060E270E088E090E00E94AF0220E29D
:1024500030E048E750E060E270E080E590E00E9404
:10246000AF022FE330E048E050E060E270E088E047
:1024700090E00E94AF022FE330E048E750E060E2D6
:1024800070E088E790E00E94AF02D0920A07E092E5
:102490000B0784E190E090930D0780930C0789E28D
:1024A00090E090930F0780930E07F09210070FB6FD
:1024B000F894DEBF0FBECDBF20E030E0A901F801E7
:1024C00066817781808591850E94B72087FD06C04F
:1024D0006FE571E08DEF92E00E940B11F801C6806C
:1024E000D780E084F184A7019601C701B6010E945C
:1024F000BC2061E671E081111BC046015701E894E0
:10250000B7F82FEF3FEF4FE75FE7C501B4010E9437
:10251000BC208111D1C02FEF3FEF4FE75FE7C5012E
:10252000B4010E94241E18160CF0C6C065E671E0C6
:102530008DEF92E00E940B1141E06AE270E081E6CB
:1025400090E00E94770241E066E270E081E690E070
:102550000E94770241E068E270E083E690E00E942A
:10256000770241E068E270E08FE590E00E94770238
:1025700041E06AE270E082E690E00E94770241E08A
:102580006AE270E080E690E00E94770241E066E255
:1025900070E082E690E00E94770241E066E270E03F
:1025A00080E690E00E94770241E069E270E083E615
:1025B00090E00E94770241E069E270E08FE590E0F0
:1025C0000E94770241E067E270E083E690E00E94BB
:1025D000770241E067E270E08FE590E00E947702C9
:1025E00041E069E270E083E690E00E94770241E01A
:1025F00069E270E08FE590E00E94770241E067E2D7
:1026000070E083E690E00E94770241E067E270E0CC
:102610008FE590E00E94770241E06AE270E082E696
:1026200090E00E94770241E06AE270E080E690E08C
:102630000E94770241E066E270E082E690E00E944C
:10264000770241E066E270E080E690E00E94770267
:1026500084E690E090930D0780930C0789E290E068
:1026600090930F0780930E0781E0809310076DE62B
:1026700071E08DEF92E00E940B112FE330E048E70C
:1026800050E06FE370E088E090E00E94AF020E94AB
:102690007A0A62960FB6F894DEBF0FBECDBFDF9107
:1026A000CF911F910F91FF90EF90DF90CF90BF904F
:1026B000AF909F908F9008952FEF3FEF4FE75FE42B
:1026C000C701B6010E94B72018161CF469E671E034
:1026D0002FCF2FEF3FEF4FE75FECC701B6010E940E
:1026E000241E87FDF3CF20E030E0A901C701B60129
:1026F0000E94241E87FF09C06DE28DEF92E00E94C8
:10270000140BF7FAF094F7F8F0942AE037ED43EA67
:102710005BE3C701B6010E941C204B015C010E94D3
:1027200088206B017C010E94291E9B01AC01C50120
:10273000B4010E941B204B015C014AE0C701B601B5
:102740000E941A116EE28DEF92E00E94140B20E0BD
:1027500030E040E251E4C501B4010E948A1E4B0101
:102760005C010E9488206B01F12CE12C4AE0C7013A
:10277000B6010E941A11C701B6010E94291E9B01D1
:10278000AC01C501B4010E941B2020E030E040E212
:1027900051E40E948A1E0E94882090E080E04AE076
:1027A0000E941A11C9CE5F926F927F928F929F9270
:1027B000AF92BF92CF92DF92EF92FF920F931F934F
:1027C000CF93DF93CDB7DEB764970FB6F894DEBF33
:1027D0000FBECDBF0E94C604AB01BC018091DA01DF
:1027E0009091DB01A091DC01B091DD018A019B0198
:1027F000081B190B2A0B3B0BD901C8018A3F910515
:10280000A105B10580F08091D90190E00196837017
:1028100099278093D9014093DA015093DB016093AB
:10282000DC017093DD016FE671E0CE0101960E943C
:10283000ED210E94FB1082E080930A0780E18093E3
:102840000B0788E090E090930D0780930C0710929F
:102850000F0710920E0710921007BE016F5F7F4F97
:102860008DEF92E00E940B11F12C8091D901F816A6
:1028700040F467E871E08DEF92E00E940B11F39451
:10288000F4CF10920D0710920C0710920F071092C0
:102890000E071092100798E2E92EF12C28E0622E24
:1028A000712C809104038E151F0444F19701265565
:1028B0003C4F4901512C84E0C82ED12CF401A59045
:1028C000B490209110078091020390E0211135C04F
:1028D0008C159D054CF010E000E02E2D4C2D6A2D3E
:1028E0008DEF92E00E94A10A3FEFC31AD30A80E263
:1028F000880E911C98E0C916D10401F70FEFE01A79
:10290000F00A18E4E116F10461F60E947A0A64966E
:102910000FB6F894DEBF0FBECDBFDF91CF911F91F0
:102920000F91FF90EF90DF90CF90BF90AF909F906E
:102930008F907F906F905F9008958C159D05CCF0DF
:10294000652D70E0C301821B910902C075956795E2
:102950008A95E2F7C501992701C0880F2A95EAF701
:10296000682B10E000E02E2D4C2D8DEF92E00E94A0
:10297000A10A5A2CB9CFEF92FF920F931F93CF93D6
:10298000DF93CDB7DEB72A970FB6F894DEBF0FBE40
:10299000CDBF2BE831E097FD02C02FE531E09F93DA
:1029A0008F933F932F938EE791E09F938F931F9286
:1029B0008AE08F93CE0101967C019F938F930E94B2
:1029C000F4210E94FB1002E000930A0710E110932B
:1029D0000B0784E190E090930D0780930C07109211
:1029E0000F0710920E071092100763EC73E08DEF43
:1029F00092E00E94D30483E080930A0788E18093E9
:102A00000B0785E090E090930D0780930C0788E218
:102A100090E090930F0780930E0710921007B70174
:102A20008DEF92E00E940B1100930A0710930B07A1
:102A30008CE590E090930D0780930C0780E390E085
:102A400090930F0780930E071092100763E871E0D0
:102A50008DEF92E00E940B110E947A0A0FB6F89453
:102A6000DEBF0FBECDBF2A960FB6F894DEBF0FBEF5
:102A7000CDBFDF91CF911F910F91FF90EF900895FF
:102A800085ED8093BC0080912C0290912D02A09145
:102A90002E02B0912F020796A11DB11D23E0B6951D
:102AA000A795979587952A95D1F72091BC0024FD8D
:102AB00003C010922A02089540912C0250912D02D9
:102AC00060912E0270912F02452B462B472B69F304
:102AD0000097A105B10541F02AE22A95F1F700C05F
:102AE0000197A109B109E1CF80912B020C948B07CA
:102AF0001F920F920FB60F9211242F933F938F9333
:102B00009F93AF93BF938091D1019091D201A091F7
:102B1000D301B091D4013091D00123E0230F2D37A0
:102B200058F50196A11DB11D2093D0018093D101CC
:102B30009093D201A093D301B093D4018091D50199
:102B40009091D601A091D701B091D8010196A11D15
:102B5000B11D8093D5019093D601A093D701B09376
:102B6000D801BF91AF919F918F913F912F910F907D
:102B70000FBE0F901F90189526E8230F0296A11DF7
:102B8000B11DD2CF1F920F920FB60F9211242F9327
:102B90003F934F935F936F937F938F939F93AF93E5
:102BA000BF93EF93FF93E0910201F0910301099528
:102BB000FF91EF91BF91AF919F918F917F916F9115
:102BC0005F914F913F912F910F900FBE0F901F90EB
:102BD00018951F920F920FB60F9211242F933F93C7
:102BE0004F935F936F937F938F939F93AF93BF9315
:102BF000EF93FF93E0910001F09101010995FF919E
:102C0000EF91BF91AF919F918F917F916F915F9164
:102C10004F913F912F910F900FBE0F901F901895DD
:102C20001F920F920FB60F9211242F933F934F9341
:102C30005F936F937F938F939F93AF93BF93EF9324
:102C4000FF9384E592E00E947505FF91EF91BF919B
:102C5000AF919F918F917F916F915F914F913F9134
:102C60002F910F900FBE0F901F9018951F920F92EB
:102C70000FB60F9211242F938F939F93EF93FF938F
:102C8000E0916402F09165028081E0916A02F09126
:102C90006B0282FD1BC0908180916D028F5F8F73EC
:102CA00020916E02821741F0E0916D02F0E0EC5A43
:102CB000FD4F958F80936D02FF91EF919F918F91C2
:102CC0002F910F900FBE0F901F9018958081F4CF19
:102CD0001F920F920FB60F9211242F933F934F9391
:102CE0005F936F937F938F939F93AF93BF93EF9374
:102CF000FF938091B900887F803609F44AC0F0F5CF
:102D0000883209F4A7C018F5803109F49BC0B8F4E3
:102D1000882309F4F9C0883009F494C0FF91EF9139
:102D2000BF91AF919F918F917F916F915F914F91E3
:102D30003F912F910F900FBE0F901F9018958831E3
:102D400009F488C0803251F78093280214C080347F
:102D500009F49DC040F48033B9F38833F9F68093C9
:102D6000280285ECB0C0803509F485C0883509F4A7
:102D700096C0883499F60E944015D0CF883909F45E
:102D80008CC038F5883729F050F4883611F0803738
:102D900029F683E080932A021092CF0157C0883829
:102DA00009F47BC0803919F0803809F0B7CF8091E1
:102DB000CF01803208F071C0E091CF0181E08E0F29
:102DC0008093CF018091BB00F0E0E155FE4F8083FE
:102DD0003DC0803B39F0E0F4803A09F479C0883A8C
:102DE00009F09CCF84E080932A021092AE011092E9
:102DF000AD01E091E001F091E10109958091AD0113
:102E000081110FC081E08093AD0110928D0109C046
:102E1000803C09F4A6CF883C09F4A3CF883B09F095
:102E20007DCFE091AE0181E08E0F8093AE01F0E0A6
:102E3000E357FE4F80818093BB009091AE0180915B
:102E4000AD0129C0809105028093BB0085EC809381
:102E5000BC0064CF9091270280912602981758F504
:102E6000E091270281E08E0F80932702F0E0EA5F75
:102E7000FD4F8081E9CFE091270281E08E0F8093A2
:102E800027028091BB00F0E0EA5FFD4F80839091C4
:102E90002702809126029817C8F285E8D8CFE091E2
:102EA000270281E08E0F809327028091BB00F0E023
:102EB000EA5FFD4F80838091290281115CCF81E020
:102EC0008093040284EA8093BC0010922A0226CFE9
:102ED00085EC8093BC0010922A028091CF01803251
:102EE00030F4E091CF01F0E0E155FE4F10826091A7
:102EF000CF0170E0E091DE01F091DF018FEA91E017
:102F000009951092CF010ACF1092280234CFCF93A7
:102F1000DF93109257021092560288EE93E0A0E0E1
:102F2000B0E08093580290935902A0935A02B09354
:102F30005B022EE031E0309355022093540225ECE1
:102F400030E0309361022093600224EC30E0309353
:102F500063022093620220EC30E0309365022093FC
:102F6000640221EC30E0309367022093660222EC89
:102F700030E0309369022093680226EC30E0309311
:102F80006B0220936A0210926D0210926E021092F0
:102F90006F02109270021092F4021092F30280936A
:102FA000F5029093F602A093F702B093F80280E244
:102FB00091E09093F2028093F1021092000310923C
:102FC000FF0282E391E09093FE028093FD028CE386
:102FD0008093010387E0809302038FE380930303D0
:102FE0008FE78093040380E094E09093060380933E
:102FF0000503109207071092080710920907C1E015
:10300000C0930A0788E080930B0710920D07109277
:103010000C0710920F0710920E07109210071092D3
:10302000120782E08093130710921E071092770711
:1030300010927607109278071092790710927A070B
:1030400010927B0710927C0710927D0710925E070A
:103050001092600710925F0710926207109261074A
:10306000109263071092640710926507109266072A
:1030700010926707109268071092690710926A070A
:1030800010926B0710926C0710926D0710926E07EA
:103090004FEF5FEFBA018FE697E00E9404061092AF
:1030A000750786E797E09093410780934007109259
:1030B0004207109243071092440710924507C093AD
:1030C000460710924807109247071092490710923E
:1030D0004A0710924B0710924C0710924D0710921E
:1030E0004F0710924E0710925107109250071092FE
:1030F00053071092520710925407109255071092DE
:10310000560710925707C09358071092590710920C
:103110005A0710925B0710925C0710925D0762E0FD
:1031200083E00E943E0462E082E00E943E04E2E806
:10313000F4E0E491F0E0EE0FFF1FEB58FB4FA59198
:10314000B491B0932407A0932307E4E6F4E04491FC
:1031500040932707E1E8F4E0E491F0E0EE0FFF1F71
:10316000EB58FB4FC591D491D0932607C093250708
:10317000E3E6F4E0E491E093280710922A07109226
:103180002B0710922C0710922D072BE33FE1C9016A
:103190000197F1F79C91842F892391E009F490E045
:1031A0008881E82309F0926023E237E090932907B1
:1031B000309322072093210789E09AE0909303013E
:1031C0008093020180916900837F8460809369000D
:1031D000E99A81E080932E073093200720931F0700
:1031E00083E09AE09093010180930001809169004F
:1031F0008C7F816080936900E89A82E080932E073B
:1032000010922F0710923007109231071092320758
:103210001092330710923407109235071092360738
:1032200010923807109237071092390780E497E020
:1032300090933B0780933A078EE597E090933D0784
:1032400080933C0786E797E090933F0780933E0783
:10325000DF91CF910895CF93DF93CDB7DEB763971A
:103260000FB6F894DEBF0FBECDBF789484B58260F0
:1032700084BD84B5816084BD85B5826085BD85B51A
:10328000816085BD80916E00816080936E00109298
:103290008100809181008260809381008091810013
:1032A00081608093810080918000816080938000A4
:1032B0008091B10084608093B1008091B000816002
:1032C0008093B00080917A00846080937A0080912E
:1032D0007A00826080937A0080917A008160809386
:1032E0007A0080917A00806880937A001092C10001
:1032F000E0916402F091650282E08083E0916002D7
:10330000F09161021082E0916202F09163028FEC11
:10331000808310926C02E0916802F091690286E06D
:103320008083E0916602F0916702808180618083F2
:10333000E0916602F0916702808188608083E0916D
:103340006602F0916702808180688083E091660266
:10335000F091670280818F7D808362E086E00E9429
:103360003E0462E085E00E943E040E947407809162
:10337000760790917707009711F00E945D2186E013
:1033800090E00E94C1208C0188E6F801808381EFE3
:1033900092E092838183138280E290E0958384831C
:1033A00010937707009376070E94740781E0F80175
:1033B0008383C8010E949C088111DFC063E973E028
:1033C00084E592E00E94D30469E871E084E592E02C
:1033D0000E940B110E949A1062E084E00E943E0459
:1033E00080912E07823008F0D3C0F89483E297E0F2
:1033F0000E94C10980912A0790912B07A0912C0768
:10340000B0912D07789480932F0790933007A09365
:103410003107B09332070E94C6046093330770935C
:103420003407809335079093360761E08CE00E9463
:103430003E0461E08BE00E943E0460E08CE00E946C
:10344000100460E08BE00E94100464E170E080E012
:1034500090E00E94940464E0462E512C612C712C63
:10346000AA24A394B12C80913907882309F449C078
:1034700080912E07823008F08DC0F89483E297E0A7
:103480000E94C10960912A0770912B0780912C0737
:1034900090912D077894A30192010E94EF1F69017A
:1034A0007A0180912F0790913007A0913107B09158
:1034B0003207C816D906EA06FB0619F188E89FEF1D
:1034C000F8E8CF16FFEFDF06EF06FF0664F0322FB5
:1034D0002D2D49E7C416D104E104F10414F038E7B6
:1034E00020E0832F922F90933807809337070E9414
:1034F000BB14C0922F07D0923007E0923107F092B0
:1035000032070E94C60420915E07222309F467C097
:103510000091630710916407209165073091660759
:103520006B017C01C01AD10AE20AF30A97018601F5
:10353000003D17402105310508F451C06093630731
:1035400070936407809365079093660720916107E5
:103550003091620720FD29C0C90197FD019681FDC8
:103560001BC00E94470980916107909162070196F4
:10357000909362078093610732C066E777E0CE01DF
:1035800001960E94D50ECE0101960E94F40622CF2C
:10359000F89430CFF89476CF60E08CE00E9410046D
:1035A00061E08BE00E941004DECF60E08CE00E94BE
:1035B000100460E08BE00E941004809161079091FC
:1035C0006207019697FD01969595879520915F0773
:1035D000309160078217930734F210925E0784E0FF
:1035E0000E94E703892B09F040C00E94C6040091A5
:1035F0003307109134072091350730913607601B4F
:10360000710B820B930B6D3271408105910568F14E
:103610000E94C60460933307709334078093350784
:103620009093360780913907811120C11092380795
:1036300010923707F89410922A0710922B071092D5
:103640002C0710922D07789410922F0710923007B4
:10365000109231071092320781E0809339078091F0
:103660003707909138070E94BB1480914607882342
:1036700009F450C20E94C60400914207109143070A
:103680002091440730914507601B710B820B930B0F
:1036900061367A4E81059105B8F010924607809107
:1036A000010391E090933002809352021092310214
:1036B0001092530280E80E940F0A8EEA0E940F0ABD
:1036C00082E197E00E94220A80914607882309F44C
:1036D00021C28091470790914807009709F4BEC125
:1036E0000197039708F087C10E94C604009149071B
:1036F00010914A0720914B0730914C07601B710BCA
:10370000820B930B653F71408105910580F080919C
:103710004D0791E0892780934D070E94C60460936E
:10372000490770934A0780934B0790934C07809109
:103730004E0790914F079A8389838091500790910B
:1037400051079C838B8380915207909153079E83EE
:103750008D8380914007909141070E946D0F6F8388
:10376000788789879A8780914707909148078130A9
:10377000910509F0E2C020914D07222309F4DDC034
:1037800022E02B878230910509F0D9C020914D07A6
:10379000222309F4D4C022E02C87039709F0D1C07A
:1037A00080914D07882309F4CCC082E08D87CE013B
:1037B00001960E9460110E94C60400915407109166
:1037C00055072091560730915707601B710B820BEC
:1037D000930B693B7B408105910560F06091400748
:1037E00070914107CE0101960E94D50ECE0101963F
:1037F0000E9466108091470790914807892B09F431
:10380000FAC0009140071091410786E00E94E7034B
:1038100021E0009709F020E0F8012683892B71F45C
:1038200010924807109247070E94C60460935407FD
:1038300070935507809356079093570780914707D9
:10384000909148078230910509F4B8C18330910501
:1038500009F479C0019709F0CEC022E0E22EF12CE4
:1038600038E1C32ED12C0EE417E074C0F090370776
:1038700000913E0710913F07B801CE010E960E94BD
:10388000D50ECE010E960E94F406882319F1AF2DB5
:10389000FF0CBB0B2CE330E00E940E206B017C017F
:1038A000CE010E960E94B006AB01BC014C0D5D1D11
:1038B0006E1D7F1DCE0101960E940406CE01019669
:1038C0000E94F406882331F0BE016F5F7F4FC8016C
:1038D0000E94BD0F109239078091370790913807E9
:1038E000892BB9F00E94D31300913C0710913D073A
:1038F0008091370790913807181619067CF060E020
:103900008CE00E94100460E08BE00E941004F8013B
:1039100010821092380710923707A7CEF8019283D1
:1039200081831482138281E080830E94C604F8019F
:103930006583768387839087ECCF20E022CF20E0D9
:103940002BCF80E033CFF12CE12C4CE3C42ED12CD3
:1039500002E517E0809040079090410785E00E94C3
:10396000E70321E0009709F020E0F4012783892B89
:1039700009F069C080915A0790915B07A0915C079C
:10398000B0915D07892B8A2B8B2B51F40E94C604C2
:1039900060935A0770935B0780935C0790935D0771
:1039A0000E94C60420915A0730915B0740915C0742
:1039B00050915D07621B730B840B950B2091590787
:1039C000683E73408105910508F001C1211113C0C3
:1039D00080915807882369F11092580781E08093FD
:1039E00059070E94C604609354077093550780934B
:1039F00056079093570780913907882309F4A1C08F
:103A000080913707909138070E94BB1462E370E001
:103A100080E090E00E94940480E090E0892B09F41B
:103A200022CD0E946105882309F41DCD0E9400006B
:103A30001ACDF801808191810196B6010E94B91FCB
:103A400091838083CBCF10925A0710925B0710921C
:103A50005C0710925D0710925907CDCF85E00E9458
:103A6000E70321E0009709F020E020937D07892BF0
:103A700011F66091400770914107CE0101960E94B6
:103A8000D50ECE0101960E94F406882379F1B092FA
:103A90004807A09247078C8190E090934F0780934E
:103AA0004E078D8190E090935107809350078E814F
:103AB00090E090935307809352070E94C60460934E
:103AC000490770934A0780934B0790934C071092D5
:103AD0004D070E94C6046093540770935507809366
:103AE00056079093570781E0809358070E94C604B9
:103AF0006093420770934307809344079093450770
:103B000080914607811177CF81E0809346070E941C
:103B10009A1071CF85E00E94E70321E0009709F039
:103B200020E020937D07892B09F386E00E94E703BC
:103B300021E0009709F020E020937C07892BB1F267
:103B40005ACF80915E07882319F00E94D3135ECF6D
:103B50006091400770914107CE010E960E94D50EEC
:103B6000CE010E960E94F4068823E9F0898990E040
:103B70009A8389838A8990E09C838B838B8990E0E8
:103B80009E838D8380914007909141070E946D0F25
:103B90006F83788789879A871B861C861D86CE014E
:103BA00001960E94601166E777E0CE0101960E94BF
:103BB000D50ECE0101960E944F0928CF83E0E82E52
:103BC000F12C9CE3C92ED12C00E517E0C3CE2111C6
:103BD00012CFF0924807E092470710924D070E94DB
:103BE000C6046093490770934A0780934B079093EC
:103BF0004C0710925A0710925B0710925C071092C4
:103C00005D0711E0109359070E94C60460935407A2
:103C10007093550780935607909357071093580752
:103C20008091470790914807892B09F0E4CE609175
:103C3000400770914107CE0101960E94D50ECE013A
:103C400001960E946610D7CE0E94661E08F481E09D
:103C50000895E89409C097FB3EF49095809570957F
:103C600061957F4F8F4F9F4F9923A9F0F92F96E9C8
:103C7000BB279395F695879577956795B795F1113D
:103C8000F8CFFAF4BB0F11F460FF1BC06F5F7F4FDA
:103C90008F4F9F4F16C0882311F096E911C07723EC
:103CA00021F09EE8872F762F05C0662371F096E8F5
:103CB000862F70E060E02AF09A95660F771F881FC4
:103CC000DAF7880F9695879597F90895990F000868
:103CD000550FAA0BE0E8FEEF16161706E807F907DE
:103CE000C0F012161306E407F50798F0621B730B79
:103CF000840B950B39F40A2661F0232B242B252BFA
:103D000021F408950A2609F4A140A6958FEF811D9C
:103D1000811D08950E949D1E0C940E1F0E94001F7D
:103D200038F00E94071F20F0952311F00C94F71E25
:103D30000C94FD1E11240C94421F0E941F1F70F34F
:103D4000959FC1F3950F50E0551F629FF001729F40
:103D5000BB27F00DB11D639FAA27F00DB11DAA1F4F
:103D6000649F6627B00DA11D661F829F2227B00D9C
:103D7000A11D621F739FB00DA11D621F839FA00D27
:103D8000611D221F749F3327A00D611D231F849F77
:103D9000600D211D822F762F6A2F11249F575040CE
:103DA0009AF0F1F088234AF0EE0FFF1FBB1F661F49
:103DB000771F881F91505040A9F79E3F510580F012
:103DC0000C94F71E0C94421F5F3FE4F3983ED4F32B
:103DD000869577956795B795F795E7959F5FC1F7B6
:103DE000FE2B880F911D9695879597F9089597F961
:103DF0009F6780E870E060E008959FEF80EC089591
:103E000000240A94161617061806090608950024B9
:103E10000A9412161306140605060895092E039433
:103E2000000C11F4882352F0BB0F40F4BF2B11F4A7
:103E300060FF04C06F5F7F4F8F4F9F4F089557FD06
:103E40009058440F551F59F05F3F71F04795880F08
:103E500097FB991F61F09F3F79F08795089512169F
:103E600013061406551FF2CF4695F1DF08C016164B
:103E700017061806991FF1CF8695710561050894FC
:103E80000895E894BB2766277727CB0197F9089513
:103E90000E948A1FA59F900DB49F900DA49F800D36
:103EA000911D112408952F923F924F925F926F922D
:103EB0007F928F929F92AF92BF92CF92DF92EF92BA
:103EC000FF920F931F93CF93DF93CDB7DEB7CA1B3B
:103ED000DB0B0FB6F894DEBF0FBECDBF09942A8866
:103EE000398848885F846E847D848C849B84AA840E
:103EF000B984C884DF80EE80FD800C811B81AA819B
:103F0000B981CE0FD11D0FB6F894DEBF0FBECDBF65
:103F1000ED010895A29FB001B39FC001A39F700D52
:103F2000811D1124911DB29F700D811D1124911DC1
:103F30000895991B79E004C0991F961708F0961B05
:103F4000881F7A95C9F780950895AA1BBB1B51E17C
:103F500007C0AA1FBB1FA617B70710F0A61BB70BF9
:103F6000881F991F5A95A9F780959095BC01CD019E
:103F7000089597FB072E16F4009407D077FD09D01B
:103F80000E94A51F07FC05D03EF4909581959F4F98
:103F90000895709561957F4F0895A1E21A2EAA1B8E
:103FA000BB1BFD010DC0AA1FBB1FEE1FFF1FA217E9
:103FB000B307E407F50720F0A21BB30BE40BF50BE6
:103FC000661F771F881F991F1A9469F7609570956F
:103FD000809590959B01AC01BD01CF010895052E00
:103FE00097FB1EF400940E94062057FD07D00E9404
:103FF000CD1F07FC03D04EF40C940620509540953D
:10400000309521953F4F4F4F5F4F08959095809584
:10401000709561957F4F8F4F9F4F08950E948A1F23
:10402000B7FF0895821B930B0895EE0FFF1F0590B5
:10403000F491E02D09945058BB27AA270E94332001
:104040000C940E1F0E94001F38F00E94071F20F0E2
:1040500039F49F3F19F426F40C94FD1E0EF4E095FC
:10406000E7FB0C94F71EE92F0E941F1F58F3BA17A5
:10407000620773078407950720F079F4A6F50C947E
:10408000411F0EF4E0950B2EBA2FA02D0B01B901A4
:1040900090010C01CA01A0011124FF27591B99F0BE
:1040A000593F50F4503E68F11A16F040A22F232FCA
:1040B000342F4427585FF3CF469537952795A7951A
:1040C000F0405395C9F77EF41F16BA0B620B730BC1
:1040D000840BBAF09150A1F0FF0FBB1F661F771F32
:1040E000881FC2F70EC0BA0F621F731F841F48F4E7
:1040F000879577956795B795F7959E3F08F0B0CF70
:104100009395880F08F09927EE0F97958795089556
:104110000E94271F88F09F5798F0B92F9927B75111
:10412000B0F0E1F0660F771F881F991F1AF0BA955B
:10413000C9F714C0B13091F00E94411FB1E0089559
:104140000C94411F672F782F8827B85F39F0B93F4B
:10415000CCF3869577956795B395D9F73EF490950E
:104160008095709561957F4F8F4F9F4F08950E9466
:10417000661E08F48FEF08950E94661E880B990B47
:1041800008950F931F93CF93DF938230910510F41E
:1041900082E090E0E0918007F091810730E020E03C
:1041A000B0E0A0E0309799F42115310509F44AC038
:1041B000281B390B24303105D8F58A819B81611584
:1041C000710589F1FB0193838283FE0111C0408157
:1041D00051810281138148175907E0F048175907A8
:1041E00099F4109761F012960C93129713961C9302
:1041F0003296CF01DF91CF911F910F9108950093D7
:10420000800710938107F4CF2115310551F0421733
:10421000530738F0A901DB019A01BD01DF01F80164
:10422000C1CFEF01F9CF9093810780938007CDCF65
:10423000FE01E20FF31F81939193225031093983DC
:104240002883D7CF20917E0730917F07232B41F41D
:10425000209106013091070130937F0720937E075C
:1042600020910401309105012115310541F42DB74C
:104270003EB74091080150910901241B350BE09194
:104280007E07F0917F07E217F307A0F42E1B3F0B88
:104290002817390778F0AC014E5F5F4F24173507B8
:1042A00048F04E0F5F1F50937F0740937E07819326
:1042B00091939FCFF0E0E0E09CCFCF93DF93009706
:1042C000E9F0FC01329713821282A0918007B0912D
:1042D0008107ED0130E020E01097A1F420813181C9
:1042E000820F931F20917E0730917F07281739078F
:1042F00009F061C0F0937F07E0937E07DF91CF91D3
:104300000895EA01CE17DF07E8F54A815B819E0137
:1043100041155105B1F7E901FB83EA8349915991B0
:10432000C40FD51FEC17FD0761F4808191810296BF
:10433000840F951FE90199838883828193819B83F0
:104340008A83F0E0E0E012968D919C91139700979C
:10435000B9F52D913C911197CD010296820F931FD3
:1043600020917E0730917F072817390739F630975B
:1043700051F51092810710928007B0937F07A093A8
:104380007E07BCCFD383C28340815181840F951FA8
:10439000C817D90761F44E5F5F4F88819981480F34
:1043A000591F518340838A819B8193838283211586
:1043B000310509F0B0CFF0938107E09380079ECFDD
:1043C000FD01DC01C0CF13821282D7CFDC0101C016
:1043D0006D9341505040E0F70895FB01DC010190DE
:1043E0000D920020E1F70895AEE0B0E0EAEFF1E2CF
:1043F0000C94611F0D891E898F89988D26E02C836E
:104400001A83098397FF02C080E090E801979E839A
:104410008D83AE01455E5F4F698D7A8DCE01019629
:104420000E9424224D815E8157FD0AC02F8138856C
:10443000421753070CF49A01020F131FF801108260
:104440002E96E4E00C947D1FABE0B0E0EAE2F2E2ED
:104450000C94531F7C013B018A01FC0117821682D8
:10446000838181FFC8C1CE0101965C01F701938170
:10447000F30193FD859193FF81913F01882309F416
:1044800053C1853239F493FD859193FF81913F01AA
:10449000853229F4B70190E00E941424E7CF912CD3
:1044A000212C312CFFE1F31538F08B3211F190F40F
:1044B000803209F1833229F137FC3CC020ED280F0E
:1044C0002A3050F536FE20C08AE0989E200D112437
:1044D000922E06C08D3291F0803371F7689430F8D7
:1044E000F30193FD859193FF81913F018111DACF13
:1044F00021C0689431F8689432F8F2CF689433F8A8
:10450000EFCF689434F8ECCFEAE02E9E200D112412
:10451000222E689435F8E4CF8E3229F436FC04C19B
:10452000689436F8DDCF8C3619F4689437F8D8CF14
:104530008836B1F2982F9F7D95549330E0F0833602
:10454000A1F18337C1F1833509F063C02801F2E09E
:104550004F0E511CF801C080D180692D70E036FCEF
:1045600002C06FEF7FEFC6010E94FE234C016894EA
:1045700037F882010AC00C5F1F4FFFE3F9838824DC
:104580008394912C6501E89437F833FE2DC0522CAA
:104590008114910471F5552009F468CFB70180E2C8
:1045A00090E00E9414245A94F6CFF8018081898308
:1045B0000E5F1F4FE4CF2801F2E04F0E511CF801AF
:1045C000C080D180692D70E036FC02C06FEF7FEFB4
:1045D000C6010E9409244C018201D5CFB70180E2B7
:1045E00090E00E9414242A942814190409F0B0F7CA
:1045F000CECFF60137FC859137FE81916F01B7016F
:1046000090E00E94142451105A94F1E08F1A9108FE
:10461000BFCF843619F0893609F077C0F80137FE2C
:104620006BC060817181828193810C5F1F4FF32D7C
:10463000FF763F2E97FF09C0909580957095619504
:104640007F4F8F4F9F4F689437F82AE030E0A501E5
:104650000E944424C82ECA188C2C432C36FE0CC051
:10466000E89440F8C91440F434FE05C032FC03C09D
:10467000F32DFE7E4F2E892C44FE95C0FE01EC0DDD
:10468000F11D8081803309F087C0242D297E422EC0
:10469000842D8870582E43FC95C040FE8FC09C2C02
:1046A000821418F42C0C922C981844FE91C0B70177
:1046B00080E390E00E94142442FE09C088E790E065
:1046C00041FE02C088E590E0B7010E941424C9149D
:1046D00008F48AC0CA94D12C9FEFC91AD90ACA0C0F
:1046E000DB1CF60182916F01B70190E00E94142457
:1046F000AC14BD04B1F74FCF60817181072E000C5F
:10470000880B990B0E5F1F4F92CFD32CE894D4F8EF
:104710002AE030E0853739F1232D297FD22E8F36DC
:1047200001F148F48835A9F0F701868197812B962D
:10473000E2E10C946F1F803749F08837A9F7D4FE67
:1047400002C06894D2F820E130E00DC06894D4F83B
:10475000F6CF34FE03C0822F8660D82E20E132E0EF
:1047600002C028E030E0F801D7FE0FC060817181FF
:10477000828193810C5F1F4FA5010E944424C82EA3
:10478000CA183D2CE89437F867CF6081718190E0BA
:1047900080E00E5F1F4FF0CF42FC02C0839478CFC1
:1047A0008394839475CF842D867809F471CFF6CFE6
:1047B000B70180E290E00E94142483948214C0F335
:1047C000512C73CF522C5818821408F46ECFF8CFA6
:1047D000842D867809F47BCF8BE241FE80E247FC92
:1047E0008DE2B70190E071CFB70180E390E00E94C5
:1047F00014249A946CCF8FEF9FEF99CFFC01059012
:10480000615070400110D8F7809590958E0F9F1FD2
:104810000895FC016150704001900110D8F7809517
:1048200090958E0F9F1F08950F931F93CF93DF9343
:10483000182F092FEB018B8181FD09C01FEF0FEFAE
:10484000812F902FDF91CF911F910F91089582FFBB
:1048500014C02E813F818C819D81281739073CF43B
:10486000E881F981CF0101969983888310838E8135
:104870009F8101969F838E83E3CFE885F985812F01
:104880000995892BA1F3DACFFA01AA27283051F133
:10489000203181F1E8946F936E7F6E5F7F4F8F4F71
:1048A0009F4FAF4FB1E03ED0B4E03CD0670F781FD0
:1048B000891F9A1FA11D680F791F8A1F911DA11DB5
:1048C0006A0F711D811D911DA11D20D009F46894EE
:1048D0003F912AE0269F11243019305D3193DEF696
:1048E000CF010895462F4770405D4193B3E00FD04C
:1048F000C9F7F6CF462F4F70405D4A3318F0495D37
:1049000031FD4052419302D0A9F7EACFB4E0A69519
:104910009795879577956795BA95C9F7009761053B
:10492000710508959B01AC010A2E06945795479591
:1049300037952795BA95C9F7620F731F841F951F86
:08494000A01D0895F894FFCFBB
:10494800D204D2040000820780000000000097050E
:10495800F7042405E4055505330547050000000064
:104968001809EB087D0DC108E408D108C208000049
:104978000000140BF7047D0D7C0D253032640025F2
:10498800733A25733A257300D0A2D0B5D0BCD0BFF6
:10499800D0B5D180D0B0D182D183D180D0B0002B16
:1049A800006E616E00696E66006F7666004300D027
:1049B8009ED0B1D180D0BED0B1D0BAD0B0002573CE
:0C49C800256400D185D0B22E000D0A003D
:00000001FF
