:100000000C944B020C94E9150C94C2150C947302D9
:100010000C9473020C9473020C9473020C9473028C
:100020000C9473020C9473020C9473020C9473027C
:100030000C9473020C9473020C9473020C9473026C
:100040000C9478150C9473020C9436160C941016BC
:100050000C9473020C9473020C9473020C9473024C
:100060000C9468160C947302000000000000006FEE
:1000700000000007000700147F147F148C92FF9289
:1000800062231308646236495620500000070000BE
:10009000001C2241000041221C0014083E081408E4
:1000A000083E0808005030000008080808080060F2
:1000B00060000020100804023E5149453E00427F86
:1000C000400042615149462141454B311814127F8D
:1000D0001027454545393C4A494930017109050316
:1000E0003649494936064949291E0036360000007E
:1000F0005636000008142241001414141414004150
:1001000022140802015109063E415D494E7E09094B
:10011000097E7F494949363E414141227F41414163
:100120003E7F494949417F090909013E4149497AD0
:100130007F0808087F00417F41002040413F017F48
:10014000081422417F404040407F020C027F7F0420
:1001500008107F3E4141413E7F090909063E415159
:10016000215E7F09192946464949493101017F012C
:10017000013F4040403F0F3040300F3F4030403F54
:100180006314081463070870080761514945430068
:10019000007F4100020408102000417F000004029B
:1001A0000102044040404040000003040020545439
:1001B00054787F48444438384444442038444448C0
:1001C0007F3854545418087E0901020C5252523E92
:1001D0007F0804047800447D40002040443D000036
:1001E0007F10284400417F40007C041804787C087C
:1001F00004047838444444387C1414140808141453
:10020000187C7C080404084854545420043F44409B
:10021000203C4040207C1C2040201C3C4030403C86
:1002200044281028440C5050503C4464544C440022
:100230000836414100007F000041413608000402B9
:100240000408047E1111117E7F494949337F4949D1
:1002500049367F01010103E0514F41FF7F49494980
:100260004177087F087741494949367F1008047F64
:100270007C2112097C7F0814224120413F017F7FAD
:10028000020C027F7F0808087F3E4141413E7F010A
:1002900001017F7F090909063E4141412201017F99
:1002A000010147281008071C227F221C6314081430
:1002B000637F404040FF070808087F7F407F407F02
:1002C0007F407F40FF017F4848307F4830007F00FB
:1002D0007F484830224149493E7F083E413E4629F9
:1002E00019097F20545454783C4A4A49317C54546B
:1002F00028007C04040C00E0544C44FC3854545452
:10030000186C107C106C44545428007C2010087C1D
:1003100078422412787C1028440020443C047C7CE1
:100320000810087C7C1010107C38444444387C044D
:1003300004047C7C14141408384444440004047CF1
:1003400004040C5050503C3048FE483044281028DB
:10035000447C40407CC00C1010107C7C407C407C75
:100360007C407C40FC047C5050207C5050207C7CA5
:100370005050200028445454387C103844380854D5
:1003800034147C38555455181F1C1F1E1F1E1F1F68
:100390001E1F1E525443206572720000000000248C
:1003A0000027002A0000000000250028002B000084
:1003B0000000080002010000030407000000000024
:1003C000000000AED5808D142001A1C8817FDB40E4
:1003D000A6AFD0A3D181D182D0B0D0B2D0BAD0B0A4
:1003E00000000000000080C0C0E0F07070303030CD
:1003F00020000000000000C0E0F0F070303020006D
:1004000000003078FC7F3F0F0F1F3C78F0E0C08089
:10041000808040E0F0F8FCFF7F33131E1C1C0E07A9
:1004200000000000000000000080C0E0F0F9F7EFDD
:100430005F3F7FFEFDFBF1E0C08000000000000098
:100440000000000000000C1E33331F0F07030100E3
:10045000000000000103070F1F3F1F0E04000000F3
:10046000000102040810204080010204081020014D
:1004700002040810200000000023002600290004C8
:10048000040404040404040202020202020303033B
:1004900003030300871711241FBECFEFD8E0DEBF90
:1004A000CDBF27E0ACE8B1E001C01D92A238B20791
:1004B000E1F711E0A0E0B1E0EAE1F9E402C0059063
:1004C0000D92AC38B107D9F712E0CBE4D2E004C00A
:1004D0002197FE010E94FE1FCA34D107C9F70E946E
:1004E00021190C948B240C940000209109032817E7
:1004F000190670F1209108032617170648F110928B
:100500001207109211071092140710921307FB01A3
:1005100023E0F595E7952A95E1F733E0880F991FD9
:100520003A95E1F7E80FF91F6770772781E090E0CF
:10053000A0E0B0E004C0880F991FAA1FBB1F6A95F6
:10054000D2F7EE5FFC4F442321F02285822B828775
:100550000895809592858923FACF2F923F924F92EA
:100560005F926F927F928F929F92AF92BF92CF9243
:10057000DF92EF92FF920F931F93CF93DF9300D000
:1005800000D0CDB7DEB79C838B837B018A016901E4
:10059000109212071092110710921407109213076D
:1005A0008417950709F051C02617370724F08D2DC1
:1005B0006B01E22EF82E809109032B813C8182177A
:1005C0001306BCF40F900F900F900F90DF91CF9116
:1005D0001F910F91FF90EF90DF90CF90BF90AF9061
:1005E0009F908F907F906F905F904F903F902F9053
:1005F0000895CE14DF04E1F441E0B6018B819C81C3
:100600000F900F900F900F90DF91CF911F910F914E
:10061000FF90EF90DF90CF90BF90AF909F908F9022
:100620007F906F905F904F903F902F900C94750249
:10063000EC14FD043CF241E0B6018B819C810E94E8
:1006400075022FEFC21AD20AF3CF62177307E9F5CA
:100650008B819C81481759072CF0812F0B811C81BD
:100660004B838C83809108038E151F040CF4AACF52
:100670002B813C810217130721F441E0B701C80127
:10068000BFCF8091090390E0801791070CF48C0193
:1006900017FF02C010E000E02B813C812F5F3F4F2D
:1006A0003A8329838217930714F49A838983898173
:1006B0009A81081719070CF085CF41E0B701C801EE
:1006C0000E9475020F5F1F4FF2CF2A012B813C81E0
:1006D000421A530A57FE03C05194419451083601FF
:1006E0006E187F0877FE03C07194619471088B8146
:1006F0009C8122242394312C801791071CF0222402
:100700002A94322CEC14FD0494F521E030E03A8375
:100710002983420186189708AA24BB24A618B70883
:1007200041E0B7018B819C810E9475022B813C8145
:100730000217130721F4CE14DF0409F443CFC401D8
:10074000880F991FA816B9065CF4861897082B81A4
:100750003C81220D331D3C832B838415950504F7C2
:10076000840C951C89819A81E80EF91ED9CF8FEFF0
:100770009FEF9A838983CDCF08950895833081F0C8
:1007800028F4813099F08230A9F008958730A9F0DB
:100790008830C9F08430B1F4809180008F7D03C02F
:1007A000809180008F7780938000089584B58F7743
:1007B00084BD089584B58F7DFBCF8091B0008F7785
:1007C0008093B00008958091B0008F7DF9CFCF93D2
:1007D000DF93282F30E0F901E155FC4F8491F901B6
:1007E000EF59FB4FD491F901E158FB4FC491CC2351
:1007F000A1F081110E94BE03EC2FF0E0EE0FFF1F6D
:10080000EB58FB4FA591B491EC91ED2381E090E082
:1008100009F480E0DF91CF91089580E090E0FACF75
:100820001F93CF93DF93282F30E0F901E155FC4F60
:100830008491F901EF59FB4FD491F901E158FB4F35
:10084000C491CC23A9F0162F81110E94BE03EC2F76
:10085000F0E0EE0FFF1FEB55FC4FA591B4918FB761
:10086000F894EC91111108C0D095DE23DC938FBF72
:10087000DF91CF911F910895DE2BF8CFCF93DF93B7
:1008800090E0FC01EF59FB4F249181589B4FFC01F4
:1008900084918823D1F090E0880F991FFC01E556E0
:1008A000FC4FA591B491FC01EB55FC4FC591D4913F
:1008B000623071F49FB7F8943C91822F8095832326
:1008C0008C93E8812E2B28839FBFDF91CF910895D1
:1008D0008FB7F894EC912E2B2C938FBFF6CF3FB7A8
:1008E000F8948091DA019091DB01A091DC01B09144
:1008F000DD0126B5A89B05C02F3F19F00196A11D6B
:10090000B11D3FBFBA2FA92F982F8827BC01CD0159
:10091000620F711D811D911D42E0660F771F881FB8
:10092000991F4A95D1F708958F929F92AF92BF92E7
:10093000CF92DF92EF92FF924B015C010E946F0415
:100940006B017C010E946F046C197D098E099F095F
:10095000683E734081059105A8F321E0821A910851
:10096000A108B10888EEC80E83E0D81EE11CF11C76
:1009700081149104A104B10429F7FF90EF90DF9056
:10098000CF90BF90AF909F908F9008952FB7F8941D
:100990006091D6017091D7018091D8019091D901D1
:1009A0002FBF08950895EF92FF920F931F93CF9357
:1009B000DF938C017B01D0E0C0E0F701EC0FFD1F5D
:1009C0006491662361F0D801ED91FC910190F08172
:1009D000E02DC8010995892B11F02196EECFCE01AB
:1009E000DF91CF911F910F91FF90EF900895AF92FB
:1009F000BF92CF92DF92EF92FF920F931F93CF930C
:100A0000DF936C017B018B01040F151FEB015E016D
:100A1000AE18BF08C017D10759F06991D601ED9102
:100A2000FC910190F081E02DC6010995892B79F7A1
:100A3000C501DF91CF911F910F91FF90EF90DF9053
:100A4000CF90BF90AF900895FC01538D448D252F1A
:100A500030E0842F90E0821B930B541710F0CF9658
:100A6000089501970895FC01918D828D981761F08A
:100A7000A28DAE0FBF2FB11D5D968C91928D9F5FA1
:100A80009F73928F90E008958FEF9FEF0895FC0180
:100A9000918D828D981731F0828DE80FF11D858D33
:100AA00090E008958FEF9FEF0895FC01918D228DC6
:100AB000892F90E0805C9F4F821B91098F7399274B
:100AC000089589E592E00E94550521E0892B09F4FB
:100AD00020E0822F089580E090E0892B29F00E9489
:100AE000610581110C9400000895FC01A48DA80FEC
:100AF000B92FB11DA35ABF4F2C91848D90E0019660
:100B00008F739927848FA689B7892C93A089B1897F
:100B10008C91837080648C93938D848D981306C020
:100B20000288F389E02D80818F7D80830895EF9284
:100B3000FF920F931F93CF93DF93EC0181E0888F97
:100B40009B8D8C8D98131AC0E889F989808185FF67
:100B500015C09FB7F894EE89FF896083E889F98909
:100B600080818370806480839FBF81E090E0DF910B
:100B7000CF911F910F91FF90EF900895F62E0B8D5E
:100B800010E00F5F1F4F0F731127E02E8C8D8E1119
:100B90000CC00FB607FCFACFE889F989808185FF80
:100BA000F5CFCE010E947505F1CFEB8DEC0FFD2F37
:100BB000F11DE35AFF4FF0829FB7F8940B8FEA893B
:100BC000FB8980818062CFCFCF93DF93EC01888D4A
:100BD0008823B9F0AA89BB89E889F9898C9185FDB8
:100BE00003C0808186FD0DC00FB607FCF7CF8C9146
:100BF00085FFF2CF808185FFEDCFCE010E94750584
:100C0000E9CFDF91CF9108958F929F92AF92BF92DB
:100C1000CF92DF92EF92FF92CF93DF93EC016A01C4
:100C20007B0180E8C81A83E4D80A8DE6E80A88E3E5
:100C3000F80A8CE3882E912CA12CB12CC701B601A7
:100C4000A50194010E94B61F6D83CA01B901A501D7
:100C500094010E94B61F6C83C701B60120E13EE0FB
:100C600040E050E00E94B61FCA01B90128E130E01F
:100C700040E050E00E94B61F6B83C701B60120E838
:100C800031E541E050E00E94B61F188263E97EEF33
:100C90008881982F937041E050E011F050E040E0DF
:100CA000FA01E359FE4F2E173F0740F0FB01E41B0A
:100CB000F50B2E0F3F1F8F5F8883EACF81E089837A
:100CC00089818C30A0F4482F4150550BFA01E85728
:100CD000FC4FE491911103C0823009F4EF5FF0E022
:100CE0002E173F0720F02E1B3F0B8F5FE8CF2F5FA3
:100CF0002A83DF91CF91FF90EF90DF90CF90BF904C
:100D0000AF909F908F900895DC0150E0E8E8F3E009
:100D100081E0861730F49491490F511D8F5F319611
:100D2000F8CF633038F0CD0183709927892B11F407
:100D30004F5F5F4F9D012D5F3F4F3695279536954D
:100D400027956DE671E0A69FC001A79F900DB69F05
:100D5000900D11240197820F931F840F951F089502
:100D6000EF92FF920F931F93CF93DF93EC01888153
:100D70004A81698190E00E9484069C01A8E1B0E06C
:100D80000E94731F2B817B018C01E20EF11C011D5F
:100D9000111DA8019701ACE3B0E00E94311F2C8126
:100DA0007B018C01E20EF11C011D111DA8019701B0
:100DB0000E94311FAB01BC019D81892F90E0B0E002
:100DC000A0E080589C4BA249B74C8A019B01080FB8
:100DD000191F2A1F3B1FC901B801DF91CF911F9135
:100DE0000F91FF90EF9008950F931F93CF93DF9390
:100DF00000D000D000D0CDB7DEB7FC012081243672
:100E000010F58C010E94B006AB01BC01CE01019629
:100E10000E940406F80190818981981314C0918181
:100E20008A81981310C092818B8198130CC0938192
:100E30008C81981308C094818D81981304C081E03F
:100E400025819E81291380E026960FB6F894DEBF97
:100E50000FBECDBFDF91CF911F910F9108952091CB
:100E6000AD01260F3327331F21323105ECF42091D9
:100E70002F02FC0190E080E0243069F082E00895C8
:100E8000A091AD012191AC0143575E4FA40FB52F46
:100E9000B11D2C930196861798F38091AD01680FD0
:100EA0006093AD0180E0089581E0089510922F02D3
:100EB00081E080932E021092090261E082E10E949B
:100EC000100461E083E10E941004E9EBF0E080810E
:100ED0008E7F808380818D7F808388E48093B800BB
:100EE00085E48093BC0008951092E8011092E70118
:100EF00010923602109258020E9456078CEB93E033
:100F00009093E1018093E0018DEB93E09093DF01FA
:100F10008093DE010895CF93DF9391E090938C014D
:100F20008823B9F0C091B800D091BA008091BC007C
:100F30008A7B8093BC0060E082E10E94100460E044
:100F400083E10E9410040E945607D093BA00C09318
:100F5000B800DF91CF9108958F929F92AF92BF9288
:100F6000CF92DF92EF92FF920F931F93CF93DF9375
:100F7000D0915802D13208F0D7C0182FC091570233
:100F80000E946F046B017C0180912F0281116BC064
:100F900082E080932F0210932E028FEF80932D0218
:100FA00010922C02D0932B02A7E3B2E0EBE0F2E028
:100FB00080E0D81391C010920A0280910A02CC0FEF
:100FC000C82BC0930A0280910902813009F088C0C1
:100FD000109209020E946F046B017C0180910A0249
:100FE0008093BB008091310290913202A091330234
:100FF000B0913402892B8A2B8B2BA1F00E946F04B5
:10100000009131021091320220913302309134026A
:101010006C197D098E099F090617170728073907DC
:1010200008F442C08091BC0083FDD8CF85EC80934A
:10103000BC000E946F046B017C0180912F02823002
:1010400009F450C080912D028F3F09F46FC0809148
:101050002D02803209F46CC080912D02803309F496
:1010600069C084E026C08091310290913202A09143
:101070003302B0913402892B8A2B8B2B09F484CF55
:101080000E946F048090310290903202A09033024F
:10109000B09034026C197D098E099F098616970657
:1010A000A806B90608F070CF809130020E948B0725
:1010B00085E0109236021092580210923502DF91AC
:1010C000CF911F910F91FF90EF90DF90CF90BF9045
:1010D000AF909F908F9008959D9191938F5F69CF6E
:1010E00085EEA5CF8091310290913202A09133021A
:1010F000B0913402892B8A2B8B2B09F49ECF0E944E
:101100006F0400913102109132022091330230912C
:1011100034026C197D098E099F09061717072807E5
:10112000390708F08ACFC0CF81E0C3CF80E0C1CFBC
:1011300082E0BFCF83E0BDCFCF93DF93EC018B8103
:101140008823A1F0888191E0909335028093570223
:10115000109236021092580281E00E94AC0791E092
:10116000811190E0892FDF91CF9108950E9474073B
:1011700081E08B83CE010E949C08982F8111E2CFE1
:10118000F1CF0895E091E8018091E701E81730F48C
:10119000F0E0E751FE4F808190E008958FEF9FEFE0
:1011A00008959091E8018091E7012FEF3FEF9817A4
:1011B00048F4E92FF0E0E751FE4F208130E09F5FD7
:1011C0009093E801C90108958091E7019091E801A9
:1011D000891B990B0895CF92DF92EF92FF920F93A4
:1011E0001F93CF93DF937C01CB018A0120913502BD
:1011F000222389F0EB016B01C40ED51ECC15DD0551
:1012000069F06991D701ED91FC910190F081E02D99
:10121000C7010995F3CF642F0E942F07C801DF9102
:10122000CF911F910F91FF90EF90DF90CF90089595
:10123000CF93DF931F92CDB7DEB76983209135023C
:101240002223F9F020915802203258F021E030E0BA
:10125000FC013383228390E080E00F90DF91CF91F7
:10126000089580913602E82FF0E0E95CFD4F998106
:1012700090838F5F809336028093580281E090E0E4
:10128000ECCF61E0CE0101960E942F07F7CF60E01E
:101290008BE00E94100461E08CE00C9410048F92AB
:1012A0009F92AF92BF92CF92DF92EF92FF92CF9335
:1012B000DF93EC010E94C6046B017C018D818111DA
:1012C0002BC0CE010E94B0064B015C018FE697E077
:1012D0000E94B006861A970AA80AB90A8CE38816F3
:1012E0009104A104B104C4F0C0926B07D0926C07C2
:1012F000E0926D07F0926E0786E0FE01AFE6B7E080
:1013000001900D928A95E1F78C8180FF31C00E9497
:10131000470981E080937507809175078823E9F07C
:1013200080916B0790916C07A0916D07B0916E074B
:10133000C81AD90AEA0AFB0A80EDC81687E0D8065F
:10134000E104F10450F060E08CE00E94100460E0E1
:101350008BE00E94100410927507DF91CF91FF90EF
:10136000EF90DF90CF90BF90AF909F908F900895B7
:1013700060E08CE00E94100461E08BE00E941004A9
:10138000C8CFDC01ED91FD918081ED91FD919081BF
:10139000ED91FD916C9163708E2309F064609F2341
:1013A00009F06860EEEDF9E0E60FF11D65956595D1
:1013B0006D936D917D918D919D91099423C01AC07B
:1013C00012C016C010C01EC009C014C013C006C091
:1013D00019C009C00DC007C00DC014C062507040D4
:1013E000804090400BC0615070408040904006C0EB
:1013F0006E5F01C06F5F7F4F8F4F9F4F9E938E93A5
:101400007E936E93089580912407909125070C9404
:10141000C10980912607909127070C94C109682F74
:1014200086EF92E00C9418098091060391E0909366
:10143000350280935702109236021092580280E0D3
:101440000C940F0ACF93DF93EC0181E00E94AC076C
:10145000188283E090E00197F1F7DF91CF91089532
:101460000E940F0A809117078F5F809317078031C2
:1014700090F087E197E00E94220A8091060391E0B4
:1014800090933502809357021092360210925802C0
:1014900080E40C940F0A08950F931F93CF93DF936A
:1014A0008C01EB010E94140A81E20E940F0A80E085
:1014B0000E940F0A8091090390E0081719070CF4A5
:1014C000C8010E940F0A82E20E940F0A80E00E9477
:1014D0000F0A8091070390E0C817D9070CF4CE01DA
:1014E0000E940F0A87E197E0DF91CF911F910F9142
:1014F0000C94220ACF93DF936091070370E08091F0
:10150000090390E00E944C0A8091060391E09093B9
:10151000350280935702109236021092580280E4EE
:101520000E940F0ACCE0D3E089910E94300A87E044
:10153000CC30D807C9F787E197E0DF91CF910C94C1
:10154000220A0F931F930130110559F10230110542
:1015500009F44AC0012B11F5FC01E15FFB4F01903A
:10156000F081E02D2E0F3F2F311DB3E0220F331FEE
:10157000BA95E1F7FC01EF5EFB4F0190F081E02DA1
:1015800013E0F595E7951A95E1F7E20FF31FE40FE5
:10159000F11DE80FF91F8285682B62871F910F915B
:1015A0000895FC01E15FFB4F0190F081E02D2E0FCB
:1015B0003F2F311DE3E0220F331FEA95E1F7FC01D5
:1015C000EF5EFB4F0190F081E02DA3E0F595E795EC
:1015D000AA95E1F7E20FF31FE40FF11DE80FF91FE1
:1015E000609582856823D9CFFC01E15FFB4F0190B4
:1015F000F081E02D2E0F3F2F311D53E0220F331FBE
:101600005A95E1F7FC01EF5EFB4F0190F081E02D70
:1016100073E0F595E7957A95E1F7820F931FE80F50
:10162000F91FE40FF11DB9CF2F923F924F925F92B5
:101630006F927F928F929F92AF92BF92CF92DF92E2
:10164000EF92FF920F931F93CF93DF93CDB7DEB747
:1016500067970FB6F894DEBF0FBECDBF9F8B8E8B02
:10166000F62EFC01E25FFB4F208130E03396845F71
:101670009B4F6C014DE064133DC08E899F89815F53
:101680009B4FDC011D921C9281E0F12C4E895F89F9
:10169000455F5B4FDA016C916623D1F14E895F891A
:1016A000435F5B4FDA019C910E891F89015F1B4FDD
:1016B000D8014D915C91B6E09B9F400D511D1124C6
:1016C000AE89BF8917969C919417150609F004F509
:1016D00080819181D8011D921C92820F931F91836A
:1016E00080834E895F894D5E5B4F80818770DA0110
:1016F0008C9310C0BAE080E06B13C8CF80819181D9
:10170000820F931F9183808381E0D6018C93BDCF9C
:101710008111E7CF80819181280F391FEE89FF89E0
:10172000868190E00196821793070CF4F12CD60184
:101730008C91882359F1662349F1B0E2FB1226C04F
:10174000EE89FF89E15FFB4F80819181892B09F050
:1017500048C0F601108281E090E067960FB6F894D9
:10176000DEBF0FBECDBFDF91CF911F910F91FF90D4
:10177000EF90DF90CF90BF90AF909F908F907F9031
:101780006F905F904F903F902F900895F7FE50C05C
:10179000EE89FF89EC5EFB4F2FEB2F15C0F08081A7
:1017A000813D39F431E9F31241C0F082E0ECFE2EC4
:1017B00018C0803D39F441E8F41238C0F082F5E9F0
:1017C000FF2E0FC0823E29F450E8F5122FC0F082A0
:1017D000C2CF803859F564E9F61228C0F082ADE234
:1017E000FA2E8E899F89815F9B4F9A838983DC01C2
:1017F0002D913C91EE89FF89E35FFB4FFB87EA87E0
:101800008081A90166E0869F400D511D1124CA0107
:1018100057FD07C0AE89BF8917964C914217130632
:101820005CF4E981FA819183808395CFF082D9CFEE
:10183000FF2009F490CFD5CFF0EEFF0DF9878F2F61
:1018400090E0AC014150510925E0249FB001259F53
:10185000700D11247F876E8760557109798B688BB5
:101860008F96289FD001299FB00D1124BD87AC878A
:10187000AB5EB109BB8BAA8BD12CC12CEA85FB8551
:10188000FC83EB832E893F892D5E3B4F3E832D8366
:101890004E895F894A5E5B4F58874F8355E060E011
:1018A000C516B9F06985EA89FB89603668F080E879
:1018B0008F0DEC85FD85803138F07985E889F989CF
:1018C000703A10F0EE85FF85E859FF4FEC0DFD1DD5
:1018D0006491EE89FF89E65FFB4F808181116095FD
:1018E000AB81BC819C91913009F053C0EE89FF8996
:1018F000E15FFB4F8081918197FD35C0EE89FF89C3
:101900002781281719067CF1AD81BE818C91EF816A
:10191000F885008110E020E040E0882301F1A62E48
:10192000B12CB50101C0660F8A95EAF720E040E0CE
:101930008E899F890E94A10AAF81B8850C9110E021
:10194000ED81FE81808128E030E0281B3109B5015E
:1019500002C0759567952A95E2F720E041E08E89EF
:101960009F890E94A10AEA85FB858081A981BA81AD
:101970002D913C911197820F932F911D8D939C93E4
:10198000BFEFCB1ADB0AE6E0CE16D10409F086CF12
:10199000E2CE30E020E080E0812C912C5401E62F53
:1019A000F0E0AF01022E02C0559547950A94E2F788
:1019B00041705527692F680F8617F1F0412C512C83
:1019C00032014394082E04C0440C551C661C771C3D
:1019D0000A94D2F74115510531F084289528A6289C
:1019E000B7288F5FE9CF409450946094709484201E
:1019F0009520A620B720F5CF2F5F3F4F2830310527
:101A000081F6312C4E895F89415F5B4F5D8B4C8B3A
:101A1000AC89BD898D919C91EB81FC81208132162E
:101A200008F0A1CF830D911D97FD47C0AE89BF89F6
:101A300017962C91281719060CF43FC0212CE12C85
:101A4000ED81FE812081AB81BC818C912816B0F59F
:101A5000B8E02B9EC00111242401350104C0769406
:101A60006794579447948A95D2F7EF81F88500815F
:101A700010E0211109C0232D422D642D8E899F89EC
:101A80000E94A10A2394DCCF6E2D70E088E090E0E4
:101A9000821B910902C0759567958A95E2F7842D9E
:101AA00001C0880F2A95EAF7682B232D422D8E89D5
:101AB0009F890E94A10AE42CE5CFE12CAD81BE8173
:101AC0008C918823B9F0EF81F885008110E06E2DAC
:101AD00070E028E030E0281B310902C07595679559
:101AE0002A95E2F7232DAB81BC814C918E899F8989
:101AF0000E94A10A33948CCF089590E080E008956D
:101B00002F923F924F925F926F927F928F929F920D
:101B1000AF92BF92CF92DF92EF92FF920F931F93FB
:101B2000CF93DF935C011B016A01F12CE12CD501FD
:101B300014968D919C9186010E191F0980179107AB
:101B400008F48C01F501D0810E946F042B013C0147
:101B500080912F02811172C0C02F013208F0C0E2C3
:101B6000F1E0F0932F0221E0C601801B910BE816F3
:101B7000F90608F420E020932E028FEF80932D02C7
:101B800010922C028C0F80932B02A1E0A0930A02EA
:101B900080910A02DD0FD82BD0930A0280910902AE
:101BA000813009F090C0109209020E946F042B014D
:101BB0003C0180910A028093BB0080913102909198
:101BC0003202A0913302B0913402892B8A2B8B2BE5
:101BD000A1F00E946F0420913102309132024091B5
:101BE0003302509134026419750986099709261742
:101BF00037074807590708F442C08091BC0083FDAD
:101C0000D8CFB5ECB093BC000E946F042B013C010F
:101C100080912F02813009F45AC080912C028C17D8
:101C200010F4C0912C02ABE0B2E0E9EEF1E080E00C
:101C30008C1751F19D9191938F5FFACF8091310272
:101C400090913202A0913302B0913402892B8A2BF9
:101C50008B2B09F47DCF0E946F04209131023091CB
:101C60003202409133025091340264197509860999
:101C70009709261737074807590708F069CF809159
:101C800030020E948B07C0E01092E801C093E70188
:101C9000C017110609F057C041018E0C9F1CE401CA
:101CA000CE01881999098017910798F5D5011196E9
:101CB0008D919C91DC01ED91FC910284F385E02DE6
:101CC00009958993EDCFE5EEE093BC009DCF80911F
:101CD000310290913202A0913302B0913402892BEB
:101CE0008A2B8B2B09F494CF0E946F042091310230
:101CF00030913202409133025091340264197509D7
:101D000086099709261737074807590708F080CF33
:101D1000B6CFE00EF11EEC14FD0408F408CF81E00C
:101D2000DF91CF911F910F91FF90EF90DF90CF90B7
:101D3000BF90AF909F908F907F906F905F904F90EB
:101D40003F902F90089580E0EBCF1F93CF93DF93C8
:101D5000DC011496ED91FC91E417F50710F490E086
:101D60001FC0122FEA01FC0181819281208131E0A4
:101D70003093350220935702109236021092580287
:101D8000DC01ED91FC910280F381E02D0995C817EB
:101D9000D90729F7812F0E94AC0791E08111DFCF8D
:101DA000892FDF91CF911F910895EF92FF920F93AA
:101DB0001F93CF93DF9300D000D000D01F92CDB7F8
:101DC000DEB78C011982DB01ED90FC9020E041E050
:101DD00050E0BE016F5F7F4FC7010E94A50E8823B0
:101DE00041F047E050E0BE016F5F7F4FC7010E94A6
:101DF000800DE981EF77FA81FB805D814E814F771D
:101E00008F81282F30E094E0359527959A95E1F75A
:101E1000922F990F990F291B220F280FD8012C936D
:101E2000842F90E024E0959587952A95E1F7982FE7
:101E3000990F990F891B880F840F11968C93119716
:101E4000652F70E034E0759567953A95E1F7862F38
:101E5000880F880F681B660F650F12966C93129798
:101E60004F2D50E064E0559547956A95E1F7842F32
:101E7000880F880F481B440F4F0D13964C931397F0
:101E80002F2F30E074E0359527957A95E1F7822F72
:101E9000880F880F281B220F2F0F14962C9314974E
:101EA0008E2F90E0F4E095958795FA95E1F7982FBD
:101EB000990F990F891B880F8E0F15968C93C80167
:101EC00027960FB6F894DEBF0FBECDBFDF91CF913E
:101ED0001F910F91FF90EF900895CF92DF92EF92B4
:101EE000FF920F931F93CF93DF9300D0CDB7DEB750
:101EF00021E129831A82FC010081118120E041E067
:101F000050E0BE016F5F7F4FC8010E94A50E88237D
:101F100041F042E050E0BE016F5F7F4FC8010E9478
:101F2000800D6A8170E086E0759567958A95E1F786
:101F3000072E000C880B990B0E94141E20E030E045
:101F400040E85EE30E94731E6B017C01698170E0D2
:101F500090E080E00E94121E9B01AC01C701B60117
:101F60000E9405200F900F90DF91CF911F910F914C
:101F7000FF90EF90DF90CF900895CF92DF92EF9295
:101F8000FF920F931F93CF93DF93CDB7DEB72B97BD
:101F90000FB6F894DEBF0FBECDBF7C018B01CE0122
:101FA00001966C0188E0F60111928A95E9F7FB0130
:101FB00035812AE0832F622F0E94821F982F880F7D
:101FC000890F880F830F8A833481832F0E94821F99
:101FD000982F880F890F880F830F8B833381832F6E
:101FE0000E94821F982F880F890F880F830F8C8380
:101FF00080814281618190E00E948406069667E0BC
:1020000070E00E948E1F811101C087E08D83F8016E
:1020100032812AE0832F622F0E94821F982F880F1F
:10202000890F880F830F8E833181832F0E94821F37
:10203000982F880F890F880F830F8F833081832F0C
:102040000E94821F982F880F890F880F830F88871F
:1020500021E048E050E0B601F701808191810E94C3
:10206000A50E1FE01B8721E041E050E0BE01655F47
:102070007F4FF701808191810E94A50E41E050E0E1
:10208000BE01675F7F4FF701808191810E94800DC3
:10209000898519878F778A8721E042E050E0BE0169
:1020A000675F7F4FF701808191810E94A50E2B967B
:1020B0000FB6F894DEBF0FBECDBFDF91CF911F9159
:1020C0000F91FF90EF90DF90CF9008950F931F93A3
:1020D000CF93DF9300D000D000D0CDB7DEB7FC01A6
:1020E00005E417E0D80152968C91529750969C9136
:1020F00050971E962C911E973281418150815983B1
:102100004A833B832C839D838E83BE016F5F7F4F09
:102110008D919C910E94BD0FF80110861782269622
:102120000FB6F894DEBF0FBECDBFDF91CF911F91E8
:102130000F910895CF93DF930E9474070E94140AB1
:10214000C3ECD3E0FE0184910E94300A2196F3E0B3
:10215000C23DDF07B9F787E197E00E94220A0E949B
:10216000140A8AED0E94300A82E10E94300A88EA4D
:102170000E94300A8FE30E94300A87E197E00E94B4
:10218000220A10921207109211071092140710924F
:102190001307109215076091070370E080910903FF
:1021A00090E00E944C0A0E94140A81E80E940F0AE3
:1021B00086EE0E940F0A87E197E00E94220A409172
:1021C0000A0350910B0370E060E08CE093E00E9402
:1021D000CF21809113078770809315070E94C60452
:1021E00060934707709348078093490790934A0785
:1021F000DF91CF91089540910A0350910B0370E055
:1022000060E08CE093E00E94CF21809113078770FB
:10221000809315070895FB0101900020E9F731979D
:10222000AF01461B570BDC01ED91FC910280F3815D
:10223000E02D09948F929F92AF92BF920F931F93BC
:10224000CF93DF93CDB7DEB7A1970FB6F894DEBF7B
:102250000FBECDBF19A2423008F44AE08E010F5DD7
:102260001F4F842E912CB12CA12CA50194010E940A
:10227000B61FE62FB901CA01EA3004F5E05DD801C6
:10228000EE938D01232B242B252B79F790E080E012
:10229000109729F0BD0182E093E00E940B11A196F6
:1022A0000FB6F894DEBF0FBECDBFDF91CF911F9167
:1022B0000F91BF90AF909F908F900895E95CDFCF12
:1022C0008F929F92AF92BF92CF92DF92EF92FF9246
:1022D0000F931F93CF93DF93CDB7DEB762970FB6FF
:1022E000F894DEBF0FBECDBF8C01FC0181818F93BE
:1022F00080818F932AE3E22E21E0F22EFF92EF926B
:102300001F9233E0932E9F926E01F0E1CF0ED11C0D
:10231000DF92CF920E94DD21F80183818F93828129
:102320008F93FF92EF921F929F925E01FDE0AF0E9E
:10233000B11CBF92AF920E94DD21F80185818F937D
:1023400084818F93FF92EF921F929F927E01FAE019
:10235000EF0EF11CFF92EF920E94DD21F8018285C1
:102360000FB6F894DEBF0FBECDBF80FF02C090E273
:10237000988B81FF02C080E2898BF801838580FF02
:1023800002C090E29D8781FF02C080E28E87F80143
:10239000848580FF02C090E29A8781FF02C080E2BC
:1023A0008B87FF92EF92BF92AF92DF92CF928FE333
:1023B00091E09F938F931F9289E08F939E012F5FEF
:1023C0003F4F59013F932F930E94DD210E94FB1044
:1023D00082E0D82ED0920F0790E1E92EE09210070C
:1023E00080E190E0909312078093110710921407F8
:1023F0001092130710921507B50182E093E00E9436
:102400000B11FF24F394F0920F0788E080931007DC
:102410008CE090E090931207809311078CE190E09C
:10242000909314078093130784E08093150768E462
:1024300071E082E093E00E940B1120E230E04AE07C
:1024400050E060E270E088E090E00E94AD0220E29F
:1024500030E048E750E060E270E080E590E00E9404
:10246000AD022FE330E048E050E060E270E088E049
:1024700090E00E94AD022FE330E048E750E060E2D8
:1024800070E088E790E00E94AD02D0920F07E092E2
:10249000100784E190E0909312078093110789E27E
:1024A00090E09093140780931307F09215070FB6EE
:1024B000F894DEBF0FBECDBF20E030E0A901F801E7
:1024C00066817781808591850E94A02087FD06C066
:1024D0006FE571E082E093E00E940B11F801C68085
:1024E000D780E084F184A7019601C701B6010E945C
:1024F000A52061E671E081111BC046015701E894F7
:10250000B7F82FEF3FEF4FE75FE7C501B4010E9437
:10251000A5208111D1C02FEF3FEF4FE75FE7C50145
:10252000B4010E940D1E18160CF0C6C065E671E0DD
:1025300082E093E00E940B1141E06AE270E081E6E4
:1025400090E00E94750241E066E270E081E690E072
:102550000E94750241E068E270E083E690E00E942C
:10256000750241E068E270E08FE590E00E9475023C
:1025700041E06AE270E082E690E00E94750241E08C
:102580006AE270E080E690E00E94750241E066E257
:1025900070E082E690E00E94750241E066E270E041
:1025A00080E690E00E94750241E069E270E083E617
:1025B00090E00E94750241E069E270E08FE590E0F2
:1025C0000E94750241E067E270E083E690E00E94BD
:1025D000750241E067E270E08FE590E00E947502CD
:1025E00041E069E270E083E690E00E94750241E01C
:1025F00069E270E08FE590E00E94750241E067E2D9
:1026000070E083E690E00E94750241E067E270E0CE
:102610008FE590E00E94750241E06AE270E082E698
:1026200090E00E94750241E06AE270E080E690E08E
:102630000E94750241E066E270E082E690E00E944E
:10264000750241E066E270E080E690E00E9475026B
:1026500084E690E0909312078093110789E290E05E
:10266000909314078093130781E0809315076DE61C
:1026700071E082E093E00E940B112FE330E048E725
:1026800050E06FE370E088E090E00E94AD020E94AD
:102690007A0A62960FB6F894DEBF0FBECDBFDF9107
:1026A000CF911F910F91FF90EF90DF90CF90BF904F
:1026B000AF909F908F9008952FEF3FEF4FE75FE42B
:1026C000C701B6010E94A02018161CF469E671E04B
:1026D0002FCF2FEF3FEF4FE75FECC701B6010E940E
:1026E0000D1E87FDF3CF20E030E0A901C701B60140
:1026F0000E940D1E87FF09C06DE282E093E00E94F8
:10270000140BF7FAF094F7F8F0942AE037ED43EA67
:102710005BE3C701B6010E9405204B015C010E94EA
:1027200071206B017C010E94121E9B01AC01C5014E
:10273000B4010E9404204B015C014AE0C701B601CC
:102740000E941A116EE282E093E00E94140B20E0D6
:1027500030E040E251E4C501B4010E94731E4B0118
:102760005C010E9471206B01F12CE12C4AE0C70151
:10277000B6010E941A11C701B6010E94121E9B01E8
:10278000AC01C501B4010E94042020E030E040E229
:1027900051E40E94731E0E94712090E080E04AE0A4
:1027A0000E941A11C9CE5F926F927F928F929F9270
:1027B000AF92BF92CF92DF92EF92FF920F931F934F
:1027C000CF93DF93CDB7DEB764970FB6F894DEBF33
:1027D0000FBECDBF0E94C604AB01BC018091E301D6
:1027E0009091E401A091E501B091E6018A019B017D
:1027F000081B190B2A0B3B0BD901C8018A3F910515
:10280000A105B10580F08091E20190E0019683700E
:1028100099278093E2014093E3015093E401609390
:10282000E5017093E6016FE671E0CE0101960E942A
:10283000D6210E94FB1082E080930F0780E18093F5
:10284000100788E090E09093120780931107109290
:1028500014071092130710921507BE016F5F7F4F88
:1028600082E093E00E940B11F12C8091E201F816B6
:1028700040F467E871E082E093E00E940B11F3946A
:10288000F4CF1092120710921107109214071092B1
:1028900013071092150798E2E92EF12C28E0622E1A
:1028A000712C809109038E151F0444F19701275460
:1028B0003C4F4901512C84E0C82ED12CF401A59045
:1028C000B490209115078091070390E0211135C045
:1028D0008C159D054CF010E000E02E2D4C2D6A2D3E
:1028E00082E093E00E94A10A3FEFC31AD30A80E27C
:1028F000880E911C98E0C916D10401F70FEFE01A79
:10290000F00A18E4E116F10461F60E947A0A64966E
:102910000FB6F894DEBF0FBECDBFDF91CF911F91F0
:102920000F91FF90EF90DF90CF90BF90AF909F906E
:102930008F907F906F905F9008958C159D05CCF0DF
:10294000652D70E0C301821B910902C075956795E2
:102950008A95E2F7C501992701C0880F2A95EAF701
:10296000682B10E000E02E2D4C2D82E093E00E94B9
:10297000A10A5A2CB9CFEF92FF920F931F93CF93D6
:10298000DF93CDB7DEB72A970FB6F894DEBF0FBE40
:10299000CDBF2BE831E097FD02C02FE531E09F93DA
:1029A0008F933F932F938EE791E09F938F931F9286
:1029B0008AE08F93CE0101967C019F938F930E94B2
:1029C000DD210E94FB1002E000930F0710E110933D
:1029D000100784E190E09093120780931107109202
:1029E0001407109213071092150762ED73E082E04E
:1029F00093E00E94D30483E080930F0788E18093E3
:102A0000100785E090E0909312078093110788E209
:102A100090E0909314078093130710921507B70165
:102A200082E093E00E940B1100930F0710931007B0
:102A30008CE590E0909312078093110780E390E07B
:102A400090931407809313071092150763E871E0C1
:102A500082E093E00E940B110E947A0A0FB6F8946C
:102A6000DEBF0FBECDBF2A960FB6F894DEBF0FBEF5
:102A7000CDBFDF91CF911F910F91FF90EF900895FF
:102A800085ED8093BC008091310290913202A0913B
:102A90003302B09134020796A11DB11D23E0B69513
:102AA000A795979587952A95D1F72091BC0024FD8D
:102AB00003C010922F0208954091310250913202CA
:102AC0006091330270913402452B462B472B69F3FA
:102AD0000097A105B10541F02AE22A95F1F700C05F
:102AE0000197A109B109E1CF809130020C948B07C5
:102AF0001F920F920FB60F9211242F933F938F9333
:102B00009F93AF93BF938091D6019091D701A091ED
:102B1000D801B091D9013091D50123E0230F2D3791
:102B200058F50196A11DB11D2093D5018093D601C2
:102B30009093D701A093D801B093D9018091DA0185
:102B40009091DB01A091DC01B091DD010196A11D06
:102B5000B11D8093DA019093DB01A093DC01B09367
:102B6000DD01BF91AF919F918F913F912F910F9078
:102B70000FBE0F901F90189526E8230F0296A11DF7
:102B8000B11DD2CF1F920F920FB60F9211242F9327
:102B90003F934F935F936F937F938F939F93AF93E5
:102BA000BF93EF93FF93E0910201F0910301099528
:102BB000FF91EF91BF91AF919F918F917F916F9115
:102BC0005F914F913F912F910F900FBE0F901F90EB
:102BD00018951F920F920FB60F9211242F933F93C7
:102BE0004F935F936F937F938F939F93AF93BF9315
:102BF000EF93FF93E0910001F09101010995FF919E
:102C0000EF91BF91AF919F918F917F916F915F9164
:102C10004F913F912F910F900FBE0F901F901895DD
:102C20001F920F920FB60F9211242F933F934F9341
:102C30005F936F937F938F939F93AF93BF93EF9324
:102C4000FF9389E592E00E947505FF91EF91BF9196
:102C5000AF919F918F917F916F915F914F913F9134
:102C60002F910F900FBE0F901F9018951F920F92EB
:102C70000FB60F9211242F938F939F93EF93FF938F
:102C8000E0916902F0916A028081E0916F02F09117
:102C9000700282FD1BC09081809172028F5F8F73E2
:102CA00020917302821741F0E0917202F0E0E75A3E
:102CB000FD4F958F80937202FF91EF919F918F91BD
:102CC0002F910F900FBE0F901F9018958081F4CF19
:102CD0001F920F920FB60F9211242F933F934F9391
:102CE0005F936F937F938F939F93AF93BF93EF9374
:102CF000FF938091B900887F803609F44AC0F0F5CF
:102D0000883209F4A7C018F5803109F49BC0B8F4E3
:102D1000882309F4F9C0883009F494C0FF91EF9139
:102D2000BF91AF919F918F917F916F915F914F91E3
:102D30003F912F910F900FBE0F901F9018958831E3
:102D400009F488C0803251F780932D0214C080347A
:102D500009F49DC040F48033B9F38833F9F68093C9
:102D60002D0285ECB0C0803509F485C0883509F4A2
:102D700096C0883499F60E944015D0CF883909F45E
:102D80008CC038F5883729F050F4883611F0803738
:102D900029F683E080932F021092CF0157C0883824
:102DA00009F47BC0803919F0803809F0B7CF8091E1
:102DB000CF01803208F071C0E091CF0181E08E0F29
:102DC0008093CF018091BB00F0E0E155FE4F8083FE
:102DD0003DC0803B39F0E0F4803A09F479C0883A8C
:102DE00009F09CCF84E080932F021092AE011092E4
:102DF000AD01E091E001F091E10109958091AD0113
:102E000081110FC081E08093AD0110928D0109C046
:102E1000803C09F4A6CF883C09F4A3CF883B09F095
:102E20007DCFE091AE0181E08E0F8093AE01F0E0A6
:102E3000E357FE4F80818093BB009091AE0180915B
:102E4000AD0129C080910A028093BB0085EC80937C
:102E5000BC0064CF90912C0280912B02981758F5FA
:102E6000E0912C0281E08E0F80932C02F0E0E55F70
:102E7000FD4F8081E9CFE0912C0281E08E0F80939D
:102E80002C028091BB00F0E0E55FFD4F80839091C4
:102E90002C0280912B029817C8F285E8D8CFE091D8
:102EA0002C0281E08E0F80932C028091BB00F0E019
:102EB000E55FFD4F808380912E0281115CCF81E020
:102EC0008093090284EA8093BC0010922F0226CFDF
:102ED00085EC8093BC0010922F028091CF0180324C
:102EE00030F4E091CF01F0E0E155FE4F10826091A7
:102EF000CF0170E0E091DE01F091DF018FEA91E017
:102F000009951092CF010ACF10922D0234CFCF93A2
:102F1000DF9310925C0210925B0288EE93E0A0E0D7
:102F2000B0E080935D0290935E02A0935F02B09345
:102F300060022EE031E030935A022093590225ECD2
:102F400030E0309366022093650224EC30E0309349
:102F500068022093670220EC30E030936A022093ED
:102F6000690221EC30E030936C0220936B0222EC7A
:102F700030E030936E0220936D0226EC30E0309307
:102F8000700220936F0210927202109273021092DC
:102F90007402109275021092F9021092F802809356
:102FA000FA029093FB02A093FC02B093FD0280E230
:102FB00091E09093F7028093F6021092050310922D
:102FC000040382E391E090930303809302038CE374
:102FD0008093060387E0809307038FE380930803C1
:102FE0008FE78093090380E094E090930B03809334
:102FF0000A0310920C0710920D0710920E07C1E001
:10300000C0930F0788E08093100710921207109268
:1030100011071092140710921307109215071092BF
:10302000170782E080931807109223071092770702
:1030300010927607109278071092790710927A070B
:1030400010927B0710927C0710927D0710925E070A
:103050001092600710925F0710926207109261074A
:10306000109263071092640710926507109266072A
:1030700010926707109268071092690710926A070A
:1030800010926B0710926C0710926D0710926E07EA
:103090004FEF5FEFBA018FE697E00E9404061092AF
:1030A000750786E797E0909346078093450710924F
:1030B0004707109248071092490710924A07C09399
:1030C0004B0710924D0710924C0710924E0710922A
:1030D0004F0710925007109251071092520710920A
:1030E00054071092530710925607109255071092EA
:1030F0005807109257071092590710925A071092CA
:103100005B0710925C07C0935D0762E083E00E945A
:103110003E0462E082E00E943E04E2E8F4E0E491D2
:10312000F0E0EE0FFF1FEB58FB4FA591B491B09369
:103130002907A0932807E4E6F4E0449140932C0784
:10314000E1E8F4E0E491F0E0EE0FFF1FEB58FB4FF5
:10315000C591D491D0932B07C0932A07E3E6F4E0FE
:10316000E491E0932D0710922F07109230071092F0
:103170003107109232072BE33FE1C9010197F1F7C4
:103180009C91842F892391E009F490E08881E823C1
:1031900009F0926028E237E090932E0730932707DA
:1031A0002093260789E09AE090930301809302011F
:1031B00080916900837F846080936900E99A81E04F
:1031C00080933307309325072093240783E09AE008
:1031D0009093010180930001809169008C7F816050
:1031E00080936900E89A82E0809333071092340755
:1031F0001092350710923607109237071092380751
:103200001092390710923A0710923B0710923D072F
:1032100010923C0710923E0785E497E09093400798
:1032200080933F078EE597E0909342078093410794
:1032300086E797E09093440780934307DF91CF910F
:103240000895CF93DF93CDB7DEB763970FB6F894A9
:10325000DEBF0FBECDBF789484B5826084BD84B5D7
:10326000816084BD85B5826085BD85B5816085BD81
:1032700080916E00816080936E0010928100809139
:1032800081008260809381008091810081608093C1
:103290008100809180008160809380008091B100E6
:1032A00084608093B1008091B00081608093B00011
:1032B00080917A00846080937A0080917A008260A5
:1032C00080937A0080917A00816080937A00809167
:1032D0007A00806880937A001092C100E0916902C0
:1032E000F0916A0282E08083E0916502F0916602CB
:1032F0001082E0916702F09168028FEC8083109257
:103300007102E0916D02F0916E0286E08083E0919F
:103310006B02F0916C02808180618083E0916B028E
:10332000F0916C02808188608083E0916B02F09163
:103330006C02808180688083E0916B02F0916C0266
:1033400080818F7D808362E086E00E943E0462E09F
:1033500085E00E943E040E94740780917607909158
:103360007707009711F00E94462186E090E00E94C6
:10337000AA208C0188E6F801808386EF92E0928390
:103380008183138280E290E0958384831093770792
:10339000009376070E94740781E0F8018383C801D7
:1033A0000E949C088111DFC063E973E089E592E027
:1033B0000E94D30469E871E089E592E00E940B1154
:1033C0000E949A1062E084E00E943E0480913307DC
:1033D000823008F0D3C0F89488E297E00E94C109D7
:1033E00080912F0790913007A0913107B09132075B
:1033F00078948093340790933507A0933607B09361
:1034000037070E94C604609338077093390780938A
:103410003A0790933B0761E08CE00E943E0461E034
:103420008BE00E943E0460E08CE00E94100460E0AB
:103430008BE00E94100464E170E080E090E00E9464
:10344000940464E0462E512C612C712C88248394C2
:10345000912C80913E07882309F449C0809133075D
:10346000823008F08DC0F89488E297E00E94C1098C
:1034700060912F077091300780913107909132074A
:103480007894A30192010E94D81F69017A0180916A
:10349000340790913507A0913607B0913707C816C9
:1034A000D906EA06FB0619F188E89FEFF8E8CF167F
:1034B000FFEFDF06EF06FF0664F0322F2D2D49E700
:1034C000C416D104E104F10414F038E720E0832F9E
:1034D000922F90933D0780933C070E94BB14C092AB
:1034E0003407D0923507E0923607F09237070E94F2
:1034F000C60420915E07222309F467C00091630788
:103500001091640720916507309166076B017C017B
:10351000C01AD10AE20AF30A97018601003D17405A
:103520002105310508F451C0609363077093640767
:103530008093650790936607209161073091620739
:1035400020FD29C0C90197FD019681FD1BC00E9485
:1035500047098091610790916207019690936207F5
:103560008093610732C066E777E0CE0101960E9442
:10357000D50ECE0101960E94F40622CFF89430CFEA
:10358000F89476CF60E08CE00E94100461E08BE05C
:103590000E941004DECF60E08CE00E94100460E026
:1035A0008BE00E9410048091610790916207019660
:1035B00097FD01969595879520915F07309160075B
:1035C0008217930734F210925E0784E00E94E703AB
:1035D000892B09F040C00E94C60400913807109161
:1035E000390720913A0730913B07601B710B820B22
:1035F000930B6D3271408105910568F10E94C604FC
:10360000609338077093390780933A0790933B078C
:1036100080913E07811178C010923D0710923C07BF
:10362000F89410922F0710923007109231071092E1
:1036300032077894109234071092350710923607AB
:103640001092370781E080933E0780913C0790916C
:103650003D070E94BB1480914B07882351F10E94C3
:10366000C6040091470710914807209149073091FF
:103670004A07601B710B820B930B61367A4E8105F2
:103680009105B8F010924B078091060391E090935A
:10369000350280935702109236021092580280E849
:1036A0000E940F0A8EEA0E940F0A87E197E00E94AB
:1036B000220A80913E07882309F48DC080913C073F
:1036C00090913D070E94BB1480914B07882309F419
:1036D00082C280914C0790914D07009709F447C131
:1036E0008230910509F490C28330910509F4B0C08D
:1036F000019709F03CC122E0C22ED12C38E1E32E23
:10370000F12C03E517E0ABC0F0903C0700914307B4
:1037100010914407B801CE010E960E94D50ECE013D
:103720000E960E94F406882319F1AF2DFF0CBB0BF7
:103730002CE330E00E94F71F6B017C01CE010E9656
:103740000E94B006AB01BC014C0D5D1D6E1D7F1DBE
:10375000CE0101960E940406CE0101960E94F40655
:10376000882331F0BE016F5F7F4FC8010E94BD0FFB
:1037700010923E0780913C0790913D07892BB9F04C
:103780000E94D313009141071091420780913C079A
:1037900090913D07181619067CF060E08CE00E94BD
:1037A000100460E08BE00E941004F8011082109277
:1037B0003D0710923C074FCFF8019283818314821A
:1037C000138281E080830E94C604F80165837683BA
:1037D00087839087ECCF80915E07882319F00E9441
:1037E000D31372CF6091450770914607CE010E96B4
:1037F0000E94D50ECE010E960E94F4068823E9F0B1
:10380000898990E09A8389838A8990E09C838B835D
:103810008B8990E09E838D83809145079091460728
:103820000E946D0F6F83788789879A871B861C8615
:103830001D86CE0101960E94601166E777E0CE01F9
:1038400001960E94D50ECE0101960E944F093CCFF1
:10385000D12CC12C4CE3E42EF12C07E517E00E949B
:10386000C60420914E0730914F0740915007509168
:103870005107621B730B840B950B653F71408105EB
:10388000910580F08091520791E08927809352073B
:103890000E94C60460934E0770934F0780935007B1
:1038A0009093510780915307909154079A8389838D
:1038B00080915507909156079C838B838091570781
:1038C000909158079E838D8380914507909146077C
:1038D0000E946D0F6F83788789879A8780914C0744
:1038E00090914D078130910509F0B0C020915207A9
:1038F000222309F4ABC022E02B878230910509F026
:10390000A7C020915207222309F4A2C022E02C87ED
:10391000039709F09FC080915207882309F49AC049
:1039200082E08D87CE0101960E9460110E94C6043C
:103930002091590730915A0740915B0750915C07DD
:10394000621B730B840B950BA0904507B090460744
:10395000693B7B408105910508F47EC0B501CE012D
:1039600001960E94D50ECE0101960E94661085E058
:103970000E94E70321E0009709F020E020937D07F3
:10398000892B09F050C06091450770914607CE0120
:1039900001960E94D50ECE0101960E94F40688235E
:1039A00079F190924D0780924C078C8190E0909332
:1039B0005407809353078D8190E09093560780932E
:1039C00055078E8190E090935807809357070E9487
:1039D000C60460934E0770934F07809350079093EF
:1039E0005107109252070E94C604609359077093C2
:1039F0005A0780935B0790935C0781E080935D0793
:103A00000E94C60460934707709348078093490754
:103A100090934A0780914B07811105C081E0809304
:103A20004B070E949A1062E370E080E090E00E94F1
:103A3000940480E090E0892B09F40BCD0E9461058D
:103A4000882309F406CD0E94000003CD20E054CF66
:103A500020E05DCF80E065CF85E00E94E7039C0118
:103A600081E02115310509F080E0F501878390910F
:103A7000D401232B09F0A0C0911114C080915D07DF
:103A8000882309F48FC010925D0781E08093D401F0
:103A90000E94C6046093590770935A0780935B078E
:103AA00090935C07009145071091460786E00E94BD
:103AB000E70321E0009709F020E0F8012683892B35
:103AC00071F410924D0710924C070E94C604609347
:103AD000590770935A0780935B0790935C078BE0BC
:103AE0000E94E703892B09F06DC08091D00190916D
:103AF000D101A091D201B091D301892B8A2B8B2BBC
:103B000051F40E94C6046093D0017093D101809358
:103B1000D2019093D3010E94C6040091D00110916C
:103B2000D1012091D2013091D301601B710B820B26
:103B3000930B693E73408105910508F418CFD0922C
:103B40004D07C0924C07109252070E94C604609322
:103B50004E0770934F078093500790935107109230
:103B6000D0011092D1011092D2011092D301109283
:103B7000D4010E94C6046093590770935A0780933A
:103B80005B0790935C0781E080935D0780914C0711
:103B900090914D07892B09F0EACE6091450770910D
:103BA0004607DDCEF801808191810196B7010E9420
:103BB000A21F9183808369CF992309F473CF109258
:103BC000D40170CF1092D0011092D1011092D20185
:103BD0001092D301CCCE85E00E94E70321E000974C
:103BE00009F020E020937D07892B09F409CF86E0B6
:103BF0000E94E70321E0009709F020E020937C0772
:103C0000892B09F4FDCE0FCF83E0C82ED12C9CE385
:103C1000E92EF12C05E517E022CE0E944F1E08F494
:103C200081E00895E89409C097FB3EF49095809553
:103C3000709561957F4F8F4F9F4F9923A9F0F92F72
:103C400096E9BB279395F695879577956795B795F0
:103C5000F111F8CFFAF4BB0F11F460FF1BC06F5FD6
:103C60007F4F8F4F9F4F16C0882311F096E911C0E8
:103C7000772321F09EE8872F762F05C0662371F009
:103C800096E8862F70E060E02AF09A95660F771F1D
:103C9000881FDAF7880F9695879597F90895990FF9
:103CA0000008550FAA0BE0E8FEEF16161706E80706
:103CB000F907C0F012161306E407F50798F0621B27
:103CC000730B840B950B39F40A2661F0232B242BFC
:103CD000252B21F408950A2609F4A140A6958FEF1B
:103CE000811D811D08950E94861E0C94F71E0E945E
:103CF000E91E38F00E94F01E20F0952311F00C947C
:103D0000E01E0C94E61E11240C942B1F0E94081F29
:103D100070F3959FC1F3950F50E0551F629FF0011E
:103D2000729FBB27F00DB11D639FAA27F00DB11D37
:103D3000AA1F649F6627B00DA11D661F829F2227C0
:103D4000B00DA11D621F739FB00DA11D621F839F47
:103D5000A00D611D221F749F3327A00D611D231F1D
:103D6000849F600D211D822F762F6A2F11249F576B
:103D700050409AF0F1F088234AF0EE0FFF1FBB1F6E
:103D8000661F771F881F91505040A9F79E3F51052D
:103D900080F00C94E01E0C942B1F5F3FE4F3983EE0
:103DA000D4F3869577956795B795F795E7959F5FD7
:103DB000C1F7FE2B880F911D9695879597F9089569
:103DC00097F99F6780E870E060E008959FEF80ECCE
:103DD000089500240A941616170618060906089571
:103DE00000240A9412161306140605060895092ED7
:103DF0000394000C11F4882352F0BB0F40F4BF2B46
:103E000011F460FF04C06F5F7F4F8F4F9F4F089585
:103E100057FD9058440F551F59F05F3F71F047957B
:103E2000880F97FB991F61F09F3F79F08795089560
:103E3000121613061406551FF2CF4695F1DF08C07F
:103E4000161617061806991FF1CF8695710561059C
:103E500008940895E894BB2766277727CB0197F944
:103E600008950E94731FA59F900DB49F900DA49F6D
:103E7000800D911D112408952F923F924F925F92D1
:103E80006F927F928F929F92AF92BF92CF92DF926A
:103E9000EF92FF920F931F93CF93DF93CDB7DEB7CF
:103EA000CA1BDB0B0FB6F894DEBF0FBECDBF099463
:103EB0002A88398848885F846E847D848C849B84BA
:103EC000AA84B984C884DF80EE80FD800C811B81C8
:103ED000AA81B981CE0FD11D0FB6F894DEBF0FBEF7
:103EE000CDBFED010895A29FB001B39FC001A39F74
:103EF000700D811D1124911DB29F700D811D112423
:103F0000911D0895991B79E004C0991F961708F038
:103F1000961B881F7A95C9F780950895AA1BBB1B2D
:103F200051E107C0AA1FBB1FA617B70710F0A61BB9
:103F3000B70B881F991F5A95A9F780959095BC01DA
:103F4000CD01089597FB072E16F4009407D077FD56
:103F500009D00E948E1F07FC05D03EF490958195F4
:103F60009F4F0895709561957F4F0895A1E21A2E95
:103F7000AA1BBB1BFD010DC0AA1FBB1FEE1FFF1F0D
:103F8000A217B307E407F50720F0A21BB30BE40B5D
:103F9000F50B661F771F881F991F1A9469F76095A4
:103FA0007095809590959B01AC01BD01CF0108955E
:103FB000052E97FB1EF400940E94EF1F57FD07D0BB
:103FC0000E94B61F07FC03D04EF40C94EF1F5095CF
:103FD0004095309521953F4F4F4F5F4F08959095F5
:103FE0008095709561957F4F8F4F9F4F08950E94E8
:103FF000731FB7FF0895821B930B0895EE0FFF1FE9
:104000000590F491E02D09945058BB27AA270E94EF
:104010001C200C94F71E0E94E91E38F00E94F01E2E
:1040200020F039F49F3F19F426F40C94E61E0EF4A8
:10403000E095E7FB0C94E01EE92F0E94081F58F35F
:10404000BA17620773078407950720F079F4A6F57D
:104050000C942A1F0EF4E0950B2EBA2FA02D0B0105
:10406000B90190010C01CA01A0011124FF27591BBD
:1040700099F0593F50F4503E68F11A16F040A22FC3
:10408000232F342F4427585FF3CF46953795279534
:10409000A795F0405395C9F77EF41F16BA0B620B33
:1040A000730B840BBAF09150A1F0FF0FBB1F661F7A
:1040B000771F881FC2F70EC0BA0F621F731F841FBD
:1040C00048F4879577956795B795F7959E3F08F0E3
:1040D000B0CF9395880F08F09927EE0F97958795A5
:1040E00008950E94101F88F09F5798F0B92F9927C4
:1040F000B751B0F0E1F0660F771F881F991F1AF0D3
:10410000BA95C9F714C0B13091F00E942A1FB1E0EE
:1041100008950C942A1F672F782F8827B85F39F0ED
:10412000B93FCCF3869577956795B395D9F73EF46B
:1041300090958095709561957F4F8F4F9F4F089513
:104140000E944F1E08F48FEF08950E944F1E880BA7
:10415000990B08950F931F93CF93DF9382309105AE
:1041600010F482E090E0E0918007F091810730E068
:1041700020E0B0E0A0E0309799F42115310509F472
:104180004AC0281B390B24303105D8F58A819B8120
:104190006115710589F1FB0193838283FE0111C0D2
:1041A000408151810281138148175907E0F0481777
:1041B000590799F4109761F012960C931297139681
:1041C0001C933296CF01DF91CF911F910F910895EB
:1041D0000093800710938107F4CF2115310551F02A
:1041E0004217530738F0A901DB019A01BD01DF0135
:1041F000F801C1CFEF01F9CF909381078093800739
:10420000CDCFFE01E20FF31F81939193225031092C
:1042100039832883D7CF20917E0730917F07232BC6
:1042200041F4209106013091070130937F072093DC
:104230007E0720910401309105012115310541F4DB
:104240002DB73EB74091080150910901241B350B51
:10425000E0917E07F0917F07E217F307A0F42E1B91
:104260003F0B2817390778F0AC014E5F5F4F2417DA
:10427000350748F04E0F5F1F50937F0740937E072E
:10428000819391939FCFF0E0E0E09CCFCF93DF93B9
:104290000097E9F0FC01329713821282A091800707
:1042A000B0918107ED0130E020E01097A1F420816A
:1042B0003181820F931F20917E0730917F0728174D
:1042C000390709F061C0F0937F07E0937E07DF9123
:1042D000CF910895EA01CE17DF07E8F54A815B81A7
:1042E0009E0141155105B1F7E901FB83EA8349912C
:1042F0005991C40FD51FEC17FD0761F4808191819E
:104300000296840F951FE9019983888382819381A6
:104310009B838A83F0E0E0E012968D919C91139745
:104320000097B9F52D913C911197CD010296820F1E
:10433000931F20917E0730917F072817390739F6A0
:10434000309751F51092810710928007B0937F0744
:10435000A0937E07BCCFD383C28340815181840F59
:10436000951FC817D90761F44E5F5F4F8881998107
:10437000480F591F518340838A819B819383828395
:104380002115310509F0B0CFF0938107E093800744
:104390009ECFFD01DC01C0CF13821282D7CFDC019A
:1043A00001C06D9341505040E0F70895FB01DC01DE
:1043B00001900D920020E1F70895AEE0B0E0E3EE49
:1043C000F1E20C944A1F0D891E898F89988D26E091
:1043D0002C831A83098397FF02C080E090E801973D
:1043E0009E838D83AE01455E5F4F698D7A8DCE01D0
:1043F00001960E940D224D815E8157FD0AC02F81DA
:104400003885421753070CF49A01020F131FF80165
:1044100010822E96E4E00C94661FABE0B0E0E3E17E
:10442000F2E20C943C1F7C013B018A01FC011782E3
:104430001682838181FFC8C1CE0101965C01F7011C
:104440009381F30193FD859193FF81913F0188232F
:1044500009F453C1853239F493FD859193FF81911D
:104460003F01853229F4B70190E00E94FD23E7CF98
:10447000912C212C312CFFE1F31538F08B3211F106
:1044800090F4803209F1833229F137FC3CC020EDF1
:10449000280F2A3050F536FE20C08AE0989E200D65
:1044A0001124922E06C08D3291F0803371F76894FA
:1044B00030F8F30193FD859193FF81913F018111C4
:1044C000DACF21C0689431F8689432F8F2CF68945A
:1044D00033F8EFCF689434F8ECCFEAE02E9E200D4D
:1044E0001124222E689435F8E4CF8E3229F436FC5C
:1044F00004C1689436F8DDCF8C3619F4689437F827
:10450000D8CF8836B1F2982F9F7D95549330E0F044
:104510008336A1F18337C1F1833509F063C02801E7
:10452000F2E04F0E511CF801C080D180692D70E07F
:1045300036FC02C06FEF7FEFC6010E94E7234C01FB
:10454000689437F882010AC00C5F1F4FFFE3F983BC
:1045500088248394912C6501E89437F833FE2DC0AC
:10456000522C8114910471F5552009F468CFB701DC
:1045700080E290E00E94FD235A94F6CFF8018081FA
:1045800089830E5F1F4FE4CF2801F2E04F0E511CCC
:10459000F801C080D180692D70E036FC02C06FEF59
:1045A0007FEFC6010E94F2234C018201D5CFB701F3
:1045B00080E290E00E94FD232A942814190409F057
:1045C000B0F7CECFF60137FC859137FE81916F01B0
:1045D000B70190E00E94FD2351105A94F1E08F1A28
:1045E0009108BFCF843619F0893609F077C0F801F9
:1045F00037FE6BC060817181828193810C5F1F4F98
:10460000F32DFF763F2E97FF09C09095809570950A
:1046100061957F4F8F4F9F4F689437F82AE030E0C5
:10462000A5010E942D24C82ECA188C2C432C36FEBE
:104630000CC0E89440F8C91440F434FE05C032FCC4
:1046400003C0F32DFE7E4F2E892C44FE95C0FE0143
:10465000EC0DF11D8081803309F087C0242D297E67
:10466000422E842D8870582E43FC95C040FE8FC08A
:104670009C2C821418F42C0C922C981844FE91C097
:10468000B70180E390E00E94FD2342FE09C088E765
:1046900090E041FE02C088E590E0B7010E94FD2352
:1046A000C91408F48AC0CA94D12C9FEFC91AD90A38
:1046B000CA0CDB1CF60182916F01B70190E00E94E9
:1046C000FD23AC14BD04B1F74FCF60817181072E7B
:1046D000000C880B990B0E5F1F4F92CFD32CE894E0
:1046E000D4F82AE030E0853739F1232D297FD22E06
:1046F0008F3601F148F48835A9F0F701868197815A
:104700002B96E2E10C94581F803749F08837A9F7BF
:10471000D4FE02C06894D2F820E130E00DC0689465
:10472000D4F8F6CF34FE03C0822F8660D82E20E165
:1047300032E002C028E030E0F801D7FE0FC060810F
:104740007181828193810C5F1F4FA5010E942D24EE
:10475000C82ECA183D2CE89437F867CF6081718164
:1047600090E080E00E5F1F4FF0CF42FC02C08394C8
:1047700078CF8394839475CF842D867809F471CF94
:10478000F6CFB70180E290E00E94FD23839482146B
:10479000C0F3512C73CF522C5818821408F46ECFEA
:1047A000F8CF842D867809F47BCF8BE241FE80E23E
:1047B00047FC8DE2B70190E071CFB70180E390E054
:1047C0000E94FD239A946CCF8FEF9FEF99CFFC014D
:1047D0000590615070400110D8F7809590958E0F2C
:1047E0009F1F0895FC016150704001900110D8F79F
:1047F000809590958E0F9F1F08950F931F93CF93D1
:10480000DF93182F092FEB018B8181FD09C01FEF6A
:104810000FEF812F902FDF91CF911F910F9108956E
:1048200082FF14C02E813F818C819D81281739071A
:104830003CF4E881F981CF01019699838883108344
:104840008E819F8101969F838E83E3CFE885F985D2
:10485000812F0995892BA1F3DACFFA01AA272830F5
:1048600051F1203181F1E8946F936E7F6E5F7F4F3D
:104870008F4F9F4FAF4FB1E03ED0B4E03CD0670FB9
:10488000781F891F9A1FA11D680F791F8A1F911D0C
:10489000A11D6A0F711D811D911DA11D20D009F45C
:1048A00068943F912AE0269F11243019305D31939E
:1048B000DEF6CF010895462F4770405D4193B3E087
:1048C0000FD0C9F7F6CF462F4F70405D4A3318F02E
:1048D000495D31FD4052419302D0A9F7EACFB4E0DF
:1048E000A6959795879577956795BA95C9F7009797
:1048F0006105710508959B01AC010A2E0694579538
:10490000479537952795BA95C9F7620F731F841F8E
:0A491000951FA01D0895F894FFCF35
:10491A00D204D2040000820780000000000097053C
:10492A00F7042405E4055505330547050000000092
:10493A001809EB087D0DC108E408D108C208000077
:10494A000000140BF7047D0D7C0D25303264002520
:10495A00733A25733A257300D0A2D0B5D0BCD0BF24
:10496A00D0B5D180D0B0D182D183D180D0B0002B44
:10497A00006E616E00696E66006F7666004300D055
:10498A009ED0B1D180D0BED0B1D0BAD0B0002573FC
:0C499A00256400D185D0B22E000D0A006B
:00000001FF
